:020000040800F2
:10000000F816002041010008792B00087F1D000828
:1000100000000000000000000000000000000000E0
:100020000000000000000000000000007D2F00081C
:100030000000000000000000FF0000082D3E000846
:10004000530100080000000053010008530100089C
:100050005301000853010008530100085301000830
:10006000000000005301000853010008530100087C
:10007000530100085301000853010008000000006C
:10008000B93F0008E93F000800000000453F0008B4
:10009000530100086D3F0008A93F00085301000804
:1000A000530100085301000853010008B140000843
:1000B000354100080348854600F09CF80048004799
:1000C000C1460008F8160020084B1968086820305F
:1000D00080F30988022080F31488BFF36F8F3FBC40
:1000E000AE4608BC04BC62B618470000DC00002025
:1000F000EFF3108072B6704780F310887047EFF30B
:1001000009800E4B1A6820381060F0C044464D46F6
:1001100056465F46F0C008B572B605F00DFF62B6F0
:100120000CBC116808681030F0C8A046A946B24659
:10013000BB4680F309882038F0C81847DC0000204F
:100140000448804704480047FEE7FEE7FEE7FEE775
:10015000FEE7FEE7D13E0008B500000830B50B46CB
:10016000014600202022012409E00D46D5409D4291
:1001700005D31D469540491B254695404019154617
:10018000521E002DF1DC30BD10B5202A04DB0846DC
:10019000203AD040002110BD0B46D340D04020244F
:1001A000A21A91400843194610BD03460B439B0712
:1001B00003D009E008C9121F08C0042AFAD203E0DC
:1001C0000B780370401C491C521EF9D27047D2B202
:1001D00001E00270401C491EFBD270470022F6E786
:1001E00010B513460A4604461946FFF7F0FF2046AD
:1001F00010BD0000064C0125064E05E0E36807CC63
:100200002B430C3C98471034B442F7D3FFF756FF0A
:10021000486C0008686C000830B58C180278401CE7
:1002200013071B0F01D10378401C120906D1027875
:10023000401C03E005780D70401C491C5B1EF9D181
:1002400001E00B70491C521EFBD1A142E6D30020F5
:1002500030BD70B504460025206880680421084040
:100260008008002829D020688068084000280BD02A
:100270002068806802210840002805D12068806835
:10028000102108432168886000F006FF05460EE053
:1002900000F002FF401B022809D9606C10210843BE
:1002A0006064A06C01210843A064012070BD206837
:1002B0008068042108400028EAD10020F6E770B5E4
:1002C00004460025206880688007800F01280ED131
:1002D00020680068C007C00F002806D12068C068E9
:1002E0000121C9030840884201D1012000E000201B
:1002F000002837D02068806805210840012800D1F7
:1003000000E0002000280AD000BF20688068022199
:1003100008432168886003202168086009E0606C58
:10032000102108436064A06C01210843A0640120EF
:1003300070BD00F0B1FE05460EE000F0ADFE401BC2
:10034000022809D9606C102108436064A06C012167
:100350000843A0640120EBE720688068C007C00F55
:100360000028EAD10020E3E738B504460025002044
:100370000090206880688007800F01280ED12068D7
:100380000068C007C00F002806D12068C06801219E
:10039000C9030840884201D1012000E00020002864
:1003A00043D12068806822490840002801D10120FB
:1003B00000E00020002809D1606C1021084360642F
:1003C000A06C01210843A064012038BD206880682A
:1003D0000121084321688860164917480068FFF723
:1003E000BDFE009002E00098401E0090009800289A
:1003F000F9D100F051FE05460EE000F04DFE401B25
:10040000022809D9606C102108436064A06C0121A6
:100410000843A0640120D8E720680068C007C00F27
:100420000121484048400028E7D00020CDE70000E7
:100430001700008040420F00D800002070470000E5
:1004400000200749C861074800690421084305499D
:100450000861084600694021084302490861704765
:10046000E0010020002002400021084AD161084933
:10047000096902221143064A11611146486109695E
:1004800040221143024A116170470000E001002040
:10049000002002400022054BDA61054A126901235F
:1004A0001A43034B1A61018070470000E0010020ED
:1004B0000020024000200F49C96810221140102975
:1004C00007D10D49C969022211430B4AD16110219C
:1004D00008430849C96804221140042907D1064984
:1004E000C96901221143044AD16104210843014929
:1004F000C860704700200240E001002070B504464B
:1005000000F0CAFD05460BE0601C002808D0002C56
:1005100004D000F0C1FD401BA04201D9032070BDF2
:100520000F48C068C007C00F0028EDD10C48C06854
:1005300020210840202801D10949C8600848C06826
:1005400010210840102805D00548C0680421084043
:10055000042803D1FFF7AEFF0120E0E70020DEE72B
:10056000002002400F480078002801D0002070478A
:1005700001200C49087080200B49886100BF00BF32
:100580000A48C068012108430849C86000BF00BF8D
:1005900008460068012108430449086000BF0120A3
:1005A000E5E7000086000020001400480004004039
:1005B00010B54C488078C007C00F002805D04948C6
:1005C0000088401C4749088004E046480088401ED7
:1005D0004449088043488078C007C00F002835D0C0
:1005E000404800788007800F002806D001280FD0EF
:1005F000022816D0032828D11EE00121C9030920B2
:10060000C00601F025FD1021374801F02DFD1CE04A
:100610002021354801F01CFD0821334801F024FD5C
:1006200013E01021304801F013FD0121C903092016
:10063000C00601F019FD08E008212B4801F008FD73
:100640002021294801F010FD00BF35E02548007841
:100650008007800F002806D001280DD0022816D070
:10066000032828D11CE008211F4801F0F1FC2021BB
:100670001D4801F0F9FC1EE00121C9030920C00654
:1006800001F0E6FC1021184801F0EEFC13E02021F7
:10069000154801F0DDFC0821134801F0E5FC0AE0F3
:1006A0001021114801F0D4FC0121C9030920C00622
:1006B00001F0DAFC00BF00BF0A48008809498988B8
:1006C00088420DD107488078022188430549887007
:1006D000002203210548006804F06EF9012010BDD6
:1006E0000020FCE76E00002000040048A800002065
:1006F00010B52021084801F0ABFC1021064801F09C
:10070000A7FC0821044801F0A3FC0121C90309202A
:10071000C00601F09DFC10BD0004004810B5044661
:1007200017480088A0420CD10020C043144988809B
:10073000084680780221884311498870114801F0E9
:10074000F8FC0F488480807802218843801C0C4983
:10075000887008468078400840000988A14201DA84
:10076000012100E00021C907C90F0843044988702E
:10077000044801F0EDFC034801F0E5FC10BD000069
:100780006E00002000200040F8B504460D4600260B
:100790000020009001210907A06B884215D0A06BB2
:1007A000012812D0A06B02280FD0A06B03280CD018
:1007B000A06B042809D0A06B052806D0A06B0628E2
:1007C00003D0A06B072800D000BF00BF4020005D11
:1007D000012801D10220F8BD01214020015500BFB0
:1007E0002068806804210840800800287BD14449A3
:1007F000686888425BD02068806A2A78012191402D
:1008000008432168886201210907A06B884229D02A
:10081000A06B012826D0A06B022823D0A06B032850
:1008200020D0A06B04281DD0A06B05281AD0A06B87
:10083000062817D0A06B072814D0A868216849693A
:100840004907490F88420DD020684069C008C000A0
:100850002168486120684069297A4907490F08439F
:10086000216848612868102802D0286811283FD1E3
:10087000244880682968102901D1C90401E00121B8
:10088000890508431F4988602868102830D11E490F
:100890001E480068FFF762FC0A214843009002E00E
:1008A0000098401E009000980028F9D120E02068B0
:1008B000806A2A78012191408843216888622868EB
:1008C000102802D02868112812D10E4880682968A3
:1008D000102902D1C90402E005E0012189058843FD
:1008E0000849886004E0606C2021084360640126A8
:1008F00000BF00214020015500BF30466BE70000DB
:10090000011000000027014040420F00D8000020E5
:1009100001460868006C704770B504460026002543
:10092000002C01D1012070BD606C002806D1A064AC
:10093000002140200155204600F0CEF8606C1021C7
:10094000084000287ED1002EFCD120688068042158
:10095000084080080028F5D1606C89018843022195
:1009600008436064206880688007800F01280DD1EB
:1009700020680068C007C00F002805D12068C06843
:1009800089030840884201D1012000E000200028AE
:100990000FD12068C06818218843A16808432168E6
:1009A000C860206800698000800861680843216889
:1009B00008612068C068464908402168C860A0698D
:1009C0008003E169C9030843216A49030843616B55
:1009D000012902D00121090300E000210843E16858
:1009E00008432169022901D1042100E000210843C4
:1009F000216B490008430543606A01280ED1206A33
:100A0000002803D101200004054307E0606C202189
:100A100008436064A06C01210843A064FF21C23137
:100A2000A06A884203D0E16AA06A084305432068AF
:100A3000C06828432168C86001210907A06B88426B
:100A400016D000E03DE0A06B012811D0A06B022879
:100A50000ED0A06B03280BD0A06B042808D0A06B8D
:100A6000052805D0A06B062802D0A06B07280DD161
:100A700020684069C008C00021684861206840695A
:100A8000218F4907490F0843216848612068C068E1
:100A900010490840A84208D10020A064606C0221DF
:100AA000884301210843606410E0606C02218843A0
:100AB000102108436064A06C01210843A064012652
:100AC00004E0606C102108436064012630462AE788
:100AD0001902FEFFE7FF3F8310B586B004461421DC
:100AE00001A8FFF77BFB17492068884227D100BF88
:100AF000154880694915084313498861084680698B
:100B000049150840009000BF00BF00BF0E48406973
:100B1000090208430C49486108464069012149041B
:100B20000840009000BF00BF012001900320029008
:100B30000020039001A90920C00600F0B5F906B015
:100B400010BD00000024014000100240F8B504462A
:100B50000D466069082801D1082711E02068C068A7
:100B6000C007C00F00280AD0606C202108436064D1
:100B700000BF00214020015500BF0120F8BD0C2717
:100B800000F08AFA064614E0681C002811D0002DF7
:100B900004D000F081FA801BA8420AD9606C0421BD
:100BA0000843606400BF00214020015500BF0320BE
:100BB000E4E72068006838400028E5D0606C012137
:100BC0004902084360642068C06803218902084024
:100BD000002825D1206A002822D120680068082139
:100BE000084008281CD1206880680421084080083B
:100BF00000280DD1206840680C2188432168486096
:100C0000606CFF210131884301210843606407E0E3
:100C1000606C202108436064A06C01210843A0643B
:100C2000A069002802D10C20216808600020A5E7F7
:100C300070B50446002520688068042108408008BB
:100C400000282BD100BF4020005D012801D10220E7
:100C500070BD01214020015500BFE069012803D08B
:100C60002046FFF781FB0546002D18D1606C0D4929
:100C70000840FF210131084360640020A06400BFE8
:100C800000214020015500BF1C2021680860206819
:100C90008068042108432168886000E00225284616
:100CA000D6E70000FEF1FFFF70B50446002500BF47
:100CB0004020005D012801D1022070BD01214020AB
:100CC000015500BF2046FFF7C4FA0546002D0CD1A0
:100CD0002046FFF7F4FA0546002D06D1606CFF218F
:100CE0000131884301210843606400BF0021402096
:100CF000015500BF2846E0E7F8B504460E46012737
:100D0000002500BF2448007E012801D10220F8BD43
:100D100001202149087600BF2068012811D11F4811
:100D2000FFF7ECFB002830D1FFF78AFB1B48FFF7E9
:100D3000E5FB07461A480069042188431849086101
:100D400023E01648FFF7DAFB00281ED1401E306072
:100D5000656813E02846FFF787FB1048FFF7CEFBD6
:100D600007460F480069022188430D490861002F9A
:100D700001D0356008E0012080022D18A0688002B3
:100D800061684018A842E5D800BF00BF00200249B2
:100D9000087600BF3846BAE7E001002050C30000E3
:100DA000002002400348006980210843014908618E
:100DB0000020704700200240F0B51FB486B00746FF
:100DC00015461E460120039000240020029000BF1B
:100DD0002548007E012802D102200BB0F0BD012081
:100DE0002149087600BF2148FFF788FB039003984C
:100DF000002831D1012F02D10120029006E0022FFC
:100E000002D10220029001E00420029000241FE0A1
:100E100022012846314604960595FFF7B5F980B2C0
:100E2000610001900798081800900199FFF732FBC4
:100E30000E48FFF763FB03900D480069400840002F
:100E40000B4908610398002800D004E0601CC4B27C
:100E500002988442DCDB00BF00BF00200249087614
:100E600000BF0398B9E70000E001002050C3000074
:100E70000020024000200949096980221140002910
:100E80000BD00749054A516006495160114609696E
:100E900080221140002900D001207047002002402C
:100EA00023016745AB89EFCD78B5034600220024C6
:100EB0000020DEE0012696400D6835402C46002CCF
:100EC0007ED04D68022D02D04D68122D15D1D50867
:100ED000AE001D462035A8595507EE0E0F25B5402A
:100EE0000646AE4330465607F60E0D69B540284318
:100EF000D508AD001E4620367051186856000325EF
:100F0000B5400646AE4330460D79AD07AD0F5600ED
:100F1000B540284318604D68012D08D04D68022D5A
:100F200005D04D68112D02D04D68122D18D198684A
:100F300056000325B5400646AE4330465600CD6800
:100F4000B540284398605868012595400646AE4351
:100F5000304610264D6835402D099540284358608D
:100F6000D86856000325B5400646AE4330465600C5
:100F70008D68B5402843D860012636074D68354056
:100F8000B54275D100BF3E4DAD69012635433C4E9B
:100F9000B5613546AD69ED07ED0F009500BF00BFA7
:100FA000384D9608B600A85995072E0F0F25B54065
:100FB0000646AE4330460925ED06AB4203D100E0BC
:100FC00056E000250FE0304DAB4201D101250AE08B
:100FD0002E4DAB4201D1022505E02D4DAB4201D192
:100FE000032500E005259607360FB5402843254D1B
:100FF0009608B600A851274D28680546A5432846FF
:10100000012636044D683540B54202D105462543D8
:101010002846204D286068680546A54328460126D5
:1010200076044D683540B54202D105462543284631
:10103000184D6860A8680546A54328460126360570
:101040004D683540B54202D1054625432846114D2D
:10105000A860E8680546A5432846012676054D6840
:101060003540B54202D1054625432846094DE86082
:10107000521C0D68D540002D00D01BE778BD000044
:101080000010024008000140000400480008004829
:10109000000C00480004014001480068704700004F
:1010A000D400002002480068401C014908607047D5
:1010B000D400002010B506480068102108430449F8
:1010C0000860002000F006F800F04CF8002010BD89
:1010D0000020024070B586B004460025002600229C
:1010E0002146162000F070F8162000F061F800BFCD
:1010F0001748806901218904084315498861084619
:101100008069012189040840009000BF00BF01A947
:1011100002A800F0D5F900F0F5F905460D4928467A
:10112000FFF71CF8461E0C480C4908600C490B4898
:10113000C160466000210161816000F0FFFC002871
:1011400004D1064800F017FD06B070BD0120FBE792
:101150000010024040420F0000480140A001002062
:10116000E703000008B500BF10488069012108436B
:101170000E49886108468069C007C00F009000BF13
:1011800000BF00BF0846C069090408430749C86199
:101190000846C06909040840009000BF00BF002253
:1011A0000321481F00F010F808BD000000100240A5
:1011B00000BFC206D20E01219140024A116000BF59
:1011C0007047000000E100E070B504460D46164689
:1011D0002946204601F018FD70BD0000F8B5044610
:1011E00000260025012109042068084088427AD1A0
:1011F00000274B48C0690903084000280DD100BFF3
:101200004748C06908434649C8610846C06909049F
:101210000840009000BF00BF012742480068FF213E
:1012200001310840002816D13E48006808433D4976
:101230000860FFF731FF064606E0FFF72DFF801B31
:10124000642801D90320F8BD36480068FF21013128
:1012500008400028F1D03248006A03210902084002
:101260000546002D2DD060680840A84229D02C48A2
:10127000006A884305462A48006A01210904084398
:10128000274908620846006A012109048843244965
:10129000086208460562E807C00F002811D0FFF772
:1012A000FBFE064607E0FFF7F7FE801B1E4988425B
:1012B00001D90320C7E71A48006A02210840002824
:1012C000F1D01748006A0321090288436168084386
:1012D00013490862012F05D10846C06909048843F3
:1012E0000F49C86100BF2078C007C00F002807D091
:1012F0000B48006B80088000A16808430849086318
:10130000202120680840202807D10548006B1021C3
:101310008843E168084302490863002093E700001E
:1013200000100240007000408813000070B50446B1
:101330000D4600265D480068C007C00FA8420ED2C7
:101340005A48006840084000284358490860084649
:101350000068C007C00FA84201D0012070BD022163
:1013600020680840022807D151484068F02188438E
:10137000A16808434E4948602078C007C00F002884
:101380005FD06068012808D14948006801214904FC
:101390000840002815D10120E0E76068022808D144
:1013A00043480068012149060840002809D101206E
:1013B000D4E73F48006802210840002801D10120FD
:1013C000CCE73B48406880088000616808433849A2
:1013D0004860FFF761FE0646606801280FD107E00C
:1013E000FFF75AFE801B3349884201D90320B5E735
:1013F0002F4840680C2108400428F1D121E06068A2
:1014000002280FD107E0FFF747FE801B29498842D9
:1014100001D90320A2E7264840680C21084008288B
:10142000F1D10EE007E0FFF737FE801B214988422B
:1014300001D9032092E71E4840680C21084000288B
:10144000F1D11A480068C007C00FA8420ED917484A
:1014500000684008400028431449086008460068B6
:10146000C007C00FA84201D0012077E704212068FF
:101470000840042808D10E48406807210902884323
:10148000E16808430A49486000F04EF80849496895
:10149000F02211400909084A515CC8400749086018
:1014A0000020FFF717FE002058E700000020024050
:1014B0000010024088130000006C0008D8000020D3
:1014C000072202600A4A52689207920F4260084A55
:1014D0005268F0231A408260054A526807231B02B3
:1014E0001A40C260034A1268D207D20F0A607047DE
:1014F00000100240002002400148006870470000D0
:10150000D800002000B5FFF7F7FF0549496807221A
:1015100012021140090A034A515CC84000BD000094
:1015200000100240106C0008F0B589B024A00146FC
:101530000EC9C06805AC0EC4089025A001460EC9AE
:10154000C06801AC0EC404900024002700250026CA
:1015500000200090224844680C202040002827D01A
:10156000042802D0082822D102E01E48009022E080
:101570000F2080042040800C05A90E5C1848C06A2A
:101580000007000F01A90F5C012000042040012189
:101590000904884206D139461248FEF7DFFD704340
:1015A000054602E0104835464543009503E000BF7C
:1015B0000C48009000BF00BF009809B0F0BD0000CB
:1015C00002030405060708090A0B0C0D0E0F101084
:1015D0000102030405060708090A0B0C0D0E0F1083
:1015E0000010024000127A0000093D00F8B50446E0
:1015F00000252078C007C00F002871D0F948406846
:101600000C21084004280BD0F64840680840082800
:1016100012D1F448406801210904084088420BD1E6
:10162000F048006801214904084000286BD0606838
:10163000002868D10120F8BD00BF6068012807D1EB
:10164000E8480068012109040843E649086031E0E0
:10165000606800280ED1E34800680121090488432E
:10166000E049086008460068012189048843DD4993
:1016700008601FE0606805280ED1DA480068012183
:1016800089040843D7490860084600680121090415
:101690000843D44908600DE0D248006801210904DC
:1016A0008843D049086008460068012189048843BE
:1016B000CC49086000BF6068002812D0FFF7ECFC3E
:1016C000054606E0FFF7E8FC401B642801D903202B
:1016D000B1E7C44800680121490408400028F1D05E
:1016E00011E0FFF7D9FC054606E0FFF7D5FC401BEB
:1016F000642801D903209EE7BA4800680121490403
:1017000008400028F1D1022120680840022861D158
:10171000B44840680C21084000280BD0B14840680C
:10172000084008281BD1AF4840680121090408403F
:10173000002814D1AB48006802210840002804D0DA
:10174000E068012801D0012075E7A6480068F8216B
:1017500088432169C9000843A24908603AE0E0686B
:10176000002820D09F480068012108439D49086057
:10177000FFF792FC054606E0FFF78EFC401B0228AF
:1017800001D9032057E79748006802210840002844
:10179000F2D094480068F82188432169C9000843C1
:1017A0009049086016E08F480068400840008D4965
:1017B0000860FFF771FC054606E0FFF76DFC401B73
:1017C000022801D9032036E7864800680221084034
:1017D0000028F2D1082120680840082831D1E069AA
:1017E000002817D07F48406A012108437D4948629C
:1017F000FFF752FC054606E0FFF74EFC401B0228AF
:1018000001D9032017E77748406A022108400028E1
:10181000F2D016E07348406A4008400071494862BF
:10182000FFF73AFC054606E0FFF736FC401B0228AE
:1018300001D90320FFE66B48406A022108400028D6
:10184000F2D1042120680840042871D1002665489F
:10185000C0698906084000280DD100BF6148C069F1
:1018600008436049C8610846C069090408400090FF
:1018700000BF00BF01265C480068FF21013108401D
:10188000002816D158480068084357490860FFF7F8
:1018900003FC054606E0FFF7FFFB401B642801D967
:1018A0000320C8E650480068FF21013108400028A5
:1018B000F1D000BFA068012806D14A48006A012182
:1018C0000843484908622BE0A06800280CD145482D
:1018D000006A40084000434908620846006A042143
:1018E0008843404908621BE0A06805280CD13D48A8
:1018F000006A042108433B4908620846006A012146
:101900000843384908620BE03648006A4008400046
:10191000344908620846006A042188433149086254
:1019200000BFA068002813D0FFF7B6FB054608E00B
:1019300029E0FFF7B1FB401B2C49884201D9032065
:1019400079E62848006A022108400028F1D011E019
:10195000FFF7A2FB054607E0FFF79EFB401B23496C
:10196000884201D9032066E61E48006A0221084029
:101970000028F1D1012E05D11A48C06931078843EA
:101980001849C86100BF10212068084010285FD1A5
:10199000606901282CD11348406B04210843114988
:1019A00048630846406B012108430E494863FFF72E
:1019B00073FB054606E0FFF76FFB401B022801D9C9
:1019C000032038E60748406B022108400028F2D087
:1019D0000448406BF8218843A169C90008430149C4
:1019E000486335E00010024000700040881300009A
:1019F0006069401D00280FD14E48406B0421884388
:101A00004C4948630846406BF8218843A169C900E6
:101A10000843484948631BE04648406B042108439B
:101A2000444948630846406B400840004863FFF75C
:101A300033FB054606E0FFF72FFB401B022801D9C8
:101A40000320F8E53B48406B022108400028F2D112
:101A5000206A00286CD0374840680C2108400828CC
:101A600064D0206A022847D1324800680121090663
:101A7000884330490860FFF70FFB054606E0FFF793
:101A80000BFB401B022801D90320D4E5294800683C
:101A90000121490608400028F1D100BF2548C06A4D
:101AA00000090001E16A08432249C862616AA06A2C
:101AB0000843204949683D221204914308431D49C7
:101AC000486000BF0846006801210906084319491B
:101AD0000860FFF7E1FA054606E0FFF7DDFA401B74
:101AE000022801D90320A6E5124800680121490611
:101AF00008400028F1D01BE00E48006801210906CB
:101B000088430C490860FFF7C7FA054606E0FFF76F
:101B1000C3FA401B022801D903208CE50548006860
:101B20000121490608400028F1D101E0012082E5A9
:101B3000002080E5001002407047704710B5044651
:101B4000002C01D1012010BD3D20005D002805D1F1
:101B500000213C200155204600F00CF802213D20D8
:101B60000155211D206802F053FA01213D20015545
:101B70000020E8E7704701460868C068012210436A
:101B80000A68D06008680068012210430A68106083
:101B900000207047704710B5044620680069022194
:101BA0000840400800281CD02068C0680840400851
:101BB000002816D0481F216808610120207720687E
:101BC00080698007800F002803D02046FFF7E2FFDE
:101BD00005E0204600F0C3F8204600F0C1F80020E0
:101BE00020772068006904210840800800281DD063
:101BF0002068C06808408008002817D0C8432168C2
:101C000008610220207720688069032109020840CA
:101C1000002803D02046FFF7BDFF05E0204600F076
:101C20009EF8204600F09CF800202077206800698C
:101C300008210840C00800281CD02068C06808405F
:101C4000C008002816D0C843216808610420207706
:101C50002068C0698007800F002803D02046FFF766
:101C600099FF05E0204600F07AF8204600F078F869
:101C70000020207720680069102108400009002812
:101C80001DD02068C06808400009002817D0C8434C
:101C900021680861082020772068C06903210902B3
:101CA0000840002803D02046FFF774FF05E02046D7
:101CB00000F055F8204600F053F800202077206807
:101CC0000069C007C00F01214840484000280CD0DF
:101CD0002068C068084048404840002805D0C81E19
:101CE00021680861204600F03DF8206800698021E5
:101CF0000840C00900280BD02068C0680840C0090F
:101D0000002805D0C843216808612046FFF714FF6A
:101D10002068006940210840800900280BD0206815
:101D2000C06808408009002805D0C84321680861C0
:101D3000204600F023F8206800692021084040096F
:101D400000280BD02068C06808404009002805D052
:101D5000C843216808612046FFF7EFFE10BD7047B9
:101D60007047000010B5044603492068884201D13D
:101D7000FFF798F910BD000000480140704700BF10
:101D8000FEE7000008B5054949690143034A51616E
:101D9000114649690140009100BF08BD0010024092
:101DA00008B50549C9690143034AD1611146C969AA
:101DB0000140009100BF08BD0010024008B5054970
:101DC00089690143034A9161114689690140009183
:101DD00000BF08BD0010024010B54A1E044B9A5CBB
:101DE000825853085B004A1E014CA25C835010BD10
:101DF000DC6A000810B54A1E044B9A5C82585308EE
:101E00005B004A1E014CA25C835010BD046B0008AD
:101E100010B54A1E044B9A5C825853085B004A1E58
:101E2000014CA25C835010BDD86B000830B54B1E2E
:101E3000054CE35CC35803242403A34313434C1E03
:101E4000014D2C5D035130BD2C6B000830B54B1E8D
:101E5000064CE35C1B185B681B0C1B0413434C1EF5
:101E6000024D2C5D2418636030BD0000046B000837
:101E700030B54B1E054CE35CC358054C234013435F
:101E80004C1E024D2C5D035130BD00002C6B000830
:101E9000EFBFFFFF30B54B1E054CE35CC3588024F9
:101EA000A34313434C1E024D2C5D035130BD000073
:101EB0002C6B000830B54B1E054CE35CC358032463
:101EC000A402A34313434C1E014D2C5D035130BDAE
:101ED0002C6B000830B54B1E054CE35CC358202426
:101EE000A34313434C1E024D2C5D035130BD000033
:101EF0002C6B000830B54B1E054CE35CC3584024E6
:101F0000A34313434C1E024D2C5D035130BD000012
:101F10002C6B000830B54B1E054CE35CC358032402
:101F20002402A34313434C1E014D2C5D035130BDCD
:101F30002C6B0008F0B502460B460026002162E03B
:101F40000124B44018682040014600295AD058683E
:101F500014680D464D436F00ED19AC430D464D43DB
:101F600045432C43146000BF5868012802D05868CC
:101F700002280DD1986894680D464D436F00ED1905
:101F8000AC430D464D4345432C43946000BF00BF16
:101F90001869D4680D464D436F00ED19AC430D46EA
:101FA0004D4345432C43D46000BF5868022829D1D3
:101FB000FF2911D85869146A0D464D434D434D43CE
:101FC0002F017D1BAC430D464D434D434D434543CF
:101FD0002C43146200BF15E05F69080A40430C0AF5
:101FE00060430C0A60430401241A506AA0430C0A9F
:101FF00064430D0A6C430D0A6C437C4320435062DA
:1020000000BF00BF761C1868F040002898D15868BF
:10201000012802D05868022809D1DC681868556880
:102020008543074667433D43556000BF00BF01201D
:10203000F0BD024610690840884201D10120704776
:102040000020FCE7816270478162704781627047BF
:102050008162704781627047816270478161704719
:10206000816170478161704781617047816170470C
:102070008161704742694A404261704710B5044629
:1020800000F02AFF2060206800F002FF60606068B6
:1020900000F010FFA06010BDF8B504460025002C2C
:1020A00030D100BF1848006B0321A1400840210631
:1020B000084300281BD0012804D002280CD0032894
:1020C00014D103E000F008FF05461AE000F020F804
:1020D000002800D00D4D14E000BF0B48006A02211B
:1020E00008404008002800D08D030AE000BF00F03F
:1020F000F3FE074600F0CCFE064600F0DBFE054688
:1021000000BF00BF2846F8BD0010024000127A0050
:102110000248006802210840400870470010024051
:102120000121C94301617047016880229143016028
:102130007047016849084900016070470168490813
:102140004900016070470168012211430160704736
:10215000C16801221143C1607047000010B50246FA
:10216000002313682148824202D02148824205D1CF
:1021700018467024A0434C68204303461B48824203
:102180000ED01B4882420BD01A48824208D01A480F
:10219000824205D01948824202D01948824206D1B3
:1021A000184603242402A043CC682043034613604E
:1021B0008868D06200BF0888906200BF0B488242E6
:1021C00008D00D48824205D00C48824202D00C480B
:1021D000824203D1087C106300BF00BF00BF50697A
:1021E00001242043506100BF012010BD002C01409C
:1021F0000004004000200040004001400044014035
:102200000048014001460869C007C00F0122504044
:1022100050407047C162704741680122D202914329
:102220004160816808229143816070478168012282
:10223000920291438160704701684022914301609E
:10224000704701680122114301607047FEB50546E1
:102250000C4600270026284600F048F8002836D112
:10226000E1686068084321690843A1690843296857
:10227000184A114008432860A068696803221203C5
:1022800091430143696000BF6069A96812119143DD
:102290000143A96000BF1048854204D10020FFF728
:1022A000FBFE064606E00D48854203D16846FFF76F
:1022B000E5FE029E002E0AD02068002807D00127E4
:1022C000314628462368A26900F018F800BF384656
:1022D000FEBD0000F369FFFF0038014000440040EC
:1022E0000146C869402210408009704701460868CD
:1022F000C007C00F0122504050407047FEB5054650
:102300000E4617461C460020019000900120C00395
:10231000874214D17100620888182146FDF71EFF1C
:1023200080B201900A490198084000900198000786
:10233000400F0099084300900098E86006E06108AB
:1023400088192146FDF70AFF80B2E860FEBD000053
:10235000F0FF00000EB50020009001900290184898
:102360001849086040054860002116488160C16036
:10237000012101610421416100218161C16101628A
:102380004162FF21C23181620021C16201630121EA
:102390004163FEF7C1FA002801D0FEF74FF8002094
:1023A0000090012000030190000402906946054856
:1023B000FEF7EAF9002801D0FEF740F80EBD000054
:1023C000002401404801002010B50120FFF7DAFC8D
:1023D00002210A2000F0DCFB0A2000F0CFFB0221E2
:1023E0000B2000F0D5FB0B2000F0C8FB10BD000057
:1023F00000B587B0182101A8FDF7F0FE0120C00448
:10240000FFF7C0FC01208005FFF7BCFC0120400461
:10241000FFF7B8FC01208004FFF7B4FC102109206D
:10242000C006FFF719FE20210920C006FFF714FEA1
:1024300040210920C006FFF70FFE0221F648FFF7F2
:102440000BFE0421F448FFF707FE01218902F24840
:10245000FFF702FE0121C902EF48FFF7FDFD012150
:102460000903ED48FFF7F8FD01214903EA48FFF7AA
:10247000F3FD01218903E848FFF7EEFD0121C903BF
:10248000E548FFF7E9FDFF2101310920C006FFF70C
:10249000E3FD0121C9020920C006FFF7DDFD01218E
:1024A00009030920C006FFF7D7FD4021DB48FFF7ED
:1024B000D3FD8021D948FFF7CFFD0121C9030920B1
:1024C000C006FFF7C9FD0821D348FFF7C5FD10215D
:1024D000D148FFF7C1FD2021CF48FFF7BDFD4021C6
:1024E000CD48FFF7B9FD8021CB48FFF7B5FDFF21AF
:1024F0000131C948FFF7B0FD01214902C648FFF785
:10250000ABFD0120400301900020029001200590C6
:1025100001A9C348FFF70EFD0120800301900020B0
:1025200002900120059001A9BD48FFF703FD01209D
:10253000C0030190002002900120059001A9B84835
:10254000FFF7F8FC01200190002002900120059087
:1025500001A9B248FFF7EEFC102001900120029083
:102560000020039004900120059001A90920C006D5
:10257000FFF7E0FC20200190012002900020039052
:1025800004900120059001A90920C006FFF7D2FCA4
:10259000402001900120029000200390049001202F
:1025A000059001A90920C006FFF7C4FC8020019016
:1025B00000200290059001A90920C006FFF7BAFC8F
:1025C00001200190002002900120059001A992486D
:1025D000FFF7B0FC02200190012002900020039040
:1025E00004900120059001A98B48FFF7A3FC04206B
:1025F000019001200290002003900490012005909A
:1026000001A98548FFF796FC012080020190012076
:1026100002900020039004900120059001A97E48BB
:10262000FFF788FC0120C0020190012002900020E9
:10263000039004900120059001A97748FFF77AFCE8
:1026400001200003019001200290002003900490DB
:102650000120059001A97048FFF76CFC01204003A0
:102660000190012002900020039004900120059029
:1026700001A96948FFF75EFC012080030190012059
:1026800002900020039004900120059001A9624867
:10269000FFF750FC0120C0030190012002900020B0
:1026A00003900490059001A95B48FFF743FCFF20CD
:1026B000013001900120029000200390049001203D
:1026C000059001A90920C006FFF734FC0120C002D3
:1026D00001900120029000200390049001200590B9
:1026E00001A90920C006FFF725FC01200003019085
:1026F000012002900020039004900120059001A980
:102700000920C006FFF716FC40200190012002902E
:102710000020039004900120059001A93F48FFF795
:1027200009FC802001900120029000200390049079
:102730000120059001A93948FFF7FCFB0120C003E7
:102740000190012002900020039004900120059048
:1027500001A90920C006FFF7EDFB08200190012028
:1027600002900020039004900120059001A92A48BE
:10277000FFF7E0FB10200190012002900020039061
:1027800004900120059001A92348FFF7D3FB2020E6
:1027900001900120029000200390049001200590F8
:1027A00001A91D48FFF7C6FB4020019001200290BF
:1027B0000020039004900120059001A91648FFF71E
:1027C000B9FB80200190012002900020039004902A
:1027D0000120059001A91048FFF7ACFBFF20013054
:1027E00001900120029000200390049001200590A8
:1027F00001A90948FFF79EFB01204002019001203A
:1028000002900020039004900120059001A9024845
:10281000FFF790FB07B000BD00040048001400481B
:102820000008004800B585B014216846FDF7D6FCC5
:10283000FF200130FFF7B4FA0221132000F0A8F9BD
:10284000132000F09BF90848694608800020019099
:1028500006200290002003900448FFF77FFC034805
:10286000FFF762FC05B000BD3F1F000000200040E4
:1028700000B585B014216846FDF7B0FC0120400486
:10288000FFF79CFA0221152000F082F9152000F0D4
:1028900075F90B4968460180002001907D20C00039
:1028A00002900020039000216846017469460548A3
:1028B000FFF754FC0348FFF737FC05B000BD0000EC
:1028C000C05D00000044014000B585B01421684699
:1028D000FDF784FC0220FFF763FA0221102000F0CC
:1028E00057F9102000F04AF90D4869460880002089
:1028F0000190FF202C300290002003900948FFF740
:102900002DFC0848FFF710FC08200649096808223A
:1029100091430143034A116000BF05B000BD0000B0
:10292000BF5D00000004004000B585B0142168467A
:10293000FDF754FC1020FFF733FA0221112000F0BC
:1029400027F9112000F01AF907486946088000208D
:102950000190062002900548FFF700FC0348FFF7AE
:10296000E3FB05B000BD00003F1F00000010004069
:1029700000B58DB01C2106A8FDF730FC1821684673
:10298000FDF72CFC01208003FFF718FA012040041A
:10299000FFF7F8F901204002009002200190032087
:1029A00002900020039004900120059069460920C0
:1029B000C006FFF7BFFA01208002009002200190BC
:1029C00003200290002003900490012005906946A6
:1029D0000920C006FFF7AEFA102202212248FFF7B5
:1029E00047FA002202212048FFF720FA00220221A4
:1029F0001D48FFF76FFA002202211B48FFF77AFA01
:102A0000802202211848FFF745FA002202211648C9
:102A1000FFF780FA002202211348FFF74BFA032147
:102A20001B2000F0B5F81B2000F0A8F84B20400157
:102A3000069000200790089009900C200A90002032
:102A40000B900120C0030C9006A90848FFF7FEFB7D
:102A50000648FFF7EBFB0548FFF7DEFB0348FFF7EF
:102A6000F0FB0DB000BD0000000002400038014046
:102A700000B58DB01C2106A8FDF7B0FB18216846F3
:102A8000FDF7ACFB01204004FFF78AF90120400468
:102A9000FFF778F9042000900220019003200290B3
:102AA0000020039004900120059069460920C0068B
:102AB000FFF740FA082000900220019003200290C6
:102AC0000020039004900120059069460920C0066B
:102AD000FFF730FA102204212548FFF7C9F9002238
:102AE00004212348FFF7A2F9002204212048FFF720
:102AF000F1F9002204211E48FFF7FCF9802204218D
:102B00001B48FFF7C7F9002204211948FFF702FA12
:102B1000002204211648FFF7CDF903211C2000F004
:102B200037F81C2000F02AF84B20C0010690002046
:102B30000790089009900C200A9000200B900C90B0
:102B400006A90C48FFF782FB0A48FFF76FFB09480C
:102B5000FFF762FB0748FFF774FB00BF05480068FA
:102B6000202108430349086000BF0DB000BD0000EC
:102B7000000002400044004070470000C206D20E30
:102B800001219140014A11607047000000E100E01E
:102B900010B5002819DA1A4A03071B0F083B9B08D7
:102BA0009B00D2588307DC0EFF23A3409A438B0778
:102BB0001B0E8407E40EA3401A43114B0407240F95
:102BC000083CA408A4001A5118E00E4A03231B0273
:102BD000D21883089B00D2588307DC0EFF23A34042
:102BE0009A438B071B0E8407E40EA3401A43054B40
:102BF000032424021B198408A4001A5110BD0000EC
:102C00001CED00E000E100E010B5002819DA1A4AD6
:102C100003071B0F083B9B089B00D2588307DC0E61
:102C2000FF23A3409A438B071B0E8407E40EA340A7
:102C30001A43114B0407240F083CA408A4001A519E
:102C400018E00E4A03231B02D21883089B00D258B7
:102C50008307DC0EFF23A3409A438B071B0E8407D8
:102C6000E40EA3401A43054B032424021B198408D5
:102C7000A4001A5110BD00001CED00E000E100E0CE
:102C800001480088704700006800002010B54C48DB
:102C90008078C007C00F002805D049480088401C34
:102CA0004749088004E046480088401E444908809F
:102CB00043488078C007C00F002835D040480078CE
:102CC0008007800F002806D001280ED0022816D0D9
:102CD000032828D11DE0FF2101313A48FFF7B8F958
:102CE00040213848FFF7C0F91DE00121490235486D
:102CF000FFF7AEF980213348FFF7B6F913E0402122
:102D00003048FFF7A5F9FF2101312E48FFF7ACF954
:102D100009E080212B48FFF79BF90121490229484E
:102D2000FFF7A2F900BF35E0254800788007800F43
:102D3000002806D001280ED0022816D0032828D15A
:102D40001DE080211F48FFF783F9012149021D483A
:102D5000FFF78AF91DE0FF2101311A48FFF778F9E2
:102D600040211848FFF780F913E001214902154876
:102D7000FFF76EF980211348FFF776F909E040214B
:102D80001048FFF765F9FF2101310E48FFF76CF994
:102D900000BF00BF0A4800880949898888420DD1D0
:102DA0000748807802218843054988700022022163
:102DB0000548006801F000FE012010BD0020FCE77E
:102DC0006800002000040048A800002010B5012180
:102DD00049020848FFF73CF9FF2101310548FFF798
:102DE00037F980210348FFF733F940210148FFF705
:102DF0002FF910BD0004004810B504462248807821
:102E00008007C00F002813D11F48018820462830B2
:102E100081420DD11C4800881B4988800846807873
:102E200002218843184988701848FFF782F910BDBD
:102E3000154880784008400013490988A14201DA0A
:102E4000012100E00021C907C90F08430E4988701D
:102E500008468078C007C00F002803D020462830DD
:102E6000888001E0084884800748807802218843F0
:102E7000801C054988700548FFF76AF90348FFF789
:102E800062F900BFD3E70000680000200010004096
:102E9000014600BF05484068F0221040104000097C
:102EA000034A125C0846D040704700000010024000
:102EB000006C0008014600BF054840680722120266
:102EC0001040000A034A125C0846D04070470000D8
:102ED00000100240106C000810B5002400BF0C4820
:102EE00040680C210840002804D0042804D0082899
:102EF00008D103E0074C07E0064C05E000F00CF8B1
:102F0000044601E0034C00BF00BF204610BD000096
:102F10000010024000127A0070B50024002500BFA6
:102F2000134840680121090408400546002D03D0DC
:102F30000846281A04D101E00E4C03E00E4C01E0D3
:102F40000C4C00BF00BF00BF0948C06A0007000F5B
:102F5000461C31462046FDF701F9054949680F2214
:102F6000920411401140890C891C484370BD000037
:102F70000010024000093D0000127A007047000076
:102F800092B020210AA8FDF729F90CA809900FA8F2
:102F900008900DAE0EAF0BAC10A852490860524815
:102FA000006852490860504840685149086097E0FD
:102FB0000022D2434F48016805A801F0ABFC0598F8
:102FC00010287DD1069803281CD004DC002807D0E7
:102FD000022810D110E004281AD0FF287ED11BE06F
:102FE00001F083FC09990860002108980160002025
:102FF00030603860206071E001F077FC30600220C2
:1030000020606BE001F071FC30600320206065E01F
:1030100001F06BFC386061E001F067FC0899086022
:103020002068002803D13868002800D156E03048D5
:1030300000682E490968884207D22C480068400978
:103040002B4909684909884207D0284800680028A8
:1030500004D127480068BF2800D13FE02448007809
:10306000C006C00E002812D1FDF704FF20480068FA
:10307000400980022049401803900120049000205C
:103080000290019001A902A8FDF736FE01E0FDF7CC
:10309000F1FE002512E0A8000AA90858049014487F
:1030A0000068400114494018A9004018039000230B
:1030B00001460220049AFDF77FFE6D1C082D00E0FA
:1030C0000DE0E8DBFDF76EFE09480068401C08498A
:1030D0000860C02801D10020086000BF00BF00BF09
:1030E00066E700008C00002000F800086000002067
:1030F00064000020AC00002000E000080EB57F480E
:103100000078002806D0002256217D48006801F092
:1031100053FC10E00022D24379480168684601F070
:10312000F9FB01217748006801F020FD0121764874
:10313000006801F01BFD00BF0022D2437048016807
:10314000684601F0E7FB009810287AD16F49019892
:103150000870012109036E48FEF78AFF01983428A0
:1031600004D045281CD0562819D16BE004216848AA
:10317000FEF77EFF322001F0A6FB04216448FEF733
:103180006BFF644801F09FFB02216148FEF770FF6E
:10319000322001F098FB02215D48FEF75DFFA2E0BE
:1031A00004215B48FEF764FF322001F08CFB042110
:1031B0005748FEF751FF7D20800101F084FB02217A
:1031C0005348FEF755FF322001F07DFB02215048A5
:1031D000FEF742FF0121C9024D48FEF749FF3220A8
:1031E00001F071FB0121C9024948FEF735FF49484A
:1031F00001F069FB012189024548FEF739FF3220C1
:1032000001F061FB012189024148FEF725FF0421FD
:103210003F48FEF72DFF322001F055FB04213C48CA
:10322000FEF71AFF3B4801F04EFB02213848FEF73B
:103230001FFF322001F047FB02213548FEF70CFF4B
:1032400051E059E004213248FEF712FF322001F02C
:103250003AFB04212E48FEF7FFFE7D20800101F09D
:1032600032FB02212A48FEF703FF322001F02BFB3C
:1032700002212748FEF7F0FE0121C9022448FEF78B
:10328000F7FE322001F01FFB0121C9022048FEF7A2
:10329000E3FE214801F017FB012189021C48FEF7DB
:1032A000E7FE322001F00FFB012189021848FEF7EA
:1032B000D3FE04211648FEF7DBFE322001F003FBAB
:1032C00004211348FEF7C8FE124801F0FCFA02215F
:1032D0000F48FEF7CDFE322001F0F5FA02210C482E
:1032E000FEF7BAFE00BF00BF012109030848FEF740
:1032F000B3FE0020054908701EE70000880000208A
:10330000A0000020C0000020B000002089000020A4
:10331000000400488813000010270000FE480068E1
:10332000FE490870FC484068FD490870FA4880680A
:10333000FC490870F848C068FB490870F648006905
:10334000FA490870F4484069012800D100E00020E3
:10335000F7490870F0488069012800D100E000209A
:10336000F4490870EC48C569F3490D702804000E53
:103370004870E948006A012800D100E00020EF49C8
:10338000087008460078002803D04021EC48FEF77A
:1033900069FE0021C943EB48006801F07BFBEA4865
:1033A0000421EA4A4B1EEA4CE35C1B189A6000BFFA
:1033B000E84A4B1EE35C1B18DA6000BF00BF002127
:1033C000C943E048006801F065FBE3484078E24902
:1033D00089784840E049C9784840DF490979484040
:1033E000DD4949794840DC4989794840DA49C97959
:1033F00048400646D848007AB0427CD1D64840784A
:10340000CD490978884277D1D3488078CA4949782C
:103410008842F8D1D048C07800286ED1CE480079D3
:10342000041120461E30BD490978884207D0BB49A7
:10343000087008460078282801DD28200870C64852
:1034400000790407240FB6480078844201D0B448BC
:103450000470C14840790411B2480078844212D007
:10346000B0480470BD48007802280CD1B0480078FC
:10347000002808D1AB49097825225143AF22D20058
:103480008818FFF7B9FCB44840790407240FA64810
:10349000007884421CD0A4480470B0480078022808
:1034A00016D1AF490978002907D09F490978312200
:1034B000D2435143AB4A511A07E09B490978312264
:1034C000D2435143AF229200891888B2FDF726F902
:1034D000A1488079041195480078844219D0934816
:1034E0000470002C0DDD0121022001F095F80A2165
:1034F0009D48006802E0EEE1ECE190E101F036FB6E
:1035000007E00021022001F087F89748006801F0E9
:103510005FFB9148807908210840002801DD0120E7
:1035200000E00020044682480078844218D0002C35
:1035300001D0012000E000207D4908700846007895
:10354000002808D085480078022804D181038748E4
:10355000FEF788FD04E00121C9038448FEF776FDEB
:103560007D48807904210840002801DD012000E029
:10357000002004466F48007884420FD0002C01D010
:10358000012000E000206B49087074480078022890
:1035900004D177497748006801F0E8FA6E488079ED
:1035A00002210840002801DD012000E0002004463F
:1035B00062480078844213D0002C01D0012000E042
:1035C00000205E49087008460078002804D0402199
:1035D0005B48FEF747FD03E040215948FEF736FD02
:1035E0005D48C079002871D05B48C07945281CD05F
:1035F00006DC322839D033284DD0392867D160E035
:10360000562821D0FF28F9D100215B48006802F03C
:10361000DDFD00215948006802F0D8FD0022FF219D
:103620005548006801F0C8F9CBE0554800780028FB
:1036300003D053480078342805D100224521514851
:10364000006801F0B9F9BCE04D480078382800D195
:10365000B7E000214B48006802F0B8FD0022562177
:103660004848006801F0A8F9ABE047480078002816
:1036700000D1A6E001203A490870821E32213F485D
:10368000006801F099F90022D24303213F48006805
:1036900001F092F995E03C480078002800D190E0D4
:1036A00000202F490870421E32213448006801F082
:1036B00083F90022D24302213448006801F07CF9EA
:1036C0007FE031480078002802D17AE07AE077E0A4
:1036D00022480078002806D1421E7621274800683B
:1036E00001F06AF96BE01D480078012807D01B48FB
:1036F0000078022803D019480078032855D100210A
:103700001D48006802F062FD0022FF211A4800688F
:1037100001F052F900223BE000FC000856000020B6
:103720005700002058000020590000205A000020B7
:103730005B0000205C000020340000205D000020C1
:1037400000140048C400002000000240284400404B
:10375000046B0008360000209401002015000020B2
:1037600000000020DC050000BC0000200004004830
:10377000B80B0000B8000020A8000020A400002022
:1037800089000020A000002074000020AC00002070
:1037900076216F48006801F00FF90022D24304211E
:1037A0006C48006801F008F909E06B4800780428CB
:1037B00005D10022FF216948006801F0FDF800E012
:1037C00000BF00BF00206649087066480078487056
:1037D00064484078887060480078C8706248007813
:1037E0000871002048718871C8710846407889784E
:1037F00048405B49C9784840594909794840584987
:1038000008720020487204215848FEF7F3FA0A2291
:1038100004215648FEF71AFBFCF7A4FE6CE054485E
:10382000C078012868D1534800680068002822D178
:103830004F4800794E494979090240184C49897925
:10384000090440184A49C9790906401849490968D4
:103850000968401847490968086001F046F80446BD
:103860007D21C900FCF77AFC424909680968081AF9
:103870004049096808604048006840490968884232
:1038800016D03D48006840013D4A8118002003E001
:103890000A5C334B1A54401C2028F9DB3648006878
:1038A000401C354A1060C02801D10020106007E09C
:1038B000002003E000212A4A1154401C2028F9DB93
:1038C00004212A48FEF796FA202204212748FEF711
:1038D000BDFA11E010E00020214908705620487020
:1038E00088700020C87004212048FEF783FA042263
:1038F00011461E48FEF7AAFA04211C48FEF77AFA80
:103900000F2000031949486000BF40201D4908628C
:1039100000BF00BF084600684021084319490860FD
:1039200000BF124804214A1E174B9A5C825801239B
:103930001A434B1E144CE35CC25000BF00BF114839
:103940008068802108430F49886000BF37E5000088
:10395000A4000020AC00002015000020A8000020DA
:1039600036000020340000208900002000000240C2
:10397000940100208C0000206000002064000020E2
:1039800000E0000800440040046B00088AB00024F6
:103990000221FE48FEF720FAFC480221FC4A4B1E99
:1039A000FC4DEB5C1B189A6000BFFB4A4B1EEB5CA6
:1039B0001B18DA6000BFFCF7D5FD02F001F8002209
:1039C000FF21F648006800F0F7FFFCF7CBFD00BFD1
:1039D0000022D243F248016804A800F09BFF04983B
:1039E000102876D10598322802D0762872D14DE180
:1039F0000120EC49087001020920C006FEF72EFBE9
:103A0000E9480078002805D0FF212D31E7480068FB
:103A100001F0ACF800F069FFE5490860084600686D
:103A20007D2109014018E349086015E0E14800687C
:103A3000DF490968421AE048016801A800F06AFFFE
:103A400001A807C807AB07C300F04FFFD8490860BB
:103A50000898FF2800D1D5E0D5480068D549096805
:103A60008842E3D3D34800687D210901884204D20B
:103A7000CF480068C9438842D8D801F0D5F8CF496B
:103A8000097825225143AF22D2008818FFF7B4F9F4
:103A900000BF0022D243C848016801A800F03AFFE5
:103AA00001A807C807AB07C30898FF2800D1A9E001
:103AB00008980228EDD100F087FCC1490978002957
:103AC00009D0C04909783122D2435143BE4A511A24
:103AD00009E0A3E1A1E1BB4909783122D243514376
:103AE000AF229200891888B2FCF718FE00BF0022AE
:103AF000D243B148016801A800F00CFF01A807C833
:103B000007AB07C30898FF2800D17BE0089803287B
:103B1000EDD10220A3490870AC48007800280FD0EE
:103B20000121C903AA48FEF799FAA4490978252278
:103B30005143AF22D200891808463230FFF75CF9B2
:103B400000F0D3FE9A49086008460068A149401871
:103B50009849086044E09748006895490968421A06
:103B60009548016801A800F0D5FE01A807C807AB79
:103B700007C30798402800D142E00898022802D0E5
:103B8000FF2827D13EE091480078002821D0FFF798
:103B900077F88A49097825225143AF22D200891843
:103BA00088420BDA8549097825225143AF22D20099
:103BB000891808463230FFF71FF90AE07F49097873
:103BC00025225143AF22D2008918323988B2FFF73B
:103BD00013F900E000BF00BF00F087FE74490860E1
:103BE00073480068734909688842B4D37148006813
:103BF0007849884204D26E480068C9438842AAD8EE
:103C000000BF00BF0121C9037148FEF71BFA032062
:103C1000644908700120704908707048FCF77EFD07
:103C200000BF0022D2436448016801A800F072FE80
:103C300001A807C807AB07C308980328F1D1FCF710
:103C400057FD5A48006800F0C3FF0020FFF7D4F882
:103C500000BF0022D2435848016801A800F05AFE74
:103C600001A807C807AB07C308980228F1D1FFF7DE
:103C7000ADF85B4800F027FEFF2101310920C006A6
:103C8000FEF7E0F9002047490870C6E0012109036A
:103C90000920C006FEF7E2F904204249087000F04E
:103CA00024FE43490860084600684E4940184149CF
:103CB000086000BF4C48C068012108434A49C860F9
:103CC00000BF00BF0846006801210843464908605C
:103CD00000BF47E03748006835490968421A36484E
:103CE000016801A800F016FE01A807C807AB07C3CA
:103CF0000798402800D145E000F0F7FD2C49086006
:103D00000898FF2800D13DE0089866282AD1002CA9
:103D100012D036480078002804D0012149032C48ED
:103D2000FEF790F9314800787D2212015043014698
:103D30002D48FEF76FFA13E02C480078042804D0D1
:103D4000012149032248FEF789F928480078042216
:103D5000101A7D221201504301462348FEF75AFAF9
:103D60000120444012480068124909688842B1D3D2
:103D7000104800681B49884204D20D480068C943B6
:103D80008842A7D800BF0121090331E000000240AA
:103D900028380140DC6A00080B000020A000002049
:103DA000A4000020150000205C000020B8000020C6
:103DB0001C00002018000020A8000020580000204F
:103DC0000000002059000020DC0500005B000020FE
:103DD0000004004860EA0000130000204C040000CA
:103DE000B80B0000905F0100004401405700002024
:103DF0000920C006FEF726F9012149030848FEF70D
:103E00002DF900BF074800684008400005490860D8
:103E100000BF00200449087000BF00BFD8E50000C3
:103E200000040048004401401500002010B5FCF7D4
:103E30005FF9044602F040FC002803D0012000078F
:103E4000024948602046FCF757F910BD00ED00E03C
:103E500000B595B0302109A8FCF7C0F90020059005
:103E60000690079008900190029003900490022021
:103E7000099001200C9010200D900220119000213B
:103E80001291C10413910021149109A8FDF7AEFB12
:103E9000002801D0FCF7D2FA0720059002200690F6
:103EA000002007900890002105A8FDF73FFA0028A0
:103EB00001D0FCF7C3FA012001900020039001A873
:103EC000FDF78CF9002801D0FCF7B8FA15B000BD59
:103ED00019480068012108431749086008464068EE
:103EE00016490840144948600846006814490840CB
:103EF00011490860084600680121890488430E4979
:103F00000860084640683F21090488430A49486020
:103F10000846C06A00090001C8620846006BFF211C
:103F200014318843044908630846406B4008400048
:103F30004863002088607047001002400CB8FF08FA
:103F4000FFFFF6FE10B50848FEF75CF9002809D01F
:103F50000548FEF7E5F8FCF72BFB002802D00248E5
:103F6000FEF7ECF810BD00000020004010B50C4832
:103F7000FEF748F9002811D00948FEF7D1F80022D1
:103F800066210848006800F017FD00BF044800687B
:103F9000012108430249086000BF00BF10BD0000B6
:103FA00000440140A800002010B50248FDF7F3FDD1
:103FB00010BD0000A001002010B50848FEF722F94E
:103FC000002809D00548FEF7ABF880200449886234
:103FD00000BF00200349087010BD0000000400402D
:103FE000001400488600002010B50848FEF70AF9C2
:103FF000002809D00548FEF793F8FEF747FE002891
:1040000002D00248FEF79AF810BD000000100040F0
:1040100010B500220268204B984202D01F4B9842F4
:1040200005D170241346A3431A464B681A431A4B12
:1040300098420ED0194B98420BD0194B984208D099
:10404000184B984205D0184B984202D0174B984213
:1040500006D1032424021346A3431A46CB681A430D
:1040600080241346A3434C6923431A4602608B689D
:10407000C3620B688362084B984208D0094B984290
:1040800005D0094B984202D0084B984201D10B69E8
:1040900003630123436110BD002C01400004004074
:1040A0000020004000400140004401400048014021
:1040B00010B51A48FEF714F9002806D01748FEF785
:1040C000BBF802211648FDF7A3FE00BF1348C069E4
:1040D00020210840400900281ED000F006FC1149AC
:1040E0000968401A7D21C900884202D900200E4982
:1040F000087000BF0948808CC0B20B490A78097863
:10410000491C094B19700949885418460078082839
:1041100002D101200649087010BD0000003801409E
:1041200000000240CC000020D0000020020000204F
:104130000100002010B51F48C06920210840202838
:104140002AD100BF1B48808CC0B21B491B4A127881
:1041500088541A480078002804D1084600780028BE
:1041600000D010BD1548007809280FD11248407AB8
:10417000002803D0002011490870F2E700200F4901
:1041800008700F48006800F05FFCEAE70B48007811
:10419000401C0A490870E4E70648FEF7A1F8002829
:1041A00006D00448FEF748F804210648FDF730FE23
:1041B00000BFD6E70044004094010020C800002062
:1041C000C40000200000024030B47446641E25780C
:1041D000641CAB4204D3635D5B00E31830BC18473A
:1041E0001D46F8E702E008C8121F08C1002AFAD1EC
:1041F00070477047002001E001C1121F002AFBD167
:104200007047000010B50446012149036A48FDF7D4
:1042100010FF6A490978C907C90F884206D1674863
:104220000078FE218843654908701EE063480078E5
:10423000FE218843614909784908491C4900FE224A
:10424000114008435D4908700846007840080F286F
:104250000BDD0846007840084000097801225140F3
:10426000114008435549087000BF01218903524895
:10427000FDF7DFFE51494978C907C90F884216D1B9
:104280004E484078FE2188434C49487008464078A3
:10429000C007C00F00282CD04948008849498842EF
:1042A00027DA47480088401C4549088021E04348F8
:1042B0004078FE218843414949784908491C490012
:1042C000FE22114008433D494870084640784008A6
:1042D0000F280EDD0846407840084000497801224A
:1042E0005140114008433549487000203449088046
:1042F00000BF012149033048FDF79BFE2F49897813
:10430000C907C90F884206D12C488078FE2188430E
:104310002A4988701EE029488078FE218843274971
:1043200089784908491C4900FE2211400843234965
:1043300088700846807840080F280BDD0846807892
:1043400040084000897801225140114008431B4930
:10435000887000BF012149031748FDF76AFE17491D
:104360000978C907C90F884206D11448C078FE21D0
:1043700088431249C8701EE01048C078FE21884367
:104380000E49C9784908491C4900FE2211400843DA
:104390000A49C8700846C07840080F280BDD084657
:1043A000C07840084000C9780122514011400843BC
:1043B0000249C87000BF10BD00080048220000205C
:1043C000200000201027000010B51B48007880074F
:1043D000800F002806D001280DD0022814D0032811
:1043E00028D11CE020211548FDF73EFE102113487E
:1043F000FDF73AFE1EE010211048FDF735FE0821BA
:104400000E48FDF731FE15E008210C48FDF72CFEA3
:104410000121C9030920C006FDF726FE0AE001219B
:10442000C9030920C006FDF71FFE20210348FDF740
:104430001BFE00BF00BF10BD6E000020000400483E
:1044400070B504463E48007800282CD03D480078DE
:1044500000280BD03C480078401CC0B23A49087094
:10446000042803DD3948006800F0B2FB3848807842
:10447000401C3749C97840183549097940183449F2
:10448000497940183249897940183149C9798842B7
:1044900003D100202F49087005E02E480078401C09
:1044A0002C49087000BF27480078002805D000205C
:1044B000294988700120C87107E0284800782649FA
:1044C000887026480078401CC87102212448FDF7F6
:1044D00083FC2348022108224B1E224DEB5C1B1853
:1044E0005B681B0C1B0413434D1E1E4E755D2D187F
:1044F0006B6000BFF0201A49486000BF40201A4995
:10450000086200BF00BF0846006840210843164902
:10451000086000BF124802214A1E33469A5C825846
:1045200001231A434B1E3546EB5CC25000BF00BF4F
:104530000D488068802108430B49886000BF70BD2A
:10454000010000201300002014000020B80000200B
:10455000020000200A0000200B000020560000206E
:1045600000000240DC6A00080038014000BFEFF3A1
:104570000580002801D0012070470020FCE70000E2
:1045800010B50446214800788007C00F00280CD1E0
:104590001E4840788007C00F002806D11B4880784D
:1045A0008007C00F002800D110BDFCF775FD184929
:1045B0000968401A17490968884224D913480078C5
:1045C0008007C00F002804D010210920C006FDF785
:1045D00051FD0E4840788007C00F002804D02021EC
:1045E0000920C006FDF746FD084880788007C00F07
:1045F000002804D040210920C006FDF73BFDFCF750
:104600004BFD0349086000BFCEE7000028000020F2
:10461000300000202C00002070B504460D46022C0E
:1046200000DD70BD2548005DC007C00FA84200D165
:10463000F7E72248005D40084000E907C90F08433A
:104640001E4908550846005D8007C00F002800D0AD
:10465000E7E7002C04D0012C10D0022C2AD11BE05B
:10466000002D05D010210920C006FDF7F9FC04E05B
:1046700010210920C006FDF7E7FC1BE0002D05D046
:1046800020210920C006FDF7EBFC04E020210920D1
:10469000C006FDF7D9FC0DE0002D05D04021092012
:1046A000C006FDF7DDFC04E040210920C006FDF74F
:1046B000CBFC00BF00BF00BFB3E700002800002014
:1046C000A2B0FCF7F7FCFFF7C3FBFDF791FEFDF787
:1046D0007BFEFEF7CDF9FEF74BF9FDF73BFEFEF74B
:1046E00023F9FEF79FF8FEF7C3F8FEF7EDF8012176
:1046F00089035F48FDF7BCFC012149035C48FDF7D5
:10470000B7FC012040035B4909690140814201D1A6
:10471000012100E00021002901D1012000E000205A
:104720005549087000202190012121A800F074F95A
:10473000524908605248006820900022012120A8B8
:1047400000F000FA4F4908604D48001D00681F90B6
:10475000002201211FA800F0F5F94B4908604848E4
:10476000083000681E90002201211EA800F0EAF91E
:104770004649086042480C3000681D900022012123
:104780001DA800F0DFF9424908603D48103000687C
:104790001C90002201211CA800F0D4F93D490860BA
:1047A0003749143103C91B911A9000211AA800F04F
:1047B000A7F83949086032491C3103C9199118908A
:1047C000002118A800F09CF8344908602C492431D5
:1047D00003C917911690002116A800F091F83049EE
:1047E000086027492C3103C915911490002114A8A1
:1047F00000F086F82B4908601422214934310FA8B3
:10480000FBF7D3FC00210FA800F07CF926490860D3
:1048100014221B4948310AA8FBF7C7FC00210AA84B
:1048200000F070F921490860142215495C3105A88F
:10483000FBF7BBFC002105A800F064F91C490860E7
:1048400014220F4970316846FBF7AFFC002168461F
:1048500000F058F91749086007480078002803D08D
:104860001248006800F066F900F03AF800BFFEE771
:10487000000400480008004888000020C400002010
:10488000546B0008B0000020B4000020B8000020E5
:10489000BC000020C0000020A0000020A4000020D8
:1048A000A8000020AC000020900000209400002010
:1048B000980000209C00002001460020842901D09F
:1048C000CA1C1018704770B504462546002D01D04B
:1048D000294600E00121084601F0E8F9002070BDFA
:1048E00010B501F091FA002010BD10B5FFF73EFEA3
:1048F000002802D001F0DAFE10BD01F0D1FEFBE786
:1049000070B504460D4600226168206801F070FB16
:1049100070BD0000F0B585B007460D4614460295FF
:1049200000200190002D07D180200090684607C824
:104930003B4607C305B0F0BD002003900026601C75
:10494000002801D1461E05E0002C03D02646002E8B
:1049500000D10126FFF70AFE002813D003AA01A9FF
:10496000284601F0D4FD012802D11020009001E07A
:10497000002000900398002815D0012000070D4961
:10498000486010E00023324601A9284601F058FB98
:10499000012802D11020009005E0002E01D1002056
:1049A00000E040200090684607C83B4607C300BFB0
:1049B000C0E7000000ED00E077B581B00646144680
:1049C000002000902546002D00D10125FFF7CEFDE7
:1049D000002812D000236A4602A9304601F0E4FC08
:1049E000012802D0FF2004B070BD009800280ED02E
:1049F000012000070749486009E000232A4602A970
:104A0000304601F024FC012801D0FF20EBE7002014
:104A1000E9E7000000ED00E070B506460D46012D07
:104A20000FD103220021012001F0E2FA0446002CFC
:104A300005D000231A461946204601F008FC2046FE
:104A400070BD0020FCE7000038B5044600250020BA
:104A50000090FFF78BFD00280FD06946204601F03B
:104A600001FD012801D0FF2038BD009800280DD09D
:104A7000012000070649486008E000231A4619464D
:104A8000204601F0E4FB012800D0FF252846EBE793
:104A900000ED00E0F8B506460C4600200090002E20
:104AA00001D18020F8BD0025601C002801D1451EE1
:104AB00005E0002C03D02546002D00D10125FFF78D
:104AC00055FD002810D06A460021304601F01FFD38
:104AD000012801D0FF20E5E7009800280ED0012032
:104AE00000070749486009E000232A461946304676
:104AF00001F0A6FA012801D0FF20D3E70020D1E77A
:104B000000ED00E0FEB504460D460820205EFFF7EC
:104B1000D3FE064602A800960190238A9AB22B463D
:104B20002168606801F07CFD012801D00020FEBDF5
:104B30000298FCE710B50446204601F0A1F90020D8
:104B400010BD0000F8B504460D46164620680090DA
:104B5000012D01D1012000E0002002463346012151
:104B600001A001F047FFF8BD00000000FEB50646B9
:104B70000C460027002001902546002D00D101257C
:104B8000FFF7F4FC002813D0002001AB2A460921CE
:104B90000090304601F068FF012801D0FF2712E0A5
:104BA000019800280FD001200007084948600AE05A
:104BB000002003462A4604210090304601F054FFAD
:104BC000012800D0FF273846FEBD000000ED00E0C0
:104BD0007CB50446002500200190FFF7C7FC0028A3
:104BE00013D0002001AB024608210090204601F0BE
:104BF0003BFF012801D0FF207CBD019800280FD089
:104C000001200007074948600AE0002003460246E9
:104C100003210090204601F027FF012800D0FF2546
:104C20002846E9E700ED00E010B51B480078800752
:104C3000800F002806D001280ED0022815D00328A6
:104C400028D11CE040211548FDF70EFA0121490248
:104C50001248FDF709FA1DE040211048FDF704FA5B
:104C600080210E48FDF700FA14E080210B48FDF783
:104C7000FBF9FF2101310948FDF7F6F90AE0FF21B0
:104C800001310648FDF7F0F9012149020348FDF71B
:104C9000EBF900BF00BF10BD680000200004004811
:104CA000F8B505460E461748076817480068001D06
:104CB00000F0F4FE681C002808D1002E06D012482F
:104CC0000168091D114800F028FF1AE07C190E4800
:104CD00000684460BC4207D20B480168091D0C48BB
:104CE000006800F0FFFE0CE007480168091D094854
:104CF000006800F0F7FE08480068844201D20648C8
:104D00000460F8BDF0000020DC0000201C0300203F
:104D1000E4000020E00000200C01002010B5044653
:104D200000F008FF20480068401C1F4908601F4829
:104D30000068002808D11D48046008460068012862
:104D40000ED100F0E9F90BE019480068002807D1FE
:104D500016480068C06AE16A884201D813480460B6
:104D600014480068401C134908601349E06A096848
:104D7000884202D91049E06A08601422E16A51436E
:104D80000E4A8818211D00F0C8FE00F0E1FE084818
:104D90000068002807D005480068C06AE16A8842B8
:104DA00001D200F03BFF10BDEC000020DC00002031
:104DB000F800002008010020F4000020400200203C
:104DC00010B500F0B7FE1148006800281BD110484C
:104DD00000F078FE0F4800F075FE0D480E4908609F
:104DE0000C480E49086000220C210A2001F000F94D
:104DF0000649086008460068002804D008A1034856
:104E0000006800F017FF00F0A3FE10BD2001002095
:104E10003003002044030020180100201C01002062
:104E2000546D72510000000070B525E001F07CF86F
:104E300014480068002801D1012000E00020054648
:104E400001F060FD002D17D100F074FE0D48C06820
:104E5000C468201D00F022FE0B480068401E0A496D
:104E600008600A480068401E0849086000F070FEAB
:104E7000204600F063F800BF044800680028D5D140
:104E800070BD000008030020EC000020E8000020B6
:104E900070B504460D46206C00280ED0216CE068E9
:104EA0004018E0606168E068884201D32068E060F3
:104EB0002846226CE168FBF778F970BDF8B5044626
:104EC0000F46154600200090A66B206C002809D1E3
:104ED000206800282ED1606801F08CFC0090002032
:104EE000606027E0002D0FD13946226CA068FBF7E7
:104EF0005CF9216CA0684018A0606168A0688842D5
:104F000018D32068A06015E03946226CE068FBF7F2
:104F10004CF9216CE068401AE0602168E068884242
:104F200003D2216C6068401AE060022D02D1002E8D
:104F300000D0761E701CA0630098F8BD10B5044622
:104F4000206B00F019FE204600F016FE10BD000098
:104F50000146094A12681268002A01D1012200E0C4
:104F600000220A600A68002A04D1034A1268D26843
:104F7000106800E0002070471801002030B57D2344
:104F80005B0117484407640F002C05D0C01DC00802
:104F9000C000134C041B1B1B0246124C2260002451
:104FA000104D6C60D0180838C008C0000E4C20604E
:104FB00000240D4D2D686C600B4D2D682C60114642
:104FC000441A4C60084C24680C60084D4C682C60F6
:104FD000074D4C682C600124E407064D2C6030BD61
:104FE000580300202C010020340100203C01002047
:104FF000380100204001002000BFFFF715FF0348E3
:1050000000680128F9D900F009FEF6E74002002007
:10501000F8B506460D461746069C002D01D12460C2
:1050200000E02760E66325640121204601F0CEF808
:10503000F8BDFFB581B00F460A9E0C9C216B03980A
:10504000401E8000081800900098C008C000009022
:1050500000984007400F002801D1012000E0002007
:10506000002802D172B600BFFEE7002508E0795D96
:10507000204634304155785D002800D102E06D1C97
:10508000102DF4D300BF002143200155072E00D37B
:105090000626E66266640020A064201D00F01FFD65
:1050A0002046183000F01BFD24610720801BA06102
:1050B00064620020E064002150200155049A0199A7
:1050C000009800F029FB20600B98002801D00B9875
:1050D000046005B0F0BDFFB581B006460D46174629
:1050E0000B9C002D01D0012000E00020002802D1FF
:1050F00072B600BFFEE7002C0BD0FFF761FE266002
:10510000A561E761049820620A986062201D00F0A2
:10511000E6FC05B0F0BD000010B5002406E0142147
:1051200061430E4A881800F0CDFC641C072CF6D3AE
:105130000B4800F0C7FC0B4800F0C4FC0A4800F024
:10514000C1FC0A4800F0BEFC094800F0BBFC044862
:105150000849086003480849086010BD4002002063
:10516000CC020020E0020020F4020020080300200E
:105170001C030020E0000020E400002010B50146E0
:10518000164800E0006803688B42FBD30246436880
:105190009B188B4204D143684C681B19436001463D
:1051A0000A464B689B180468A34211D10C4C036853
:1051B0002468A34208D04B68046864681B194B60DC
:1051C00003681B680B6005E0054B1B680B6001E082
:1051D00003680B60884200D0016010BD2C010020E4
:1051E00034010020F8B504460D4616461F4600203F
:1051F000009065602461B5420CD8F01BA16988421B
:1052000002D30120009011E0211D0948006800F040
:1052100069FC0BE0BE4204D2BD4202D301200090E3
:1052200004E0211D0348006800F05CFC0098F8BD14
:105230001C0100201801002070B5054600F07AFC22
:10524000A86B002801D1012400E0002400F080FCBC
:10525000204670BD70B5054600F06CFCA86BE96B8C
:10526000884201D1012400E0002400F071FC2046B6
:1052700070BD0000F8B505460F4613480068C068C9
:10528000C468201D00F00AFCE069012817D1A0695C
:1052900041192B463A462046FFF7A4FF00280ED0BE
:1052A000002003462A4601460090204601F0DCFB20
:1052B0000646002E02D172B600BFFEE700BF2046B0
:1052C000616A8847F8BD00001801002070B586B0FB
:1052D00060E0039800285DDB059C6069002801D12F
:1052E000012000E00020002802D1201D00F0D6FBA4
:1052F00002A800F0AFF8054603980300FEF764FF2C
:105300000A0A06082C2E4407092D2F4800BF00BFAB
:1053100000BF00BF0498A269811803462A462046B0
:10532000FFF760FF002816D02046616A8847E069D1
:10533000012810D1002000900498A1694218002390
:105340001946204601F090FB0646002E02D172B6A7
:1053500000BFFEE700BF1CE000BF1AE000BF0498DA
:10536000A061A069002801D0012000E000200028F1
:1053700002D172B600BFFEE7A06941192B462A464A
:105380002046FFF72FFF04E0204600F0F5FB00E089
:1053900000BF00BF00231A4603A90448006800F0BC
:1053A0004FFE002895D106B070BD000020010020FE
:1053B000F8B505460C4600F0B7FD684600F04AF81F
:1053C00006460098002822D1002C08D1B54206D804
:1053D00001F098FA31462846FFF74CFF19E0002CFF
:1053E00008D00C4800680068002801D1012000E0C6
:1053F00000200446A91B22460748006800F030FC44
:1054000001F080FA002804D100F008FC01E001F06E
:1054100079FAF8BD1C010020200100200B49096821
:105420000968002901D1012100E00021002904D0F0
:105430000021C943064A116006E004490968C968A9
:10544000C868034A4168116070470000E00000200E
:105450000C01002070B5044601F022F9054607480A
:105460000068854204D200F00BF80120206001E0C2
:105470000020206001480560284670BD28010020FA
:10548000FEB52BE020480068C06805681E4800682B
:10549000C068C468201D00F001FB2046616A88478F
:1054A000E06901281AD1A0694619AE4207D96660A1
:1054B0002461211D1448006800F014FB0EE0002058
:1054C00003462A4601460090204601F0CDFA0746E1
:1054D000002F02D172B600BFFEE700BF0A48006885
:1054E0000068002801D1012000E000200028C9D078
:1054F00005480068019005480068034908600349B1
:1055000001980860FEBD0000180100201C01002069
:1055100007480068401C002801D1012000E000205D
:10552000002802D172B600BFFEE772B600BFFEE7E8
:105530004401002008B500BF6846FFF709FD044696
:1055400020460099FFF734FFFFF7C0FEF4E770B57F
:10555000044600F0EFFA4520055713E0606A002882
:1055600001D1012000E00020002808D1204624308D
:1055700001F084F9002803D000F0BAFB00E003E05A
:10558000681E45B2002DE9DC00BF0021C94345205B
:10559000015500F0DDFA00F0CDFA4420055713E084
:1055A0002069002801D1012000E0002000280AD154
:1055B0002046103001F062F9002801D000F098FB7D
:1055C000681E45B200E001E0002DE9DC00BF0021CB
:1055D000C9434420015500F0BBFA70BDF8B504463C
:1055E0000020009000F0A0FC3E480068002801D197
:1055F000FFF7C4FC3C4800682040002861D1002C23
:1056000015D008346007400F002810D06007400F05
:105610000821081A04196007400F002801D1012051
:1056200000E00020002802D172B600BFFEE7002C87
:1056300047D02E480068844243D82D4E3046056836
:1056400001E02E462D686868A04202D22868002832
:10565000F7D124480068854233D030680830009084
:10566000286830606868001B102813D92F19780744
:10567000400F002801D1012000E00020002802D1C5
:1056800072B600BFFEE76868001B78606C60384641
:10569000FFF774FD154968680968081A134908601E
:1056A0000846006813490968884203D20F48006819
:1056B000104908600C496868096808436860002060
:1056C000286001F01FF900984007400F002801D121
:1056D000012000E00020002802D172B600BFFEE7E2
:1056E0000098F8BD3401002040010020380100205E
:1056F0002C0100203C01002006480068002806D04C
:105700000449096808464830896C491C0160014811
:1057100000687047DC000020001F01231B060360A7
:10572000001F0160001F034B036014380260203823
:10573000704700001155000870B505466448FBF736
:1057400077FAFF2191316248FBF700FA03286ED007
:105750005F48FBF7DDF804465E480078002809D171
:105760005D4804605D4804605D480460012059495B
:105770000870A8E0574800780B286FDD00205549D5
:1057800008705748006854490968401A5349096825
:10579000401A534908600A2151480068FAF7DEFCB4
:1057A0004F490860084600684E49884204D84C4872
:1057B00000684D49884201D2FAF7D4FE4B48007880
:1057C0000300FEF701FD05040A1F354C62000121AC
:1057D00089034748FCF74AFC5DE0414800684549B9
:1057E000884204D9012189034148FCF733FC3C4835
:1057F00000680121C902884203D2C9003C48FCF775
:1058000035FC48E0364800680121C902884203D9C6
:10581000C9003748FCF71EFC314800683649884209
:1058200004D2012189033248FCF720FC33E04BE02D
:105830002B4800683049884204D9012189032C484B
:10584000FCF708FC264800682B49EA39884204D254
:10585000012189032648FCF709FC1CE01CE02048D4
:1058600000682549EA39884204D901218903204882
:10587000FCF7F0FB1A4800682049884204D2012155
:1058800089031B48FCF7F2FB05E001218903184856
:10589000FCF7ECFB00BF16E010480068844202D918
:1058A0000E48046005E00C480068844201D20A48B2
:1058B00004600B4800680019094908600548007831
:1058C000401C0449087002E00148FBF7EDF970BD87
:1058D0004801002075000020780000207C00002096
:1058E00080000020AC0D0000260200005A000020BD
:1058F000000400488E090000CC06000043050000AB
:1059000010B5044680200921C90609690140814279
:1059100001D1012100E00021002919D1234800789C
:10592000002811D1012021490870C1020920C006B8
:10593000FCF79CFB0022D24300211D480068FFF7C2
:105940003BF8FAF70FFE2FE000201A4908802BE001
:1059500016480078002827D0164800881649884243
:105960001DDD002011490870FAF7FCFD0121C90274
:105970000920C006FCF76EFB00211048006800F00B
:1059800025FC0022FF210D480068FFF715F80022D2
:10599000D243FF2106480068FFF70EF804E00548EF
:1059A0000088401C0349088010BD000074000020DE
:1059B000AC00002084000020B80B0000A8000020EC
:1059C00000B587B03248807802218843304988701A
:1059D000412040010880FEF7F7FC7D200001FAF726
:1059E0009DFEFFF721F90020FDF706FA00BF002217
:1059F000D2432848016801A8FEF78CFF01A807C818
:105A000004AB07C30498102803D10598032800D1DC
:105A100000E0ECE700BF7D20C000FAF77FFE00BF8A
:105A20000022D2431B48016801A8FEF773FF01A8BA
:105A300007C804AB07C30498102803D105980328AE
:105A400000D108E00498102804D10598022801D15B
:105A5000FDF7BCF9E4E700BF0F48FAF75FFE00BFAF
:105A60000022D2430B48016801A8FEF753FF01A8AA
:105A700007C804AB07C30498102803D1059803286E
:105A800000D100E0ECE700BFFAF732FE07B000BD3E
:105A900068000020A80000204C04000001460A69AC
:105AA0004B68886898608B6848685860506888427E
:105AB00001D188685060002008611068401E1060A5
:105AC000106870470146083141600021C943816078
:105AD00001460831C1600161002101607047002169
