:020000040800F2
:10000000F0160020410100087D1E0008A31500081D
:1000100000000000000000000000000000000000E0
:10002000000000000000000000000000D5200008D3
:100030000000000000000000FF000008BD2A0008CA
:10004000530100080000000053010008530100089C
:100050005301000853010008530100085301000830
:10006000000000005301000853010008530100087C
:10007000530100085301000853010008000000006C
:10008000012C00082D2C000800000000992B00080E
:1000900053010008C12B0008F12B00085301000890
:1000A000530100085301000853010008DD2C00082B
:1000B000452D00080348854600F09CF8004800479D
:1000C000C9300008F0160020084B19680868203075
:1000D00080F30988022080F31488BFF36F8F3FBC40
:1000E000AE4608BC04BC62B618470000D000002031
:1000F000EFF3108072B6704780F310887047EFF30B
:1001000009800E4B1A6820381060F0C044464D46F6
:1001100056465F46F0C008B572B604F043F962B6C1
:100120000CBC116808681030F0C8A046A946B24659
:10013000BB4680F309882038F0C81847D00000205B
:100140000448804704480047FEE7FEE7FEE7FEE775
:10015000FEE7FEE73D2B0008B500000830B50B4672
:10016000014600202022012409E00D46D5409D4291
:1001700005D31D469540491B254695404019154617
:10018000521E002DF1DC30BD10B5202A04DB0846DC
:10019000203AD040002110BD0B46D340D04020244F
:1001A000A21A91400843194610BD03460B439B0712
:1001B00003D009E008C9121F08C0042AFAD203E0DC
:1001C0000B780370401C491C521EF9D27047D2B202
:1001D00001E00270401C491EFBD270470022F6E786
:1001E00010B513460A4604461946FFF7F0FF2046AD
:1001F00010BD0000064C0125064E05E0E36807CC63
:100200002B430C3C98471034B442F7D3FFF756FF0A
:100210006C4D00088C4D000830B58C180278401CDD
:1002200013071B0F01D10378401C120906D1027875
:10023000401C03E005780D70401C491C5B1EF9D181
:1002400001E00B70491C521EFBD1A142E6D30020F5
:1002500030BD70B5044600688168490720D58168C3
:1002600010264907002905DA8168890702D48168C8
:100270003143816000F012FD05460DE000F00EFDF7
:10028000401B022808D9606C30436064A06C0121D7
:100290000843A064084670BD206880684007EDD41C
:1002A000002070BDF8B50446006881688907890F91
:1002B000012928D10168C90702D1C168090422D5E2
:1002C0008168052211401025012601290FD181687E
:1002D00002221143816021680320086000F0DEFCE7
:1002E00007460CE000F0DAFCC01B022807D9606C5E
:1002F00028436064A06C3043A0640120F8BD2068EE
:100300008068C007EED10020F8BD0000F8B50446B3
:1003100000200090206881688907890F012905D194
:100320000168C9072CD1C168090429D48168154A1C
:10033000102611400125002915D1816829438160CB
:10034000124811490068FFF709FF00E0401E0090C5
:100350000028FBD100F0A2FC07460CE000F09EFC58
:10036000C01B022807D9606C30436064A06C28432E
:10037000A0640120F8BD20680068C043C007EDD12B
:100380000020F8BD1700008040420F00CC00002084
:1003900006490020C8610648016904221143016131
:1003A000016940221143016170470000D80100201B
:1003B00000200240064A0021D16106490A69022351
:1003C0001A430A6148610869402210430861704776
:1003D000D80100200020024010B5054B0022DA6150
:1003E000044A1369012423431361018010BD0000F6
:1003F000D80100200020024010B50B4A0020D1682F
:10040000CB060A4904D5C86902231843C8611020E5
:10041000D3685B0705D5CB6901242343CB61042155
:100420000843D06010BD000000200240D801002029
:1004300070B5054600F032FC0646104C0AE0681C18
:1004400008D0002D04D000F029FC801BA84201D95F
:10045000032070BDE068C007F1D1E068800601D5D7
:100460002020E060E068C00602D4E068400703D5C1
:10047000FFF7C2FF012070BD002070BD00200240C8
:1004800009480178002901D000207047012101703E
:10049000064A802090610648C2680A43C26002682A
:1004A0000A430260084670477C00002000140048A0
:1004B0000004004070B52049204A8C780B46204D3E
:1004C00020481B88E6070BD05B1C0B809B079B0F0B
:1004D00012D0012B13D0022B1AD0032B1BD112E008
:1004E0005B1E0B809B079B0F0DD0012B04D0022BB2
:1004F00005D0032B0FD10BE0AA62102206E02022C8
:100500008262082202E0082282622022826102E0E6
:1005100010238362AA6108888A8890420AD1FD204C
:1005200004408C70084800220321006802F07AFF22
:10053000012070BD002070BD66000020008000001A
:100540000000004800040048A000002005482021C9
:100550008162102181620821816240010921C9065E
:10056000886270470004004830B51249124B0C886D
:1005700084420AD10022D2438A808A78FD252A400B
:100580008A701A68520852001A6088808A78022598
:100590002A4301258A70844201D22A4301E052088D
:1005A00052008A70D8682843D860186828431860B9
:1005B00030BD00006600002000200040F8B5002596
:1005C0000446403400952278012A39D00122227055
:1005D00003689E68760767D4384F4E68BE424DD098
:1005E0009E6A0F78BA4016439E620123826B1B07F6
:1005F0009A421FD0012A1DD0022A1BD0032A19D0EB
:10060000042A17D0052A15D0062A13D0072A11D09C
:1006100002688B6856697607760FB3420AD0536931
:10062000DB08DB005361006842690B7A5B075B0FF4
:100630001A4342610A68102A04D0112A02D038E015
:100640000220F8BD1E488368102A07D001229205B7
:10065000134383600868102803D02AE00122D205E2
:10066000F6E7194817490068FFF778FD0A21484363
:1006700000E0401E00900028FBD11AE0986A0E7836
:10068000B240904398620968102901D0112910D115
:100690000B488268102904D0012189058A438260B1
:1006A00007E00121C905F9E7416C202211434164AB
:1006B0000125002020702846F8BD00000110000030
:1006C0000027014040420F00CC0000200068006C71
:1006D00070470000F8B500250446002803D0606C80
:1006E000002802D008E00120F8BD0020A0644021CD
:1006F0000855204600F0A8F8606C1022C0060028BB
:1007000070DB2068816849076CD4616C13019943E0
:1007100002231943616481688907890F012905D182
:100720000168C9070FD1C16809040CD4C168182336
:100730009943A3681943C16020680169636889000F
:100740008908194301612068C1683D4B1940C160A7
:10075000A069E1698003C9030843216A4B03184378
:10076000636B012B02D001231B0300E0002318431D
:10077000E36818432369022B09D000231843236B35
:10078000666A5B0018430123012E02D00AE00423AD
:10079000F4E7002927D0616C202631436164A16C05
:1007A0001943A164A16A0E46FF3EC23E02D0E66A2A
:1007B000314308432168CE680643CE600126A16B11
:1007C0003607B14213D0012911D002290FD00329D5
:1007D0000DD004290BD0052909D0062907D00729F7
:1007E00005D010E028E0012109040843DAE7216878
:1007F0004E69F608F6004E6121684E69278F7F0723
:100800007F0F3E434E612168C9680E4E31408142E0
:1008100007D10020A064606C80088000401C6064E8
:1008200008E0606C0221884310436064A06C1843A8
:10083000A06401252846F8BD606C10436064F8E7A9
:100840001902FEFFE7FF3F8310B586B0044614216E
:100850006846FFF7C3FC10492068884219D10F4849
:10086000826941150A43826182690A4005924269A0
:1008700009020A4342614069084005900120009046
:10088000032001900020029009206946C00600F074
:1008900061F906B010BD00000024014000100240C4
:1008A000F8B504464069254640350E4608280BD069
:1008B0002068C068C00709D0606C202108436064CC
:1008C000002028700120F8BD082700E00C2700F068
:1008D000E5F9009011E0701C0FD0002E05D000F05B
:1008E000DDF90099401AB04207D9606C0421084331
:1008F0006064002028700320F8BD2068006838423A
:10090000E9D0606C01214902084360642068C16835
:1009100009058A0F0C21002A1AD1226A002A17D150
:100920000268120714D5826853070122002B08DBE6
:1009300043688B434360606C1302984310436064C8
:1009400006E0606C202318436064A06C1043A06430
:10095000A069002801D1206801600020F8BD0000D6
:1009600070B50446216800208968490721D42546CE
:100970004035297801291CD001212970E16901291C
:1009800004D02046FFF7C2FC002811D1616C0A4A4E
:100990001140FF220132114361640021A1642970DA
:1009A00022681C21116021688A6804231A438A6026
:1009B00070BD022070BD0000FEF1FFFF70B505465E
:1009C000044640352878012807D001262E7020469D
:1009D000FFF73FFC002802D00CE0022070BD20464B
:1009E000FFF760FC002805D1616CFF2201329143C2
:1009F000314361640021297070BD0000F8B50546DF
:100A000023480F46017E012601290BD001210176E2
:100A10002868204C012807D02046FFF709FD002850
:100A200013D030E00220F8BD2046FFF701FD00287A
:100A300029D1FFF7ADFC2046FFF7FAFC0646164821
:100A400001690422914301611DE00020C043386028
:100A50006C6812E02046FFF7ADFC0E48FFF7E8FC9B
:100A600006460D48026902218A430261002E01D028
:100A70003C6008E0012080022418A86881026868B0
:100A80000818A042E6D80248002101763046F8BD99
:100A9000D801002050C30000002002400348016933
:100AA00080221143016100207047000000200240B5
:100AB000F0B51FB407461A480024017E15461E46AD
:100AC000012907D0012101761648FFF7B1FC002863
:100AD00003D020E0022005B0F0BD012F02D0022F8C
:100AE00000D00427220128463146FFF74DFB81B292
:100AF000019862001018FFF76FFC0A48FFF798FC96
:100B000009490A69520852000A61002803D1641C8D
:100B1000E4B2BC42E6D3024900220A76DBE70000D9
:100B2000D801002050C300000020024006490020E8
:100B30000A69120607D5054A4A60054A4A600969EA
:100B4000090600D5012070470020024023016745B7
:100B5000AB89EFCDF8B500238DE001249C40A4467D
:100B600022407DD04C68022C01D0122C0CD1DC0824
:100B7000A40027183C6A5D07ED0E0F26AE40B44373
:100B80000E69AE4026433E6205685E000324B44011
:100B90000F79A543BF07BF0FB7402F4307604D68CC
:100BA000012D05D0022D03D0112D01D0122D0ED113
:100BB0008568CF68A543B7402F438760476865467F
:100BC000AF430D79ED06ED0F9D403D434560C5688F
:100BD000A5438C68B4402C43C4604C68E40049D5FC
:100BE000284CA56901263543A561A4699D083440B8
:100BF0000094254CAD002F19BC689D072E0F0F25C2
:100C0000B540AC430925ED06A84201D100250FE00F
:100C10001E4DA84201D101250AE01D4DA84201D177
:100C2000022505E01B4DA84201D1032500E0052562
:100C3000B5402543BD60184C25684E689543F603C2
:100C400000D51543256065684E689543B60300D509
:100C500015436560A5684E689543F60202D500E02D
:100C600008E01543A560E5684E689543B60200D5D7
:100C70001543E5605B1C0A681446DC4000D06CE755
:100C8000F8BD0000001002400000014000040048D0
:100C900000080048000C00480004014001480068BA
:100CA00070470000C800002002480168491C01602C
:100CB00070470000C800002010B5064801681022E7
:100CC00011430160002000F007F800F041F8002017
:100CD00010BD00000020024000B5014687B0002290
:100CE000162000F057F8162000F04AF813488269E1
:100CF000012189040A43826180690840059004A9A2
:100D0000684600F055F900F06FF90D49FFF726FA33
:100D10000D490C4A0A600D4A401ECA604860002016
:100D200008618860084600F057FB002802D00120C7
:100D300007B000BD044800F06AFBF9E7001002406C
:100D400040420F000048014094010020E7030000EA
:100D500008B50A4881690122114381618169114006
:100D60000091C26901040A43C261C06900220840BF
:100D700003210090481F00F00DF808BD001002404C
:100D8000C106C90E01208840014908607047000073
:100D900000E100E010B501F09FF810BDF8B5054680
:100DA0000068354CC00352D5E0690026C00007D466
:100DB000E16920040143E161E169014001260091FC
:100DC0002E480168C90510D40168821511430160DD
:100DD000FFF764FF074604E0FFF760FFC01B6428CD
:100DE00024D826480068C005F6D5206A03273F02AC
:100DF000384020D06968394081421CD0206A226A7C
:100E0000B843012109040A432262226A8A4322620A
:100E10002062C0070FD0FFF741FF009008E0FFF706
:100E20003DFF0099411A1648814201D90320F8BDBF
:100E3000206A8007F3D5206A6968B84308432062B6
:100E4000002E04D0E169012000078143E161287888
:100E5000C00705D0206BA968800880000843206384
:100E60002878800605D5206B10218843E96808435F
:100E700020630020F8BD0000001002400070004018
:100E800088130000F8B5054644480E460068C007C0
:100E9000C00FB0420AD241480168490849003143B5
:100EA00001600068C007C00FB0425CD128783C4C9C
:100EB000800705D56068F0218843A9680843606011
:100EC0002878C0073FD06868012813D0216802281D
:100ED00013D08907002946DA61688908890001432F
:100EE0006160FFF7DBFE6968074601290DD0022922
:100EF00017D024E021688903ECE78901EAE7FFF7CE
:100F0000CDFEC11B2748814217D860680007800FBB
:100F10000128F4D117E0FFF7C1FEC11B214881422F
:100F20000BD860680007800F0228F4D10BE0FFF7B0
:100F3000B5FEC11B1B48814201D90320F8BD606882
:100F40000007800FF3D115480168C907C90FB142E6
:100F50000BD9016849084900314301600068C007A6
:100F6000C00FB04201D00120F8BD2878400706D557
:100F70006068072109028843E9680843606000F05F
:100F800043F86168084A0906090F515CC8400749DF
:100F900008600020FFF7A0FE0020F8BD00200240FE
:100FA0000010024088130000214D0008CC000020F2
:100FB00010B5072202600A4A53689B079B0F4360E3
:100FC0005368F02423408360526807231B021A40B1
:100FD000C26004480068C007C00F086010BD000070
:100FE000001002400020024004480549006849689A
:100FF000044A4905490F515CC8407047CC000020A5
:1010000000100240314D000810B512A30FCB88B07C
:101010006C460FC413A30FCB0FC416494A680C20AB
:10102000134603401448042B0FD0082B0DD1930214
:101030001B0F6C46E45CC96A04AB0907090F595CD5
:10104000D20304D5FFF78AF8604308B010BD0B48FF
:101050006043FAE702030405060708090A0B0C0DB2
:101060000E0F10100102030405060708090A0B0CF5
:101070000D0E0F100010024000127A0000093D0012
:10108000FEB504460078D04DC00747D06868000719
:10109000800F012807D068680007800F022809D157
:1010A0006868C00306D52868800337D560680028C3
:1010B0007ED033E0012062680004012A11D0810053
:1010C000002A01D0052A10D02A6882432A602868A5
:1010D000884328606068002814D0FFF7DFFD0646CB
:1010E0000CE0296801432960F4E72A680A432A6072
:1010F000F7E7FFF7D3FD801B64286FD828688003CB
:10110000F7D50BE0FFF7CAFD064604E0FFF7C6FD82
:10111000801B6428F1D828688003F7D42078012642
:10112000800700283BDA68680007800F07D06868EE
:101130000007800F022809D16868C00306D4286818
:10114000800715D5E068012832D111E0E068002859
:10115000286815D030432860FFF7A0FD074604E05B
:10116000FFF79CFDC01B0228C7D828688007F7D569
:101170002868F82188432169C900084328600EE0E7
:10118000400840002860FFF789FD074604E0FFF7AC
:1011900085FDC01B0228B0D828688007F7D42078C6
:1011A000000724D5E0690028686A10D0304300E0C9
:1011B00008E16862FFF772FD074604E0FFF76EFD85
:1011C000C01B022899D8686A8007F7D50FE040084D
:1011D00040006862FFF762FD074605E09DE0FFF70B
:1011E0005DFDC01B022888D8686A8007F7D4207884
:1011F00004274007002860DA00200190E869C00059
:1012000008D4E969B8060143E961E96901400120B0
:10121000009101906D480168C90511D401688215DB
:1012200011430160FFF73AFD009005E0FFF736FD3E
:101230000099401A642870D864480068C005F5D544
:10124000A06801280AD0002801D0052810D0286AFB
:10125000400840002862286AB84301E0286A304309
:101260002862A068002812D0FFF718FD00900AE05D
:10127000286A38432862F1E7FFF710FD0099411A08
:101280005348814249D8286A8007F5D50DE0FFF719
:1012900005FD009006E0FFF701FD0099411A4C485A
:1012A00081423AD8286A8007F5D40198002804D0F2
:1012B000E969012000078143E9612078C00635D53E
:1012C000606901280CD0401D686B23D038436863E7
:1012D000686B400840006863FFF7E0FC064622E0C8
:1012E000686B38436863686B30436863FFF7D6FC0C
:1012F000064604E0FFF7D2FC801B02285BD8686B2F
:101300008007F7D5686BF8218843A169C9000843B5
:1013100068630BE0B8436863F4E74CE0FFF7BEFC9A
:10132000801B022847D8686B8007F7D4206A002802
:1013300046D069680907890F022943D0012636067D
:101340000228286805D0B0432860FFF7A7FC0446B0
:1013500033E0B0432860FFF7A1FC074604E0FFF745
:101360009DFCC01B022826D828688001F7D4E86AB3
:10137000E16A000900010843E862616AA06A084363
:1013800069683D221204914308436860286830432D
:101390002860FFF783FC044604E0FFF77FFC001B96
:1013A000022808D828688001F7D509E0FFF776FC05
:1013B000001B022801D90320FEBD28688001F5D456
:1013C0000020FEBD0120FEBD001002400070004064
:1013D000881300007047704770B5040005D025469B
:1013E0002035687F002802D006E0012070BD002073
:1013F0002877204600F00AF802206877211D20682F
:1014000001F028FC01206877002070BD7047026859
:10141000D36801210B43D360006802680A4302606D
:1014200000207047704770B50446006801690025C8
:10143000C9438907002915DBC168C943890711D44D
:10144000E91E01610120207720688069800720461D
:1014500002D0FFF7E7FF04E000F096F8204600F026
:1014600094F8257720680169C943490717D4C168F2
:10147000C943490713D40421C943016102202077DD
:10148000206880698005800F204602D0FFF7CAFFE0
:1014900004E000F079F8204600F077F8257720681E
:1014A0000169C943090716D4C168C943090712D4A1
:1014B0000821C9430161042020772068C0698007A2
:1014C000204602D0FFF7AEFF04E000F05DF82046B2
:1014D00000F05BF8257720680169C943C90617D475
:1014E000C168C943C90613D41021C943016108204A
:1014F00020772068C0698005800F204602D0FFF762
:1015000091FF04E000F040F8204600F03EF8257717
:1015100020680169C943C90708D1C168C943C9071F
:1015200004D1891E0161204600F030F8206801696D
:10153000C943090609D4C168C943090605D48021F5
:10154000C94301612046FFF745FF20680169C9438F
:10155000490609D4C168C943490605D44021C94395
:101560000161204600F01CF820680169C943890622
:1015700009D4C168C943890605D42021C943016142
:101580002046FFF728FF70BD7047704710B5006810
:101590000249884201D1FFF787FB10BD0048014096
:1015A0007047FEE708B504494A6902434A61496940
:1015B0000140009108BD00000010024008B5044938
:1015C000CA690243CA61C9690140009108BD0000AF
:1015D0000010024008B504498A6902438A6189699A
:1015E0000140009108BD000000100240044A51185B
:1015F0002039C97F425852085200425070470000BB
:101600001C4D0008054B10B559182039C97F4358A7
:1016100003242403A3431343435010BDA44C0008E8
:10162000054B59182039C97F001D0B581B0C1B0492
:1016300013430B5070470000894C0008054B10B550
:1016400059182039C97F4358034C23401343435052
:1016500010BD0000A44C0008EFBFFFFF054B10B504
:1016600059182039C97F43588024A343134343505A
:1016700010BD0000A44C0008054B10B559182039C6
:10168000C97F43580324A402A3431343435010BD0E
:10169000A44C0008054B10B559182039C97F435890
:1016A0002024A3431343435010BD0000A44C000862
:1016B000054B10B559182039C97F43584024A3431E
:1016C0001343435010BD0000A44C0008054B10B557
:1016D00059182039C97F435803242402A3431343D4
:1016E000435010BDA44C0008F0B500243EE0012397
:1016F0002A46A3401A4038D04F6806681346534321
:101700005D005D19AE435F433E4306604E68012EA7
:1017100001D0022E05D18F6886685F43AE433E43F9
:1017200086600F69C668AE431D467D432E43C66082
:101730004D68022D19D1FF2A0AD84E69056A534314
:1017400053431A01D21A954373431D4305620CE0BB
:10175000130A1A465A435A435A4313019E1A4D69B3
:10176000436A6A43B34313434362641C0A681546E1
:10177000E240BCD14A68012A01D0022A06D1CB68D6
:1017800041682A4691435A43114341600120F0BD0C
:101790000069814301D0002070470120704710B5D7
:1017A000044600F067FC206000F04AFC606000F036
:1017B00055FCA06010BD0000014610B500200029B6
:1017C0000FD110490A6B9207920F012A0AD0022A00
:1017D00011D0032A09D000F04DFC00F031FC00F0DC
:1017E0003DFC10BD00F046FC10BD09688907C90F1B
:1017F000FAD0054810BD096A8907C90FFAD001203F
:10180000C00310BD0010024000127A00F0B502685B
:10181000194B1A4C984201D0A04203D17025AA431B
:101820004D682A43164D174E174F98420AD0A042D2
:1018300008D0164CA04205D0A84203D0B04201D037
:10184000B84204D103242402A243CC68224302609C
:101850008A68C2620A888262984205D0A84203D090
:10186000B04201D0B84201D1097C01634169012233
:10187000114341611046F0BD002C014000040040BE
:101880000040014000440140004801400020004069
:1018900041680122D202914341608168082291434C
:1018A00081607047FEB5044600680D460026C007FB
:1018B000C00F43D1E9686868AA69084329691143E0
:1018C000084321681E4A114008432060A9686068E7
:1018D000032212039043084360606969A0681211F3
:1018E00090430843A0601748844203D10020FFF7CB
:1018F00063FF06E01448844220D16846FFF74FFF9B
:10190000029800281AD02968002917D00126AA6950
:10191000F3039A420CD140004A088018FEF71EFCDF
:1019200081B20A4808400907490F0143E16005E018
:101930004A081018FEF712FC80B2E0603046FEBD87
:10194000F369FFFF0038014000440040F0FF000051
:101950003EB500241348009401941149029401609B
:1019600084604905C46041600346012104221033AC
:1019700016C3C46104624462FF22C462C2320463BB
:1019800082624163FEF7A6FE01200003019000047D
:101990000290009469460348FEF710FE3EBD000029
:1019A000002401403C010020F0B587B018216846B2
:1019B000FEF714FC0120C004FFF7F4FD01208005B0
:1019C000FFF7F0FD01204004FFF7ECFD012080044B
:1019D000FFF7E8FD10200921C906886220208862EF
:1019E00040208862A949022088620420886200029F
:1019F000886247008F6280008862400088624000F1
:101A0000886246008E6280110921C90688628F6251
:101A1000000188629E4940208862802088620920F7
:101A2000C0068662994908208862102088622020BA
:101A3000886240208862802088624000886240007E
:101A400088620001002401250090694604950194F4
:101A50009048FFF749FEA803009069460495019459
:101A60008C48FFF741FE69468A4800960495019428
:101A7000FFF73AFE00956946854804950194FFF703
:101A800033FE1020009009200294019569460495C8
:101A90000394C006FFF728FE20200090092002943E
:101AA0000195694604950394C006FFF71DFE40208A
:101AB0000090092002940195694604950394C0069C
:101AC000FFF712FE802000900920019469460494DB
:101AD000C006FFF709FE009569466C48049501941D
:101AE000FFF702FE022000900294019569460495DA
:101AF00003946648FFF7F8FD0420009002940195D6
:101B00006946049503946148FFF7EEFDA802009032
:101B1000029401956946049503945C48FFF7E4FD3F
:101B20000294019569465948009704950394FFF77C
:101B3000DBFD280300900294019569460495039407
:101B40005248FFF7D1FD6803009002940195694661
:101B5000049503944D48FFF7C7FDA8030090029435
:101B600001956946049503944848FFF7BDFD02942A
:101B7000039469464548009601950494FFF7B4FD27
:101B80002802009009200294019569460495039467
:101B9000C006FFF7A9FD0920029401956946C00619
:101BA000009704950394FFF79FFD280300900920F8
:101BB00002940195694604950394C006FFF794FDCD
:101BC00040200090029401956946049503943048A2
:101BD000FFF78AFD802000900294019569460495E4
:101BE00003942B48FFF780FD092002940195694674
:101BF000C006009604950394FFF776FD0820009038
:101C0000029401956946049503942048FFF76CFD02
:101C100010200090029401956946049503941B4896
:101C2000FFF762FD2020009002940195694604951B
:101C300003941648FFF758FD402000900294019548
:101C40006946049503941148FFF74EFD80200090EB
:101C5000029401956946049503940C48FFF744FDEE
:101C60002802009002940195694604950394074860
:101C7000FFF73AFD680200900294019569460495C9
:101C800003940248FFF730FD07B0F0BD00040048A0
:101C90000014004800080048F0B58DB01C2106A8CB
:101CA000FEF79CFA18216846FEF798FA0120800397
:101CB000FFF790FC01204004FFF774FC0024012092
:101CC000012540020226032703946A4605950494E1
:101CD000C1C209206946C006FFF706FDA8020394A9
:101CE0006A4605950494C1C209206946C006FFF7FB
:101CF000FBFC234E102202213046FFF79FFC0022FE
:101D000002213046FFF77EFC002202213046FFF719
:101D1000C1FC002202213046FFF7CAFC80220221CA
:101D20003046FFF79BFC002202213046FFF7CEFC35
:101D3000002202213046FFF79FFC03211B2000F008
:101D4000A9F81B2000F09CF84B20400106900C20C5
:101D50000794089409940B940A90E803094C0C909A
:101D600006A92046FFF79EFDA16820158143A160CA
:101D70002046FFF78DFD2068284320600DB0F0BDA0
:101D80000000024000380140F0B58DB01C2106A8CB
:101D9000FEF724FA18216846FEF720FA01246404AD
:101DA0002046FFF70BFC2046FFF7FCFB0024012533
:101DB00004200226032703946A4605950494C1C2B1
:101DC00009206946C006FFF78FFC082003946A4685
:101DD00005950494C1C209206946C006FFF784FC3A
:101DE000244E102204213046FFF728FC0022042153
:101DF0003046FFF707FC002204213046FFF74AFC7B
:101E0000002204213046FFF753FC80220421304693
:101E1000FFF724FC002204213046FFF757FC002284
:101E200004213046FFF728FC03211C2000F032F883
:101E30001C2000F025F84B20C00106900794089460
:101E400009940B940C940C200B4C0A9006A9204684
:101E5000FFF728FDA06821158843A0602046FFF702
:101E600017FD206828432060206820210843206057
:101E70000DB0F0BD0000024000440040704700007B
:101E8000C106C90E01208840014908607047000062
:101E900000E100E08307FF22DB0E9A408907090E6C
:101EA000994000280BDA0007000F0838830808481B
:101EB0009B001818C36993430B43C36170478308A1
:101EC00004489B001B18186890430843186070472B
:101ED00000ED00E000E400E08307FF22DB0E9A4003
:101EE0008907090E994000280BDA0007000F08380F
:101EF000830808489B001818C36993430B43C361C8
:101F00007047830804489B001B18186890430843D7
:101F10001860704700ED00E000E400E00148008830
:101F2000704700006000002070B51F491F4A8D787F
:101F30000C461F481F4B2488EE070BD0641C0C80F6
:101F4000A407A40F12D0012C13D0022C14D0032C00
:101F500015D123E0641E0C80A407A40F1ED0012C11
:101F600004D0022C05D0032C09D105E08262402266
:101F700004E08362802201E040238362826108885A
:101F80008A8890420ED1FD2005408D700A480022BB
:101F90000221006801F046FA012070BD80228262B1
:101FA0008361ECE7002070BD6000002000010000AC
:101FB0000004004800020000A000002001210548A4
:101FC00049028162491081628021816240218162DF
:101FD000704700000004004830B5174B174A997845
:101FE0001C4624888D0710D425462835854202D00A
:101FF000503D854209D10020C0439880FD2001401A
:10200000997010684008400013E00125844201D215
:10201000294301E0490849009970CC0700D02830D5
:102020009880022001439970D0682843D0601068DE
:102030002843106030BD0000600000200010004008
:1020400004494968F0221140034A0909515CC8401B
:102050007047000000100240214D00080349496804
:10206000034A4905490F515CC840704700100240BF
:10207000314D000810B5064841680C200140054864
:1020800005D0042903D0082901D100F005F810BDBE
:102090000010024000127A0010B50C4C6168012259
:1020A00012040B48114002D0914200D14000E16A75
:1020B0000907090F491CFEF751F861680F229204C5
:1020C0001140890C891C484310BD000000100240DB
:1020D00000093D007047000094B020216846FEF7DB
:1020E0007DF802A80F9005A80E9004A8444F0C900C
:1020F00006A878604348026843490A60416843483B
:1021000001AD03AE01600022D24309A8796A01F053
:1021100041F909981028F6D10A98032821D009DC42
:10212000002813D00228EED101F023F930600220FC
:102130002860E8E7042819D0FF28E4D101F019F954
:102140000E9908602868002815D018E001F011F9F0
:102150000F9908600E990020086030600C990860A3
:10216000E6E701F006F930600320E1E701F001F94C
:102170000C990860C7E70C9800680028C3D0234971
:10218000214A08681268904203D253094409A342C5
:10219000B9D0002A01D1BF28B5D0C0061DD0FEF7A6
:1021A000C5FC0024A00069460A58184900230968A4
:1021B00049010918164809180220FEF779FC641C29
:1021C000082CEFDBFEF76AFC10480168491C01602F
:1021D000C02998D10021016095E7FEF7A7FC0B48C4
:1021E0000068400981020A480818119001201290E5
:1021F00000201090139013A910A8FEF7FFFBD0E762
:102200008000002000F80008380000203C0000207A
:1022100000E000080EB53F4D00242978284680696B
:10222000E443002904D00022562101F0FBF80CE021
:1022300001462246684601F0ADF80121A86B01F085
:10224000BBF90121A86A01F0B7F90127324CFF025E
:102250007E100022D2436846A96901F09BF80098DD
:102260001028F6D1019868700198342804D04528C8
:1022700016D0562811D12CE00420A061052001F0D1
:102280006BF80420A062254801F066F80220A061E6
:10229000052001F061F80220A06200206870D8E7F4
:1022A0000420A061052001F057F80420A0627D20E1
:1022B000800101F051F80220A061052001F04CF8E6
:1022C0000220A062A761052001F046F8A76213482A
:1022D00017E00420A061052001F03EF80420A06270
:1022E0007D20800101F038F80220A061052001F076
:1022F00033F80220A062A761052001F02DF8A76243
:10230000074801F029F8A661052001F025F8A6622A
:10231000B2E700008000002000040048881300009D
:10232000102700001CB5FE480268FE490A7042688A
:102330004A7082688A70C268CA7002690A7142690A
:10234000012A00D000224A718269012A00D00022AD
:102350008A71C269F34B08331A70120A5A70006A04
:10236000012800D00020EF490028C87102D0EE49B2
:1023700040208861ED4C0021C943206801F0B8F885
:10238000EC4DED4AE978EA488850E648EA491430CD
:10239000EA78091D5050E94C1C3DE4480021C9432E
:1023A000006801F0A5F810210920C00642694A40E2
:1023B0004261E37821796078A6781F4602464F4053
:1023C000704078408C466779A17978404840019107
:1023D000E17900914840217A81427DD1D14908318B
:1023E0000878824279D1084640788642FAD1002B9B
:1023F00002D0012B72D07CE1CA4E604600093178D0
:102400001E30884204D03070282801D9282030702E
:10241000604600077178000F884200D07070B17874
:10242000380988420ED0C649B0700978022909D10E
:102430007179002906D125214843AF21C9004018F0
:10244000FFF7CAFD6079F1780007000F884214D0C9
:10245000BB49F070097802290FD1BA4909780029DF
:10246000B94903D04843B949401803E04843FF2124
:10247000F531081A80B2FEF777F8A07931790009B2
:10248000884214D03071002809D00121022000F0C8
:10249000EDFDAF480A21006801F08EF807E0002149
:1024A000022000F0E3FDAA48006801F0AFF8A1792E
:1024B00072790807C00F90420DD0002800D001208B
:1024C0007071002803D09E480078022815D00120A2
:1024D000A04AC003906202E00EE11BE1D0E0480791
:1024E000B179C00F884212D0002800D00120B0710D
:1024F00093480078022805D009E00120954AC003DE
:102500009061E8E795489449006801F055F8A07992
:10251000F1798007C00F88420CD0002800D001203C
:10252000F071002803D080494020886102E07E4994
:1025300040208862E07900286AD0452818D006DC5F
:1025400032282ED033283DD0392861D14FE056288B
:102550001AD0FF285CD1824E0021306802F021F8A9
:1025600080480021006802F01CF80022FF2116E0DC
:102570007D480078002801D0342805D17B4800220E
:102580004521006800F04EFF7748007838283FD09A
:10259000764E0021306802F004F80022562130689F
:1025A00022E073480078002832D0012165488E1E51
:1025B00001706C4832463221006800F033FF324629
:1025C00003210FE06A480078002821D000215D48EF
:1025D0004E1E0170634832463221006800F022FF2F
:1025E00032460221634849E000F01CFF10E06048D9
:1025F000007800280CD0524900200856002821D02D
:10260000012824D0022822D0032820D0042832D048
:10261000444800211430024601700C3A137843708C
:102620005778474A877012784F4EC27036780671D5
:1026300041717B40724081715340C171037241729C
:102640000A2251E00022D2437621464816E0444E49
:102650000021306801F0A5FF0022FF21306800F062
:10266000E1FE404800227621006800F0DBFE0022F7
:10267000D2430421B6E700223948FF210068B3E7BE
:102680003D4E30680168002912D101993A020B04CD
:1026900000996244090659185118016000F069FE5A
:1026A0007D21C900FDF75AFD31680A68101A0860DB
:1026B0001C4AD368106983420FD030495801411831
:1026C00000200E5C2654401C2028FADB5B1CD360E3
:1026D000C02B0ED10020D0600BE000200146215419
:1026E000401C2028FBDB2022134804210838FEF779
:1026F00097FFFDF7C5FE0DE00A4800211430017078
:10270000562242708270C1700B480422114608386C
:10271000FEF786FF0848E97F0838425852082FE044
:1027200000FC00082C00002000140048BC00002021
:1027300028440040894C000808000240880100201D
:102740000600002000000020D8FFFFFF1405000055
:10275000B400002000040048B80B0000B0000020C6
:10276000A00000209C000020810000209800002094
:102770006C000020A40000208400002000E000087D
:10278000520042500F2109034160084940220A6269
:102790000B6813430B60EA7F835801263343835051
:1027A0008868802210438860F7E5000000440040FC
:1027B000AF48AE49437886B0CA5800255208520047
:1027C000CA50AA4A4378AB4908329950A74B41787E
:1027D000A94A0C33CA50A54B082140781B1DC2588A
:1027E000120C12040A43C250FDF74AFE01F0C4FB6A
:1027F000A2480022FF21006800F014FEFDF740FE11
:102800009F4800220168D243684600F0C3FD00984B
:102810001028F5D1019832280FD07628F0D1012068
:1028200000030921C906886193480421C01F8171F2
:1028300000F09FFD934946180AE18F490120C91F06
:10284000887100020921C90688618F480078002834
:1028500005D08E48FF212D31006800F0ADFE00F05C
:1028600088FD7D2109014618894C09E0321A03A828
:10287000216800F08FFD049F00F07BFDFF2F7CD0CE
:10288000B042F3D37D2109018E4202D2C94388426E
:10289000ECD800F0E5FE7F48252100784843AF21C1
:1028A000C9004018FFF798FB0026F643324603A8FC
:1028B000216800F06FFD0498FF285ED00228F5D152
:1028C00000F026FB6C4F7549FF1F387800287248CE
:1028D000007803D048437249401803E04843FF2181
:1028E000F531081A80B2FDF73FFE324603A8216891
:1028F00000F050FD0498FF283FD00328F5D10220B6
:10290000B87168480078002803D001206649C003E8
:10291000886100F02EFD654FC61926E0321A03A823
:10292000216800F037FD03990498402925D002283A
:1029300002D0FF2817D120E05A480078002812D092
:10294000FFF7ECFA5349252209785143AF22D20010
:102950008A18904202D25248963001E050483230F4
:102960000818FFF739FB00F004FDB042D6D3BE4291
:1029700003D24E49C9438842D0D801204A49C003F6
:1029800088623D4F0320FF1FB87101203871E1209C
:102990008000FDF7E9FD0026F643324603A82168D2
:1029A00000F0F8FC04980328F7D1FDF7CFFD374875
:1029B000006800F02BFE0020FFF70EFB324603A854
:1029C000216800F0E7FC04980228F7D0FFF7F6FA38
:1029D000374800F0C1FCFF2001300921C906886298
:1029E0000020B8710CE72449C91F497800290BD091
:1029F00001212D4A490391622E49CB6801221343DC
:102A0000CB600B6813430B600124274964038C617E
:102A1000321A1F48016803A800F0BCFC049F00F0B4
:102A2000A8FCFF2F1CD0662F12D11F49002D03D008
:102A30008C622149097804E08C611F490A780421DD
:102A4000891A7D22120151431A4A516201214D40D7
:102A5000B042C8D30B498E4202D2C9438842C2D881
:102A6000012000030921C9068862C9E6000002406E
:102A7000844C0008283801400700002098000020FE
:102A80009C000020905F010032000020B000002078
:102A9000A00000202E0000202F000020D8FFFFFF04
:102AA00014050000310000200004004860EA000026
:102AB000B80B0000004401402D00002010B5FDF7C8
:102AC00017FB044601F05AFF002803D001200349F8
:102AD000000748602046FDF70FFB10BD00ED00E049
:102AE00070B594B030216846FDF778FB00240E9451
:102AF00013940225102009940D940F9404901294BD
:102B00000126009500040C94109403960A901194E9
:102B100008950B946846FEF7B3FA07200C900E94C4
:102B200000210D950F940CA8FEF7ACF910A8109693
:102B30001294FEF733F914B070BD00001348016819
:102B40000122114301604168114A1140416001684E
:102B5000104A114001600168012292049143016012
:102B600041683F22120491434160C16A0909090189
:102B7000C162016BFF22143291430163416B49082A
:102B8000490041630021816070470000001002404D
:102B90000CB8FF08FFFFF6FE10B5084C2069C0070F
:102BA000C00F0AD00120C0432061FDF783FC00283C
:102BB00003D0206840084000206010BD0020004085
:102BC00010B5094C2069C007C00F0CD00120C043CC
:102BD0002061064800226621006800F023FC20687E
:102BE00001210843206010BD00440140A0000020E6
:102BF00010B50248FEF717FC10BD0000940100203C
:102C000007480169C907C90F08D00121C9430161FB
:102C10000449802088620449002008707047000041
:102C200000040040001400487C00002010B5084C4F
:102C30002069C007C00F0AD00120C0432061FFF700
:102C400073F9002803D0206840084000206010BDC0
:102C500000100040F0B502681A4B1B4C984201D09E
:102C6000A04203D17025AA434D682A43174D184E40
:102C7000184F98420AD0A04208D0174CA04205D065
:102C8000A84203D0B04201D0B84205D11446032275
:102C900012029443CA6822438024A2434C6922430F
:102CA00002608A68C2620A688262984205D0A842BD
:102CB00003D0B04201D0B84201D1096901630121BA
:102CC0004161F0BD002C0140000400400040014083
:102CD00000440140004801400020004010B5144C61
:102CE000E0694006C00F07D020684021884320607B
:102CF00002211048FEF77AFCE0698006C00F16D06A
:102D000000F037FB0C494A68801A7D22D2009042BD
:102D100001D900204870A28C084B48781A54401CF6
:102D2000C0B24870082802D105490120087010BDC2
:102D30000038014000000240C00000200F000020C9
:102D40000200002010B51648C16989061AD5838C87
:102D50001548144A01785354002902D0092905D096
:102D600002E01278002A06D1491C03E0527A0021C1
:102D7000002A01D0017010BD01700C48006800F0FD
:102D800091FB10BDC1694906C90FFAD00168402204
:102D90009143016004210648FEF728FC10BD0000A5
:102DA0000044004088010020C0000020BC0000203A
:102DB0000000024030B47446641E2578641CAB42A7
:102DC00000D21D46635D5B00E31830BC184702E08B
:102DD00008C8121F08C1002AFAD1704770470020A6
:102DE00001E001C1121F002AFBD17047F8B501278D
:102DF000444E7F0339463046FEF7CAFC424C024639
:102E000020780125C107C90F8A4201D1217010E045
:102E10004008401C4006000E0143480821700F285E
:102E200007D948084000C907CA17294691430843F3
:102E30002070012189033046FEF7AAFC6278034620
:102E40003149D007C00F891E834208D16070C00786
:102E500018D008882D4A904214D2401C11E0520824
:102E6000521C5206120E1043420860700F2A09D9F4
:102E700042085200C007C0172B4683431A436270B2
:102E80000020088039463046FEF782FCA1780246D1
:102E9000C807C00F824201D1A07010E04908491C48
:102EA0004906090E08434108A0700F2907D94108B7
:102EB0004900C007C0172A4682431143A170394612
:102EC0003046FEF765FC2178C907C90F884204D156
:102ED000E078C007C00FE070F8BDE178C807490886
:102EE000491C4906C00F090E08434108E0700F292C
:102EF000F2D941084900C007C01785432943E17052
:102F0000F8BD0000000800481A000020102700004B
:102F10000F48007883070F489B0F0CD0012B0ED071
:102F200009224101D206022B0DD0032B02D191615F
:102F3000202181617047202181611021F9E7102152
:102F400081610821F5E708238361916170470000E2
:102F5000660000200004004870B5224C0026A078CE
:102F600025460F3500281ED02079002809D0607929
:102F7000401CC0B26071042803D91B48006800F0EF
:102F800045FBA878E9786A794018297989184018AA
:102F9000A9794018E979401C884201D1E67002E025
:102FA000E078401CE07020790122002802D0AE7049
:102FB000EA7104E00D480078A870401CE8710C49E3
:102FC000F02048600B484023036204681C430460FF
:102FD000094B5B78CC581443CC5081688022114354
:102FE000816070BD00000020B00000202C00002097
:102FF0000000024000380140844C0008EFF30580D7
:10300000002800D00120704770B5164C207880074A
:1030100005D46078800702D4A078800720D5FDF71A
:103020003DFE104DA968401A6968884218D9207879
:1030300081070D4803D5426910214A4042616178F9
:10304000890703D5426920214A404261A178890756
:1030500003D5426940214A404261FDF71FFEA86046
:1030600070BD0000200000200000004810B50228BC
:1030700021D8144A135CDC07E40F8C421BD05B0898
:103080005B000B4313549A0715D40922D20600287B
:1030900007D001280BD002280DD100290FD04020E5
:1030A00008E0002901D0102004E0102005E00029EC
:1030B00002D02020906110BD2020906210BD4020E1
:1030C000FBE7000020000020A8B0FDF7F5FDFFF7AA
:1030D00007FDFEF769FC0120FEF764FA02210A20D1
:1030E000FEF7D8FE0A20FEF7CBFE02210B20FEF7EA
:1030F000D1FE0B20FEF7C4FEFEF746FEFEF7CCFD28
:10310000FEF726FC14216846FDF768F81020FEF74C
:1031100055FA02211120FEF7BDFE1120FEF7B0FE88
:10312000834F684607800620824E0025029069463C
:1031300001953046FEF76AFB30688024A04330607A
:1031400014216846FDF74AF86000FEF737FA0221BD
:103150001320FEF79FFE1320FEF792FE68460780BD
:103160000620754E02900195694603953046FEF79C
:103170004DFB3068A043306014216846FDF72EF8FF
:10318000A002FEF727FA02211520FEF783FE152084
:10319000FEF776FE4B214901684601807D20C00084
:1031A0000290019503956846644E05746946304661
:1031B000FEF72CFB3068A043306014216846FDF711
:1031C0000DF80220FEF7FAF902211020FEF762FE48
:1031D0001020FEF755FE5A4968460180FF202C302A
:1031E000584E02900195694603953046FEF70EFB56
:1031F0003068A0433060306808218843084330605D
:10320000C8025149886142108A6150490969504C8D
:10321000884300D0257001210DA80D9500F02EF9EE
:103220004C4DE06328680E90002201210EA800F0AA
:10323000B1F9A06268680F90002201210FA800F088
:10324000A9F9E062A86810900022012110A800F0FE
:10325000A1F92063E86811900022012111A800F073
:1032600099F96063286912900022012112A800F0E8
:1032700091F92946A063C869096A06910590002161
:1032800005A800F081F8A06128460546816A406AD9
:10329000089107902035002107A800F075F8E0613B
:1032A0002969E8680A910990002109A800F06CF8E2
:1032B0002062A96968690C910B9000210BA800F0AD
:1032C00063F82449606214223C3113A8FCF76DFFB7
:1032D000002113A800F040F91E49A06014225031CB
:1032E00018A8FCF762FF002118A800F035F9194969
:1032F000E060142264311DA8FCF757FF00211DA8CF
:1033000000F02AF9134920611422783122A8FCF731
:103310004CFF002122A800F01FF9606120780028EE
:1033200002D0E06800F030F900F01EF8FEE700007F
:103330003F1F0000001000400020004000440140FA
:10334000BF5D000000040040000400480008004881
:1033500080000020904C000810B5002800D101200A
:1033600000F02AFF002010BD10B500F0ABFF0020D8
:1033700010BD10B5FFF742FE002802D001F0F8FAA8
:1033800010BD01F0EFFA10BD10B503C8002201F026
:103390004DF810BDF0B585B000260D4607460196E4
:1033A000029100291BD000240396501C1CD0002A37
:1033B00000D01446FFF722FE694600281AD003AA5F
:1033C0002846091D01F02FFA012810D00096039815
:1033D00000281BD0012012490007486016E0802019
:1033E00031462A46009013E00024E443E2E710202F
:1033F0000090ECE7002322462846091D01F035F82D
:10340000012808D0002C08D0402000906B4607CB44
:1034100007C705B0F0BD1020F7E70020F5E7000072
:1034200000ED00E037B50546002082B000901400A2
:1034300000D10124FFF7E2FD00280FD000236A46E7
:1034400003A9284601F06FF901280FD10098002840
:103450000FD001200849000748600AE000232246F7
:1034600003A9284601F0D3F8012802D0FF2005B0B7
:1034700030BD0020FBE7000000ED00E010B50129A1
:1034800001D0002010BD03220021012000F0CEFF5A
:10349000040004D000231A46194601F0B8F820466B
:1034A00010BD000038B5002405460094FFF7A6FDC6
:1034B00000280FD06946284601F07BF9012801D089
:1034C000FF2038BD009800280DD0012007490007D3
:1034D000486008E000231A461946284601F097F88C
:1034E000012800D0FF24204638BD000000ED00E098
:1034F00038B5054600200090002D11D00024481C4E
:1035000010D0002900D00C46FFF778FD002814D019
:103510006A460021284601F086F9012815D104E009
:10352000802038BD0024E443EEE7009800280ED048
:10353000012008490007486009E000232246194697
:10354000284600F092FF012801D0FF2038BD00205E
:1035500038BD000000ED00E03EB50824045F002205
:10356000842C00D0E21C02AB01930092028A046812
:103570000B4692B24068214601F0BCF9012801D007
:1035800000203EBD02983EBD10B500F0C5FE0020F3
:1035900010BD000008B500680090012907D0002088
:1035A00013460246012103A001F002FB08BD0120E1
:1035B000F6E7000000000000FEB5002507462E4695
:1035C00001950C0000D10124FFF718FD002800969A
:1035D0000FD001AB22460921384601F02BFB012810
:1035E0000FD1019800280DD001200749000748603D
:1035F00008E0002322460421384601F01BFB012885
:1036000000D0FF252846FEBD00ED00E07CB500257A
:1036100006462C460195FFF7F1FC0028009411D0D6
:1036200001AB00220821304601F004FB012801D043
:10363000FF207CBD019800280DD00120074900071C
:10364000486008E000231A460321304601F0F2FAF0
:10365000012800D0FF2528467CBD000000ED00E0D9
:103660000D480F49007883070C489B0F07D0012BAA
:1036700009D04A10022B0AD0032B03D100E04022CC
:10368000826181617047402181618021F9E7802159
:1036900081618261704700006000002000040048E2
:1036A00000020000F8B5134C0F46E6680546206896
:1036B000001D00F0AFFC681C07D1002F05D0216869
:1036C0000D48091D00F0DEFCF8BD20687519456045
:1036D0002168B54204D2A06B091D00F0BBFCF8BD07
:1036E000606B091D00F0B6FCA06A8542F7D2A562A6
:1036F000F8BD0000D000002014030020F8B50546F6
:1037000000F0CCFC294CA068401CA0602068284F29
:10371000002803D06069002827D02CE02560A0682D
:10372000012828D1002614207043C01900F084FC21
:10373000761C072EF7D31E488C3000F07DFC1C4809
:10374000A03000F079FC1A48B43000F075FC18483D
:10375000C83000F071FC1648DC3000F06DFC1448F5
:103760008C3060631430A06305E02068E96AC06AA9
:10377000884200D82560606A401C6062E86A21695E
:10378000884200D9206114214843C019291D00F046
:1037900079FC00F08FFC6069002806D02068E96A97
:1037A000C06A884201D200F0C7FCF8BDD0000020FA
:1037B0003802002010B500F071FC0E4C2068002883
:1037C00015D10D4800F038FC0B48143000F034FCE3
:1037D0000948E0601430206100220C210A2000F02A
:1037E00025FE2060002802D004A100F0B1FC00F00A
:1037F00061FC10BD0C01002028030020546D7251A3
:103800000000000070B5114E114C18E000F0C2FD30
:103810003068002817D001F075F900F03FFCF0681F
:10382000C568281D00F0F6FBA068401EA060606817
:10383000401E606000F03EFC284600F056F86068CC
:103840000028E3D170BD01F05DF9F8E70003002026
:10385000D000002010B5026C0C46002A0CD0C168C4
:103860008B18C36041688B4201D2194601E00168A0
:10387000C1602046FCF799FC10BDF8B5856B174672
:1038800004460026026C002A11D0002F19D0E068EF
:10389000FCF78BFCE168206C091AE1602268914218
:1038A00002D26168081AE060022F17D019E0206880
:1038B000002816D1606801F0BFF80646002060605D
:1038C0000FE0A068FCF771FC216CA0684018A060B4
:1038D0006168884205D32068A06002E0002D00D016
:1038E0006D1E6D1CA5633046F8BD10B50446006B17
:1038F00000F0EEFB204600F0EBFB10BD7D210E48F2
:103900004901420705D0C01DC0080B4AC000821AF9
:10391000891A0A4A0023411809C20839C908C9008E
:10392000183A11604B600B600B1A0AC093600120BB
:10393000C0075360D0607047500300203001002062
:10394000044CFFF75FFF20680128FAD900F0F4FB70
:10395000F7E7000038020020FFB581B00C9C900012
:10396000236B001F1818C6080A9DF600700701D0C7
:1039700072B6FEE723180A5C20331A750A5C002A27
:1039800002D0401C1028F5D320464030002700907C
:10399000C770072D00D30625E562A764201D656466
:1039A00000F055FB2046183000F051FB2461072041
:1039B000401B6462A061E764009807743046049A73
:1039C000019900F005FA20600B98002800D00460EF
:1039D00005B0F0BD30B5114900E011460A688242D9
:1039E000FBD34B685C18844203D1406818184860C8
:1039F000084643681C18944209D1084C103C2468BE
:103A0000A24209D052689A1842600A68126802609D
:103A1000814200D0086030BD0460F9E73001002029
:103A200070B5002441600B4D0061914206D8D11A57
:103A30008269914206D2011D286907E09A4203D2A9
:103A4000994201D3012403E0011DE86800F002FB64
:103A5000204670BD0C01002010B5044600F01EFB8E
:103A6000A06B002804D0002400F024FB204610BDE9
:103A70000124F9E730B587B0274D43E004980028CA
:103A800040DB069C6069002802D0201D00F0C2FACD
:103A900002A800F0A1F8024604980300FFF78AF993
:103AA0000A06060632232F06063223320598A1693C
:103AB000034641182046FFF7B3FF002822D0616A71
:103AC00020468847E06901281CD100200090059815
:103AD000A169002342181946204601F0ABF80028DE
:103AE00010D172B6FEE70598A061002805D08118B4
:103AF00013462046FFF794FF04E072B6FEE7204627
:103B000000F0E6FA00231A4604A9286800F0ADFC8C
:103B10000028B3D107B030BD0C010020FEB50F4620
:103B2000054600F037FC01A800F056F8044601985D
:103B3000002802D000F0E6FFFEBD1E4E002F10D080
:103B400030690068002833D00027291B3A463068C6
:103B500000F010FB00F0D6FF0028EDD100F0ECFAE9
:103B6000FEBDA542F1D800F0CDFFF0682746C06841
:103B7000C468201D00F04EFAE069012812D1A06946
:103B80002B4641193A462046FFF74AFF002809D044
:103B900000200346014600902A46204601F04AF8DC
:103BA000002803D0616A20468847FEBD72B6FEE752
:103BB0000127CAE70C0100200648416B096800296B
:103BC00005D0416BC968C9684968816270470021A6
:103BD000C943FAE7D000002070B5054600F0C2FEE8
:103BE000064E0446B068844203D200F009F8012072
:103BF00000E0002028602046B46070BD0C01002069
:103C0000F8B5164D20E0C068C4680668201D00F0B5
:103C100001FA616A20468847E069012814D1A06949
:103C20008019B04206D924616060211DE86800F067
:103C300011FA09E000200346014600903246204672
:103C400000F0F8FF002807D0E86801680029DAD101
:103C50002969E9602861F8BD72B6FEE70C01002011
:103C600003480068401C72B600D0FEE7FEE7000083
:103C700038010020074CE0680168002907D0C068BF
:103C800000210068FFF74AFFFFF7F4FEF3E7012188
:103C90000020F7E70C010020F8B5044600F0FEF91B
:103CA000254640350526AE57274624370BE0606A87
:103CB00000280AD0384600F0F3FE002801D000F0BA
:103CC00093FA761E76B2002EF1DC0027FF436F7167
:103CD00000F0F0F900F0E2F90426AE57204610306B
:103CE00000900BE0206900280AD0009800F0D8FE70
:103CF000002801D000F078FA761E76B2002EF1DCB2
:103D00002F7100F0D7F9F8BDF8B50546002700F08F
:103D100041FB284E3068002801D1FFF7EFFDF06825
:103D200005423FD1002D3DD00835680708D068070F
:103D3000400F0821081A4519680701D072B6FEE73E
:103D4000002D2FD0706885422CD81A4810300146BB
:103D50000C6801E020460C466168A94202D2216845
:103D60000029F7D131688C421CD0076821680160B6
:103D700060680837411B102908D96019420701D033
:103D800072B6FEE741606560FFF724FE6168706807
:103D9000401A7060B268904200D2B060F06801438F
:103DA000002003C400F0AEFE780701D072B6FEE733
:103DB0003846F8BD2001002004490868002803D0D7
:103DC0000868826C521C826408687047D00000202A
:103DD00010B50124031F24061C601B1F1960191F46
:103DE000024B0B60143940380A6010BD613C00087A
:103DF000F8B53648FCF7B4FDFF2191313348FCF7A4
:103E00004FFD032831485DD0FCF760FC304C6178F1
:103E1000002923D00B2946D9002060706168E06832
:103E2000401AA168401A0A21FCF798F92949E06074
:103E300040182949884201D3FCF722FB2748012278
:103E40000778274ED202264DEA3ED00025493B0096
:103E5000FEF7B0FF05270A12192027006060A06056
:103E6000E06001206070F8BDE3681F4CA34200D9F8
:103E70008862934215D3F8BDE368934200D9886203
:103E8000AB420ED3F8BDE268AA4200D98862B242C2
:103E900007D3F8BDE268B24200D98862134B9A4258
:103EA000F7D28861F8BDA268904201D9A06003E012
:103EB0006268904200D26060E2681018491CE060BD
:103EC0006170F8BDFCF77AFDF8BD00003C010020F0
:103ED0006C000020DAFDFFFF870B0000300000209F
:103EE000CC060000000400488E09000043050000D5
:103EF000F8B580230925ED062869012483431B4872
:103F00000027E402FF43184E01780022002B03D063
:103F100000291BD04280F8BD0029FCD04188144BF9
:103F200099421ED90270FCF7ABFAAC62114C002129
:103F3000206800F036FB0022FF212068FFF772FAAC
:103F40003A46FF213068FFF76DFAF8BD0121017094
:103F5000AC613A4600213068FFF764FAFCF790FA4A
:103F6000F8BD491C4180F8BDA40000206C00002071
:103F7000B80B0000A00000203EB52348FD22817848
:103F800011408170412149010180FEF7C1FF7D2070
:103F90000001FCF7E9FAFFF763FB0020FEF71CF8CD
:103FA00000251A4CED432A4668462168FFF7F2F9CE
:103FB000009801991028F6D10329F4D17D20C00082
:103FC000FCF7D2FA2A4668462168FFF7E3F9009920
:103FD00001981029F6D1032804D00228F2D1FDF768
:103FE000EDFFEFE70A48FCF7BFFA2A46684621686A
:103FF000FFF7D0F9009901981029F6D10328F4D1E0
:10400000FCF7A4FA3EBD000060000020A0000020E4
:104010004C0400004368826801699A6083684268C2
:104020005A604A68824201D182684A600022026175
:104030000868401E08607047014608310022416050
:10404000D243C1608260016100210160704700219C
:104050000161704730B50B685A1C02D00246083225
:1040600002E0026904E02246546825689D42FAD9BC
:1040700053684B6099608A60516008610168491C0F
:10408000016030BD42684A6093688B6093685960F4
:10409000916008610168491C0160704772B604486C
:1040A0000168491C0160BFF34F8FBFF36F8F7047EA
:1040B0003801002005490868002804D0401E086027
:1040C00000D162B6704772B6FEE7000038010020EA
:1040D00070B500281AD004460D4D083C6068E968A8
:1040E000084201D172B6FEE72268002A01D072B6FA
:1040F000FEE78843606000F04DF960686968401829
:1041000068602046FFF766FC00F0FCFC70BD000014
:104110002001002010B506487D21C9000068FCF789
:104120001DF80449401E48610720086110BD0000C9
:10413000CC00002000E000E00120044900074860B6
:10414000BFF34F8FBFF36F8F7047000000ED00E0AB
:1041500010B5074B0022D4001C59002C03D0521C70
:10416000082AF8D310BDD2009950D118486010BD6C
:10417000F801002070B515460E460446FFF78EFF85
:1041800020464030042282560021521C00D1017189
:1041900005228256521C00D14171FFF78BFFA06BA4
:1041A000002805D120462A463146243000F034F854
:1041B0002046FFF771FD70BD10B502000FD0094811
:1041C000006B002801D072B6FEE700F0E3F8002192
:1041D0001046FFF767FA00F095FC002801D1FFF7C1
:1041E000ABFF10BDD000002001490120C86170471D
:1041F000D000002010B50C46002809D005490968F8
:104200001831FFF727FF01212046FFF74BFA10BDB9
:1042100072B6FEE7D000002070B514460D460028A7
:104220000DD0084909681831FFF72CFF002C01D088
:104230000025ED4321462846FFF734FA70BD72B6DB
:10424000FEE70000D000002070B5040025D0154D19
:10425000E06A2968C96A88421FD2A069002804DB85
:1042600028680721C06A081AA061E06A14220E4E6D
:10427000504361698019814210D1201DFFF7CAFEA9
:104280002868C06AE0622969884200D9286114213F
:1042900048438019211DFFF7F5FE70BD2868C06AEC
:1042A000E06270BDD000002038020020002805D058
:1042B00003490A6A0260C9684160704772B6FEE746
:1042C000D00000201CB51048002401902346402255
:1042D0000EA100940F4800F00DFB012803D100F05F
:1042E00089FC012803D0401C0CD172B6FEE772B6DF
:1042F00000210548C9432C38816201214161C46015
:1043000000F07CF81CBD0000FC00002049444C4536
:10431000000000004139000870B50446FFF7BEFEFA
:104320001A4D002C00D12C68201DFFF773FEA06AE7
:10433000002803D020461830FFF76CFE211D1448DA
:10434000FFF7A0FEFFF7B6FE6869002805D0FFF76B
:10435000A5FEFFF731FCFFF7ADFE2868844209D1C6
:104360006869002807D0286B002801D072B6FEE7E4
:10437000FFF7E2FE70BD0648A9680068884202D1D6
:104380000020286070BD00F00DF870BDD000002046
:10439000140300200248016B491C016370470000B0
:1043A000D000002010B51348016B002902D0012174
:1043B000C16110BD0021C16101690F4A02E00029FD
:1043C00015D0491E14234B43D358002BF7D0142388
:1043D0004B439A18536814465B6808345360A342F1
:1043E00001D15B685360DA680260016110BD72B68A
:1043F000FEE70000D00000203802002010B5094878
:10440000016AFF22120411430162016A1202114380
:104410000162FFF77FFE044900200860FBF754FEAD
:10442000002010BD00ED00E03801002070B50E4600
:10443000050014D0002E14D070434830FFF764FC00
:1044400004000AD0214648312046002E0BD00160DE
:1044500006640121C56300F0A4F8204670BD72B661
:10446000FEE70020E9E70060F2E7FFB5002583B032
:10447000040003D00498002802D006E072B6FEE7DC
:10448000206C002801D072B6FEE700F05BFA00262F
:10449000002804D10598002801D072B6FEE7FFF786
:1044A000FDFDA76B002F26D0E56820460499FFF795
:1044B000D1F90698002810D0E560606A002807D07E
:1044C0002046243000F0ECFA002801D0FFF734FE3B
:1044D000FFF7F0FD012007B0F0BD7F1EA763206845
:1044E000002802D1FFF768FC606020690028EFD047
:1044F00020461030E6E70598002802D0002D03D0B2
:1045000006E0FFF7D7FD27E06846FFF7CFFE01255D
:10451000FFF7D0FDFFF73EFFFFF7C0FD204640301C
:1045200004214156491C00D1067105214156491C00
:1045300000D14671FFF7BEFD05A9684600F0B0F94D
:10454000002820460AD0FFF7A7FB00F0DBFA204640
:10455000FFF782FA0028A2D00020BCE7FFF77CFA20
:10456000002818D02068002806D1FFF797FD606862
:10457000FFF76AFEFFF79EFD204624300599FFF7FE
:1045800039FE2046FFF788FB00F0BCFA002886D1F0
:10459000FFF7D2FD83E72046FFF77EFB00F0B2FA7B
:1045A0007DE770B50D46040025D0FFF777FD216C3F
:1045B000E06B48432168411861600021A1632168D4
:1045C000A160E06B216C401E484321684118E16006
:1045D0000021C94320464030017141713038002D1F
:1045E0000BD0FFF729FD20462430FFF725FDFFF70C
:1045F00061FD012070BD72B6FEE721690029F6D089
:1046000000F04EFA0028F2D0FFF796FDEFE7FFB575
:10461000002683B01D46040003D00498002802D071
:1046200006E072B6FEE7206C002801D072B6FEE705
:10463000022D04D1E06B012801D072B6FEE700F034
:1046400081F90027002804D10598002801D072B60E
:10465000FEE7FFF723FDA06BE16B884207D3022D35
:1046600005D00598002817D0002E18D01BE02A4648
:1046700020460499FFF701F9616A002903D020461A
:10468000243000F00DFA002801D0FFF755FDFFF7A8
:1046900011FD012007B0F0BDFFF70CFD22E06846D8
:1046A000FFF704FE0126FFF705FDFFF773FEFFF796
:1046B000F5FC2046403004214156491C00D10771C9
:1046C00005214156491C00D14771FFF7F3FC05A9AC
:1046D000684600F0E5F8002806D02046FFF7DCFA2F
:1046E00000F010FA0020D5E7FFF7D8FCA06BE16BD3
:1046F000884210D1FFF7DEFC204610300599FFF705
:1047000079FD2046FFF7C8FA00F0FCF90028A0D197
:10471000FFF712FD9DE7FFF7CDFC2046FFF7BCFA3F
:1047200000F0F0F995E7FFB581B01E46040003D014
:104730000298002802D006E072B6FEE7206C00283E
:1047400001D072B6FEE7022E04D1E06B012801D041
:1047500072B6FEE7FBF7CCFC0090A06BE16B8842E1
:1047600008D3022E06D000240098FBF7C5FC204693
:1047700005B0F0BD20464030052545570746324676
:1047800020460299FFF779F8681C03D06D1C7D71F3
:104790000124E9E7606A0028FAD02046243000F0BE
:1047A0007FF90028F4D003980028F1D0012101609E
:1047B000EEE770B50D46040004D0206C002803D04D
:1047C00072B6FEE772B6FEE72068002804D1606882
:1047D000002801D072B6FEE7FBF78AFCA26B064602
:1047E000E06B904219D92146403105200856521CF1
:1047F000A263421C03D0401C487101240EE0606A91
:104800000028FAD02046243000F04AF90028F4D0DD
:10481000002DF2D001202860EFE700243046FBF79E
:104820006BFC204670BDF7B582B0040003D003983E
:10483000002802D006E072B6FEE7206C002801D006
:1048400072B6FEE7FBF754FC0090A66B002E1FD05B
:104850002046403004254557074620460399FEF779
:10486000F9FF761EA663681C03D06D1C3D71012400
:104870000FE020690028FAD02046103000F010F92F
:104880000028F4D004980028F1D001210160EEE75F
:1048900000240098FBF730FC204605B0F0BD000076
:1048A00070B50D4604001AD0002D1AD0FFF7F6FBA4
:1048B0000F4AD1682868431C0FD02368126A9342BC
:1048C00002D062688A420ED96268891A81420AD28D
:1048D000401A28602046FFF7E9FC002404E072B685
:1048E000FEE772B6FEE70124FFF7E4FB204670BD49
:1048F000D0000020FFB585B0164690000F9FFFF74F
:1049000003FA05001AD05420FFF7FEF9040012D074
:10491000256300210E98039101970090029432467E
:10492000089B06990598FFF717F82046FEF7E6FE64
:10493000012009B0F0BD2846FFF7CAFB0020C043A4
:10494000F7E7000006484169002904D0006B002801
:1049500003D00020704701207047022070470000FC
:10496000D00000200148C06870470000D00000203F
:104970000148C06870470000D0000020F8B52C4CFA
:104980000027206B002808D0A069401CA061E069C6
:10499000002800D001273846F8BDE668761CE6609E
:1049A0000ED1606B0068002801D072B6FEE7606B24
:1049B000A16B6163A063206A401C2062FFF7FCF8D2
:1049C000A06A86420AD3606B0068002810D0606B32
:1049D000C068C568686886420DD2A062206814214C
:1049E000C06A4843134908580128D0D90127CEE7A7
:1049F0000020C043F1E7281DFFF70CFBA86A002840
:104A000003D028461830FFF705FBE86A2169884281
:104A100000D920611421484306494018291DFFF799
:104A200031FBE86A2168C96A8842CCD30127CAE70A
:104A3000D00000203802002070B500210446002874
:104A400028D0154D2868844201D072B6FEE7A06CCC
:104A5000002808D0401EA064636CE26A9A4219D014
:104A6000002802D016E072B6FEE7201DFFF7D2FA4A
:104A7000606C0721E062081AA061E06A2969884237
:104A800000D928611421484304494018211DFFF72B
:104A9000F9FA0121084670BDD0000020380200203C
:104AA00070B5C068C468002C0BD02046183006468C
:104AB000FFF7B0FA114D286B002804D0314610489A
:104AC0000FE072B6FEE7201DFFF7A4FAE06A29693D
:104AD000884200D92861142148430949B439401853
:104AE000211DFFF7CFFAE06A2968C96A884202D916
:104AF0000120E86170BD002070BD0000D0000020E2
:104B0000EC020020F8B5284C0025206B2E4600282A
:104B100008D0FFF7C3FA206B401E2063206B0028EB
:104B200002D03DE072B6FEE7A168204F00291DD1FA
:104B300036E0F868C56828461830FFF76BFA281D7C
:104B4000FFF768FAE86A2169884200D920611421D8
:104B500048431649B4394018291DFFF793FAE86A0B
:104B60002168C96A884201D30120E06138680028C1
:104B7000DFD1002D01D0FFF71FF8A569002D09D066
:104B80000127FFF7FBFE002800D0E7616D1EF8D17A
:104B90000020A061E069002802D00126FFF7CCFACE
:104BA000FFF788FA3046F8BDD0000020EC02002064
:104BB000FFB5074683B016460D462820FFF7A4F838
:104BC000040011D00197069F0C980090002D0ED084
:104BD000FEF7F0FD0198206020461830E0C00098F4
:104BE0006062201DFFF733FA204607B0F0BD72B6B1
:104BF000FEE700001CB5FEF7DDFD0A48006800284E
:104C00000CD008490220091D019100900023802248
:104C100005A10748FFF76EFE002801D172B6FEE736
:104C20001CBD00000C010020546D722053766300FF
:104C3000753C0008FEB51D4603460020089E002B6B
:104C400012D00F4C2768002F0DD068460EC00629E1
:104C50000FDAFFF777FE022808D000231A466946CC
:104C60002068FFF7D4FCFEBD72B6FEE70023324693
:104C7000F5E700232A4669463846FFF754FDFEBD96
:104C80000C010020081C304458081C304458000017
:104C9000ED2D000809300008592F0008F13D0008EB
:104CA000F13E0008081C30445800000002000000DB
:104CB00001000000060000000100000003000000E9
:104CC000010000001000000001000000604D00081D
:104CD0001522000800000000000000006400000031
:104CE000484D0008252300080200000000000000D5
:104CF00040000000504D0008B127000800000000EF
:104D000000000000400000003C4D0008D9200008D1
:104D1000FEFF00000000000040000000081C3044BE
:104D2000580000000000000000010203040607080C
:104D300009000000000102030400000063745265D2
:104D4000636F72640000000052435461736B000093
:104D5000636C6F736573746F6F6C5461736B000079
:104D600064656661756C745461736B002CFC00089B
:104D7000000000203C0100001802000850FC000860
:104D80003C010020B4150000DE2D000800000000EA
:104D90000000000000000000000000000000000013
:104DA0000000000000000000000000000000000003
:104DB00000000000000000000000000000000000F3
:104DC00000000000000000000000000000000000E3
:10FC000023000000030000000A00000005000000BF
:10FC10000200000001000000010000003435000077
:10FC200001000000000000000000000081543301CA
:10FC30001E02161F73F401721EE2010A840D0F10DA
:10FC40000E0F0C0E0F0C036A127A15AAAAAAAA00AC
:04000005080000B53A
:00000001FF
