:020000040800F2
:1000000000200020F9320008593100085B31000857
:1000100000000000000000000000000000000000E0
:1000200000000000000000000000000005140008AF
:10003000000000000000000071140008B514000862
:100040004933000800000000493300084933000824
:100050004933000849330008493300084933000890
:100060000000000049330008493300084933000804
:1000700049330008493300084933000800000000F4
:1000800049330008493300080000000049330008E4
:1000900049330008493300085D310008493300083E
:1000A0004933000849330008493300086D3100081E
:1000B0007D3100080000000000000000000000008A
:1000C00010B5064C2378002B07D1054B002B02D02E
:1000D000044800E000BF0123237010BD840000200D
:1000E0000000000028420008044B10B5002B03D08C
:1000F0000349044800E000BF10BDC04600000000F6
:100100008800002028420008002243088B4274D354
:1001100003098B425FD3030A8B4244D3030B8B4208
:1001200028D3030C8B420DD3FF22090212BA030C11
:100130008B4202D31212090265D0030B8B4219D3F2
:1001400000E0090AC30B8B4201D3CB03C01A524112
:10015000830B8B4201D38B03C01A5241430B8B425A
:1001600001D34B03C01A5241030B8B4201D30B0343
:10017000C01A5241C30A8B4201D3CB02C01A52416A
:10018000830A8B4201D38B02C01A5241430A8B422D
:1001900001D34B02C01A5241030A8B4201D30B0216
:1001A000C01A5241CDD2C3098B4201D3CB01C01A30
:1001B000524183098B4201D38B01C01A524143093A
:1001C0008B4201D34B01C01A524103098B4201D328
:1001D0000B01C01A5241C3088B4201D3CB00C01A95
:1001E000524183088B4201D38B00C01A524143080D
:1001F0008B4201D34B00C01A5241411A00D2014632
:10020000524110467047FFE701B5002000F006F8A4
:1002100002BDC0460029F7D076E770477047C04658
:100220001023064A10B5116800200B43136002F03A
:1002300055FF02F009FF002010BDC046002002401B
:10024000024A1368013313607047C046A4120020AD
:10025000014B18687047C046A4120020F8B504008E
:100260000120002C72D0636C002B06D1220040329A
:10027000A3642000137002F003FF636CDB0600D55B
:1002800079E0042223689868104000D073E0626C23
:100290004249114002220A43032162649A680A40DB
:1002A000012A00D06DE01968114202D1DA68120407
:1002B00067D5DA683A49256A0A40DA60A2696F03AD
:1002C0009103E269D2031143626B013A561EB241B7
:1002D0001603E268114322690F43022A00D1042069
:1002E000226B616A52003A4332430243012904D12E
:1002F000002D2CD1802149020A43C220A16AFF307F
:10030000814202D0E06A01430A438020D968400557
:100310001143D960A16B814202D0481E062807D83C
:10032000072558692940A843586158690143596114
:10033000DB681C490B409A4211D100200322A064C3
:10034000636C93431A00012313436364F8BD2020B8
:10035000656C28436064A06C0143A164CDE7122260
:10036000636C012093431A00102313436364A36C4E
:100370000343A364EAE71023626C01201343636420
:10038000E4E71821DA688A43A1680A43DA60196948
:10039000626889008908114319618AE7FDFEFFFF41
:1003A0001902FEFFE7FF3F83F7B500230400019326
:1003B0004034237805000220012B2BD001232A682A
:1003C000AE6B90682370400752D42C484F680D687C
:1003D00087423BD0AB4018008023976A5B053843C7
:1003E00090629E420FD0013E062E0CD98B680721E9
:1003F00050690840834206D050690B4088435061E1
:100400005069034353612B00103B012B03D900209B
:1004100000232370FEBD1A4B80221968102D13D0C3
:10042000D2030A431A60102DF1D1164B16491868F1
:10043000FFF76AFE0A2358430190019B002BE6D088
:10044000019B013B0193F8E71204EAE7AB40916A94
:1004500099432B00103B9162012BD8D8084B1A68A6
:10046000102D03D009490A401A60D0E70849FAE77D
:100470002022696C18000A436A64C9E70110000071
:10048000082701400400002040420F00FFFFBFFF8B
:10049000FFFF7FFF70B58901002814DA0F23C0B277
:1004A0000340083B114A9B089B009B180322104005
:1004B0009040FC321500114085408140DC69AC431E
:1004C0002143D96170BD032583082840A840FC352D
:1004D0002E00074A9B009B18C0228640294081407D
:1004E00092009C58B44321439950EBE700ED00E0A3
:1004F00000E100E01F2318401E3B8340014A1360C7
:100500007047C04600E100E0F0B50B6887B0029389
:1005100000230191029ADA4001D107B0F0BD012217
:100520009A4003920399029A0A40009200D18CE00B
:10053000019A1021526816008E43022E0ED1072513
:100540001D40AD000139A940DC08A4000419276A48
:100550008F4301990969A9400F43276203245F0073
:10056000BC40E4430568013E2540AC4603251540E8
:10057000BD4061460D430560012E0FD80199866884
:10058000CD682640BD40354385604668039915090E
:100590008E4301210D409D4035434560C56801995A
:1005A0002C408D688021BD4049052C43C4600A421F
:1005B0004BD00121264C0326A5691E400D43A561A1
:1005C000A4699D080C400594059C0F242149AD00A9
:1005D000B6006D18B4409021AF68C905A743002448
:1005E00088420CD01C490134884208D01B49013490
:1005F000884204D01A490334884200D1023CB440F6
:1006000000993C430E00AC60164CCD4327683E4336
:10061000D10301D43E002E4026606768009E3E4311
:10062000910301D43E002E406660A768009E3E43C1
:10063000D10201D43E002E40A660E668009F3743F9
:10064000920201D42E403700E760013362E7C046D2
:10065000001002400000014000040048000800486B
:10066000000C004800040140F0B5036885B00500A7
:10067000DB072FD42B689B0700D581E02B681B0775
:1006800000D5BCE02B685B0700D5DFE02B68DB06FC
:100690001AD56A69B54C0423012A00D04BE1616B7D
:1006A00002260B436363636B1A436263FFF7D0FD5B
:1006B0000700636B334200D136E1F821626BAB690E
:1006C0008A43DB0013436363296A002900D059E1A0
:1006D000002013E00C21A54C62680A40042A06D0D1
:1006E00063680B40082B0BD16368DB0308D52368D4
:1006F0009B03BFD56B68002BBCD1012005B0F0BDBA
:100700006B68012B13D1802322685B0213432360A3
:10071000FFF79EFD80260700B60223683342A9D169
:10072000FFF796FDC01B6428F7D90320E6E7002BEE
:1007300016D123688E4A80261340236023688D4A91
:10074000B60213402360FFF783FD0700236833429E
:1007500000D18FE7FFF77CFDC01B6428F6D9E4E7E2
:10076000052B05D180232268DB0213432360CAE7EF
:1007700023687F4A1340236023687E4A1340C6E7FC
:100780000C227A4C6368134206D063681340082B2E
:1007900010D16368DB030DD423689B0702D5EB6897
:1007A000012BAAD1F82122682B698A43DB0013436D
:1007B000236063E7EA680123002A0FD0226802263B
:1007C00013432360FFF744FD070023683342E9D158
:1007D000FFF73EFDC01B0228F7D9A6E722680226D4
:1007E0009A432260FFF734FD07002368334200D1AB
:1007F00044E7FFF72DFDC01B0228F6D995E7EA690B
:1008000001235A4C002A10D0626A02261343636205
:10081000FFF71EFD0700636A334200D032E7FFF79F
:1008200017FDC01B0228F6D97FE7626A02269A43A9
:100830006262FFF70DFD0700636A334200D121E7D2
:10084000FFF706FDC01B0228F6D96EE780220021C3
:10085000464C5205E3690091134208D1E369134302
:10086000E361E36913400393039B01230093802713
:10087000414E7F0033683B4206D0AB68012B13D159
:10088000226A1343236230E033683B433360FFF74F
:10089000DFFC019033683B42EFD1FFF7D9FC019BAD
:1008A000C01A6428F6D940E70122002B14D1236A2C
:1008B000022793432362236A033293432362FFF7A1
:1008C000C7FC0600236A3B4225D0FFF7C1FC2B4B37
:1008D000801B9842F6D928E7052B0BD1216A013BF2
:1008E0000B432362236A1A432262FFF7B1FC0227FB
:1008F00006000DE0236A934304222362236A934394
:10090000C0E7FFF7A5FC1D4B801B984200D90CE700
:10091000236A3B42F5D0009B012B00D0B6E6E36989
:10092000174A1340E361B1E6FFF792FCC01B0228AF
:1009300000D8BEE6F9E6053203D1626B9A436263E2
:10094000BBE6626B0226134301226363636B93432E
:100950006363FFF77DFC0700636B334200D1B3E6AE
:10096000FFF776FCC01B0228F6D9DEE60010024035
:10097000FFFFFEFFFFFFFBFF007000408813000039
:10098000FFFFFFEF0C22264C012063681340082B69
:1009900000D1B3E62368234A1340236002292FD1F4
:1009A000FFF756FC80260700B6042368334221D1A6
:1009B0000F22E36A9343EA6A1343E362696AAB6A0C
:1009C00062680B43184980250A4013436360802303
:1009D00022685B0413432360FFF73AFC0600AD0472
:1009E00023682B4200D073E6FFF732FC801B0228FD
:1009F000F6D99AE6FFF72CFCC01B0228D5D994E65D
:100A0000FFF726FC80250600AD0423682B4200D1A9
:100A10005EE6FFF71DFC801B0228F6D985E6C0467E
:100A200000100240FFFFFFFEFFFFC2FF70B5144C35
:100A300088B010222100684602F0B2FC210004AD0B
:100A400010221031280002F0ABFC0C220D4E73680E
:100A50001A40082A11D10F206A46990C0140545CB3
:100A6000F26A0240A95CDB0305D50748FFF74CFB9F
:100A7000604308B070BD0548FAE70348F9E7C0468F
:100A8000404200080010024000127A0000093D00B8
:100A9000F7B50122434C060023680F0013408B4238
:100AA0001CD33268930723D4D30729D401232268A7
:100AB0001A40974267D333683B4C5B076AD4FFF711
:100AC000B5FF6368394A1B061B0FD35CD840384B0F
:100AD0001860002002F002FB002008E02368934326
:100AE0000B432360236813409942DAD00120FEBDF6
:100AF000F0202D494B688343B06803434B60D3E734
:100B0000294D72682B68012A1AD19B03EED5032167
:100B10006B688B4313436B60FFF79AFB736801901C
:100B2000012B15D10C226B681340042BBED0FFF7AC
:100B30008FFB019BC01A1F4B9842F3D90320D6E7C5
:100B4000022A02D19B01E2D4D0E79B07DFD4CDE794
:100B5000022B12D00C226B681342A7D0FFF778FB50
:100B6000019BC01A134B9842F4D9E7E7FFF770FBDB
:100B7000019BC01A0F4B9842E0D80C226B681340BF
:100B8000082BF3D192E722689A43226022681A4226
:100B9000ACD190E76368084A1340F268134363607E
:100BA0008DE7C0460020024000100240CF420008FE
:100BB0000400002088130000FFF8FFFF044B054AE3
:100BC0005B685B055B0FD35C034A1068D8407047D5
:100BD00000100240DF42000804000020072310B587
:100BE00003240360094B5A68224042605A68ED347E
:100BF00022408260E0225B68D20013400122C36081
:100C0000034B1B6813400B6010BDC0460010024030
:100C100000200240F0B5036885B00500DB0328D54D
:100C200080220021374C5205E3690091134208D11C
:100C3000E3691343E361E36913400393039B0123D7
:100C400000938027304E7F0033683B4226D0C0227D
:100C5000236A920013402D4E32D1236A1E406B68E6
:100C60001E43009B2662012B03D1E369284A1340EF
:100C7000E3612A68D30706D5032022490B6B83431F
:100C8000A86803430B630020930617D510211D4A63
:100C9000136B8B43E9680B4313630FE033683B43EB
:100CA0003360FFF7D5FA019033683B42CFD1FFF7AD
:100CB000CFFA019BC01A6428F6D9032005B0F0BD15
:100CC00069680A409342C8D08023226A206A1100D2
:100CD0005B0203432362236A0E48314003402362D0
:100CE0002162D307B9D5FFF7B3FA07000222236ABE
:100CF0001342B2D1FFF7ACFA074BC01B9842F5D9AB
:100D0000DBE7C0460010024000700040FFFCFFFF20
:100D1000FFFFFFEFFFFFFEFF881300007047012277
:100D20000368D96800201143D96019680A431A6022
:100D3000704770477047704770470222036810B5CC
:100D40001969040011420ED0D96811420BD0053A3E
:100D50001A619B69043202779B0700D179E0FFF7A3
:100D6000E9FF00232377042223681969114210D078
:100D7000D96811420DD0093A1A61073222779A696F
:100D8000C0239B0020001A4269D0FFF7D3FF002345
:100D9000237708222368196911420ED0D9681142BD
:100DA0000BD0113A1A61DB690D32227720009B07C4
:100DB0005BD0FFF7BFFF0023237710222368196958
:100DC000114210D0D96811420DD0213A1A6119325E
:100DD0002277DA69C0239B0020001A424BD0FFF72C
:100DE000A9FF00232377012223681969114207D044
:100DF000D968114204D0033A1A61200002F0BEF80B
:100E0000802223681969114208D0D968114205D09F
:100E1000023AFF3A1A61200000F098F84022236855
:100E20001969114207D0D968114204D0813A1A6178
:100E30002000FFF781FF202223681969114207D0A3
:100E4000D968114204D0413A1A61200000F07DF8BF
:100E500010BDFFF76EFF2000FFF76DFF81E7FFF782
:100E600068FF2000FFF767FF91E7FFF762FF2000B0
:100E7000FFF761FF9FE7FFF75CFF2000FFF75BFFD5
:100E8000AFE700001C4A10B50368904202D01B4C2B
:100E9000A04208D17024A3434C68234390420ED053
:100EA000164CA0420BD0164CA04208D0154CA042C4
:100EB00005D0154CA04202D0144CA04203D1144CD2
:100EC0002340CC6823438024A3434C69234303601D
:100ED0008B68C3620B688362904208D0094B9842CA
:100EE00005D0094B984202D0084B984201D10B69BA
:100EF00003630123436110BD002C01400004004046
:100F000000200040004001400044014000480140F2
:100F1000FFFCFFFF70B504000120002C14D0250059
:100F20003D352B78DBB2002B05D122003C3213700B
:100F30002000FFF7F3FE022320682B70211DFFF72E
:100F4000A1FF012300202B7070BD70477047F0B5E2
:100F500000260F6885B03B00F3400CD14B68013B85
:100F6000012B05D8CA6843687A43BB4313434360E7
:100F7000012005B0F0BD0123B3403B4036D04A68A4
:100F8000032501921A005A435543ED430468029524
:100F90002C40019D55432C430460019C013C012CD5
:100FA0000AD88468A44665468C6854430394029C1E
:100FB0002540039C2C438460C468A44665460C69A4
:100FC00054430394029C2C402500039C2543019C20
:100FD000C560022C0AD14C69FF2B09D80F2552435A
:100FE00055436243036AAB43134303620136B2E7DE
:100FF0000F221B0A5B435B435A436343456A954395
:101000001D434562F2E70000034B044A5B681B0680
:101010001B0FD35CD840704700100240CF4200083D
:10102000034B044A5B685B055B0FD35CD840704799
:1010300000100240DF420008094B70B55A68D20325
:101040000CD508480F25D96A5C6829400131FFF7A3
:101050005BF8A40C2C400234604370BD0248F1E7F9
:101060000010024000127A0000093D000C22054BDE
:1010700010B55B681340082B02D1FFF7DDFF10BDF0
:101080000148FCE70010024000127A0010B504008D
:10109000FFF7ECFF2060FFF7B7FF6060FFF7C0FFCE
:1010A000A06010BD10B500281ED103210F4A136B9C
:1010B0000B40022B0BD08B4204D0012B0DD1FFF73C
:1010C000D5FF10BD13689B07FBD50948F9E7126AE5
:1010D0001A42F6D080200002F3E7FFF7C7FFFFF7C0
:1010E00093FFFFF79DFFECE70020EAE700100240C6
:1010F00000127A0030B503680400012085B00D00AD
:10110000184002D0002005B030BD4B68C968226885
:101110000B4329690B43A9690B431C490A4013433C
:10112000236063681A4A1340AA6813436360A36884
:10113000184A13406A691343A360174B9C4218D1A5
:10114000FFF7B0FF0028DDD029680029DAD080221F
:10115000AD6912024B08954213D14000C018FEF74A
:10116000D3FF0E4B03400007400F1843E0600120FF
:10117000C9E70B4B9C42C5D101A8FFF787FF039835
:10118000E0E71818FEF7C0FF80B2EFE7F369FFFF52
:10119000FFCFFFFFFFFCFFFF00380140F0FF000022
:1011A0000044004030B501240E4B5D7AA54216D8AC
:1011B00000245D7AEDB25C555D7AAD005D19686022
:1011C000587A181802725A7AD2B2501CC0B25872A9
:1011D0003A2330324B700B3B0A708B70CC7020007E
:1011E00030BDC046A000002010B50022FFF7DAFF96
:1011F00010BD10B500F07CFE002010BD7FB50B00C7
:1012000046680168028A0825455F0024842D00D0C5
:10121000EC1C03A801900094300000F0A5FD002311
:10122000012800D1039B180004B070BD10B5002840
:1012300000D1013000F07EFF002010BD07B501395C
:1012400013004A4251410268034800920A000121FA
:1012500001F092F90EBDC0465143000810B50800D8
:10126000002401290AD12100032200F0E0FA041E23
:1012700004D000231A00190000F0F6FA200010BD77
:1012800013B500240A0001948023A0420AD0EFF392
:101290000581A14211D001AA210000F0A0FC012883
:1012A00002D0FF23180016BD019B002B03D0802223
:1012B000054B52051A600023F4E70B0000F0E9FB30
:1012C0000128EED1F7E7C04604ED00E013B5002495
:1012D0000194EFF30581A1420ED001A900F09CFB1F
:1012E00001280FD1019BA34201D1002016BD80220D
:1012F000054B52051A60F8E70B000A0000F0B4FA3B
:101300000128F2D0FF20F1E704ED00E010B54168BC
:101310000022006800F08BFA10BD030001220833A0
:101320004360C360036100235242826003607047E0
:1013300000230361704743689A684B608A609A682B
:1013400051609960036808610133036070470300CE
:101350000A6830B50833541C0BD103695A684A60D7
:1013600091608B605960036808610133036030BD90
:1013700023005C682568AA42FAD2EFE741688268D8
:1013800003698A60826851605968884200D15A6056
:10139000002202611A68501E18607047034B1B68D8
:1013A000013301D072B6FEE772B6FEE700000020FE
:1013B0000B4A13681868203080F30988022080F3F4
:1013C0001488BFF36F8F3FBCAE4608BC04BC62B646
:1013D0001847C046C046C046C046C046C046C04684
:1013E0002C11002010B58024031F64041C60043BF2
:1013F00019600349043B1960143B40381A6010BD62
:101400009D130008704700008022044B52051A60AB
:10141000BFF34F8FBFF36F8F7047C04604ED00E0FE
:1014200072B6044A136801331360BFF34F8FBFF3E2
:101430006F8F704700000020054A1368002B01D110
:1014400072B6FEE7013B1360002B00D162B6704715
:1014500000000020EFF3108072B67047002080F388
:10146000108870470000000000000000000000002D
:10147000EFF309800E4B1A6820381060F0C0444624
:101480004D4656465F46F0C008B572B600F0A0FE65
:1014900062B60CBC116808681030F0C8A046A946B6
:1014A000B246BB4680F309882038F0C81847C046CA
:1014B0002C11002010B5FFF7CDFF040000F054FD03
:1014C000002803D08022034B52051A602000FFF74A
:1014D000C6FF10BD04ED00E0FA21064B10B51868F8
:1014E0008900FEF711FE0722034B01381860034BF9
:1014F0001A6010BD0400002014E000E010E000E0DD
:10150000FF220A4B1204196810B50A431A60FF2221
:10151000196812060A431A60FFF7DEFF0022044B27
:101520001A60FFF745FFFFF739FFC04620ED00E0E6
:101530000000002010B50F4B1A68824218D35C6877
:101540001919884203D14168180009195960416886
:101550004418A24207D1084C2468A24203D0546820
:101560001268611841600260984200D0186010BD96
:101570001300E1E724110020AC000020F8B50400BE
:1015800000F0E4FC374A38481368002B1DD1374976
:101590000733194235D0CD189D43354BC9184B1B25
:1015A00029000025334ECB18756031600726083BB3
:1015B000B3431D605D605D1A136028C12E4B1D6032
:1015C0002E4B1D6080231B0603600668344216D133
:1015D000002C14D02300072108330B4201D08B4389
:1015E0000833002B0BD025490D68AB4207D82149A1
:1015F0000C686068834206D8126894420AD10025BC
:1016000027E01B4BCDE72768BC46002FF4D0210014
:101610006446EEE70A68170022680A60C21A102AB8
:1016200008D9E018410701D072B6FEE74260636056
:10163000FFF780FF6368114AED1A15600E4A1168C2
:101640008D4200D215601E433D00002308356660C0
:10165000236000F007FD6B0701D072B6FEE728009B
:10166000F8BDC046AC00002018110020B0000020DA
:101670006810000024110020201100201C110020FF
:1016800010B500281BD00E4A0838436812680400C1
:101690001A4201D172B6FEE70168002901D072B684
:1016A000FEE79343436000F051FC064A636811680B
:1016B00020005B181360FFF73DFF00F0D3FC10BD66
:1016C000181100201C11002070B51600026C0400D7
:1016D000856B002A0AD106681000002E03D16068CD
:1016E00000F09EFE66600135A56370BD002E0DD131
:1016F000806801F055FEA368226C30009B18626878
:10170000A3609342EFD32368A360ECE7C06801F0C5
:1017100047FE236CE2685B422168D218E2608A428D
:1017200002D26268D318E3600020022EDBD12B00C6
:101730005A1E9341ED1AD6E703001A6C10B5080043
:10174000002A0AD0D9685C688918D960A14201D3FF
:101750001968D960D96801F023FE10BD70B5050085
:101760002E004536FFF75CFE347864B2002C10DCA6
:10177000FF2333702E004436FFF75EFEFFF750FE66
:10178000347864B2002C11DCFF233370FFF754FE71
:1017900070BD6B6A002BEBD02800243000F078FD80
:1017A000002801D000F0F0FD013CDEE72B69002BA2
:1017B000EAD02800103000F06BFD002801D000F0C6
:1017C000E3FD013CDDE770B504000D00002801D108
:1017D00072B6FEE7FFF724FE216CE36B22684B43F1
:1017E000D0185B1AD318E36023006060A260002069
:1017F000FF224433A0631A705A7085420ED12369C8
:10180000834207D02000103000F042FD002801D0B4
:10181000FFF7FAFDFFF710FE012070BD2000103029
:10182000FFF77BFD20002430FFF777FDF2E770B56E
:1018300006000D00002801D172B6FEE708007043D3
:101840004830FFF79BFE041E08D0002D08D1206011
:10185000E663256401212000FFF7B5FF200070BD7D
:10186000030048330360F3E7F0B585B0040000914E
:1018700001921D00002801D172B6FEE7009B002BEB
:1018800000D06FE0036C002B00D16BE072B6FEE776
:10189000019E002E03D1FFF7CFFD002054E0002F62
:1018A00002D102A800F030FDFFF7C6FD00F04EFBAC
:1018B000FFF7B6FD2200443213785BB2013301D149
:1018C000002313702200453213785BB2013301D13B
:1018D00000231370FFF7B0FD01A902A800F024FD5A
:1018E000002839D1FFF79CFDA76BE66BFFF7A4FD3D
:1018F000B7422BD120000199103000F09FFC20004E
:10190000FFF72CFF00F0AEFB002801D1FFF77CFDB4
:101910000127FFF785FDA36BE26B934201D3022DF4
:10192000B6D12A0000992000FFF7CEFE636A002B93
:1019300003D02000243000F0ABFC002801D0FFF7DA
:1019400063FDFFF779FD012005B0F0BD2000FFF732
:1019500005FF00F087FBDBE72000FFF7FFFE00F04C
:1019600081FB9AE7022D02D1E36B012B09D100F034
:1019700011FD00270028CCD1019F002FC9D072B6DD
:10198000FEE772B6FEE7F0B585B0040001911700DE
:101990001E00002801D172B6FEE7019B002B19D171
:1019A000036C002B16D072B6FEE72000243000F046
:1019B0006FFC00282CD0002F2AD001253D60039811
:1019C000FFF74DFD280005B0F0BD0135029B6DB25B
:1019D0001D701DE0022E02D1E36B012B1AD1FFF71F
:1019E00039FDA36BE26B0390934202D30025022ED4
:1019F000E5D12300453302931D7832006DB2019981
:101A00002000FFF761FE6B1CDFD1636A002BCCD195
:101A10000125D4E772B6FEE770B504000E00002879
:101A200001D172B6FEE7036C002B01D072B6FEE75F
:101A30000368002B02D14368002B28D1FFF70AFD71
:101A4000A26BE36B05009A4201D3002416E021004B
:101A500045310B7801325BB2A2635A1C13D1636A21
:101A6000002B01D1012409E02000243000F010FCFB
:101A70000028F7D0002EF5D0012434602800FFF7AD
:101A8000EEFC200070BD01335BB20B70EAE772B66A
:101A9000FEE7F0B585B004000F0001920093002826
:101AA00001D172B6FEE7002900D08EE0036C002B56
:101AB00000D18AE072B6FEE7636AE660002B6CD064
:101AC0002000243063E0019D002D03D1FFF7B4FC1A
:101AD000280065E0002E02D102A800F015FCFFF7F7
:101AE000ABFC00F033FAFFF79BFC22004432137882
:101AF0005BB2013301D10023137022004532137809
:101B00005BB2013301D100231370FFF795FC01A9EB
:101B100002A800F009FC00284AD1FFF781FCA56B60
:101B2000FFF78AFC002D3DD12368002B06D1FFF77B
:101B300077FC606800F03EFCFFF77EFC2000019916
:101B4000243000F07BFB2000FFF708FE00F08AFA4B
:101B5000002801D1FFF758FC0126FFF761FCA56BB7
:101B6000002DB0D039002000E668FFF7E5FD009BAE
:101B7000002BA1D12368013DA563002B02D100F009
:101B800085FC60602369002B07D02000103000F036
:101B90007FFB002801D0FFF737FCFFF74DFC012049
:101BA00005B0F0BD2000FFF7D9FD00F05BFAD3E7E8
:101BB0002000FFF7D3FD00F055FAFFF731FCA56BCD
:101BC000FFF73AFC002DC7D182E700F0E3FB0026C7
:101BD0000028C2D1019E002EBFD072B6FEE7F0B53C
:101BE000050085B00F001600002801D172B6FEE78F
:101BF00000291AD1036C002B17D072B6FEE728001B
:101C0000103000F045FB002827D0002E25D00124FD
:101C100034600398FFF723FC200005B0F0BD019B62
:101C2000029A01335BB2137017E0FFF713FCAC6B41
:101C30000390002CEDD02B00443302931B78390025
:101C40005BB228000193FFF777FD019B013CAC6379
:101C50000133E4D12B69002BD1D10124D9E7000055
:101C6000002370B5064ADD00AC182668002E02D1AC
:101C7000A950606070BD0133082BF4D1FAE7C0466B
:101C8000A812002070B5040016000D00FFF7C8FB75
:101C90002200443213785BB2013301D10023137068
:101CA0002200453213785BB2013301D10023137057
:101CB000FFF7C2FBA36B002B05D1200032002900E7
:101CC000243000F0CDFA2000FFF748FD70BD000081
:101CD000074A13681968074B002903D101225242B1
:101CE0001A6070471268D268D2685268F8E7C04636
:101CF0003011002008120020F8B50400144B154DD7
:101D00001E6828680F000430FFF738FB631C07D1FA
:101D1000002F05D0296810480431FFF70CFBF8BDEF
:101D20002B6834195C60A64206D90C4B18682968E8
:101D30000431FFF70CFBF2E7094B186829680431FE
:101D4000FFF705FB074B1A689442E8D21C60E6E7F0
:101D5000501200202C1100202812002034110020E5
:101D60003011002008120020F0B5950085B00290D7
:101D700028000F000393FFF701FC061E00D18EE040
:101D80005420FFF7FBFB041E00D185E00723043D30
:101D9000066376199E43002300961A00F95C3432DC
:101DA000A154FA5C002A02D00133102BF5D1230094
:101DB00000250A9E43331D70062E00D90626231DDA
:101DC0001800E6626664A5640193FFF7B1FA20008B
:101DD0001830FFF7ADFA07239E1B23005033246110
:101DE000A6616462E564039A1D7002990098FFF78A
:101DF000F9FA0B9B2060002B00D01C60FFF710FB52
:101E00002E4B2F4D1A6801321A602A68002A49D1D8
:101E10002C601B68012B1DD12A4E37008C373000F7
:101E20001436FFF77AFAB742F9D1274E3000FFF7A0
:101E300074FA264F3800FFF770FA2548FFF76DFA5D
:101E40002448FFF76AFA2448FFF767FA234B1E601D
:101E5000234B1F60234A136801331360224AE36A4D
:101E600011688B4200D9136014205843154B019917
:101E70001818FFF760FAFFF7DFFA1C4B01261B6802
:101E8000002B06D02B68DA6AE36A9A4201D2FFF788
:101E9000BBFA300005B0F0BD3000FFF7F1FB0126C2
:101EA0007642F6E7114B1B68002BD3D12B68E26A10
:101EB000DB6A9342CED82C60CCE7C046C411002028
:101EC0002C11002038110020DC110020F01100201E
:101ED000101200203C120020281200203011002097
:101EE00034110020D4110020D81100202412002029
:101EF00013B500240F4B00940193402223000E4998
:101F00000E48FFF731FF01280FD100F017FB012821
:101F10000BD172B601220A4B52421A60094B18606B
:101F2000094B1C60FFF7ECFA13BD431CFCD172B6E1
:101F3000FEE7C0460412002098420008692100080C
:101F4000081200202412002050120020024A1368B8
:101F5000013313607047C046D0110020014B186850
:101F60007047C04650120020334BF7B51B68002B5A
:101F700035D1324B1C6801341C60002C11D1304B20
:101F80001A681268002A01D072B6FEE72D4A196855
:101F90001068186011602C4A136801331360FFF752
:101FA00097FE2A4F00263B689C4207D3244B1A68B1
:101FB0001268002A19D101235B423B60244B1B6845
:101FC000DA6A14235343234AD358012B00D901263C
:101FD000214B1B68002B00D001263000FEBD1F4A9C
:101FE0000026136801331360F2E71B68DB68DD68C5
:101FF0006B689C42E1D32B1D18000193FFF7BEF9DB
:10200000AB6A002B03D028001830FFF7B7F9144B48
:10201000E86A1A68904200D91860142358430D4B9F
:10202000291D1818FFF787F9094BEA6A1B68DB6A54
:102030009A42BBD30126B9E7D011002050120020EC
:1020400030110020341100200C1200200812002052
:102050002C1100203811002054120020CC11002037
:10206000D8110020F8B52B4C2368002B01D172B693
:10207000FEE7FFF7D5F92368013B23602468002CB5
:1020800004D00024FFF7D8F92000F8BD224B1B68CC
:10209000002BF6D014260127204B1A68002A1AD1EB
:1020A000002C01D0FFF714FE1D4D2C68002C0AD027
:1020B0000126FFF759FF002801D01A4B1E60013C92
:1020C000002CF6D12C60174B1B68002BD9D0FFF7E2
:1020D0009BF90124D6E7DB68DC682000251D183059
:1020E000FFF74CF92800FFF749F90F4BE06A1A682F
:1020F000904200D9186070430C4B29001818FFF764
:102100001AF90B4BE26A1B68DB6A9A42C4D3054B8F
:102110001F60C1E7D0110020C41100201012002060
:10212000CC11002054120020D811002038110020BA
:102130002C11002070B5041E02D1FFF765F970BDA7
:10214000084B1D68002D01D072B6FEE7FFF7FEFEBA
:1021500029002000FFF7D0FDFFF784FF0028EED113
:10216000EBE7C046D011002070B5154C2368002B5A
:1021700006D1144B1B68012BF7D9FFF745F9F4E79B
:10218000FFF7E4FE104D2E68FFF76CFF002EECD039
:10219000FFF746F9EB68DD68281DFFF7EFF80B4AFB
:1021A0001368013B13602368013B2360FFF744F988
:1021B000286BFFF765FA2800FFF762FAD5E7C046FB
:1021C000C8110020381100203C120020C41100204A
:1021D000154B30B51A68154B002A02D001221A603F
:1021E00030BD142412481A60026812492300534378
:1021F0005D58002D12D0CC18656808336D68CB1877
:1022000065609D4201D16B68636014235343C91814
:102210004B68D968084B19600260E1E7002A01D1D8
:1022200072B6FEE7013AE1E7D01100205412002017
:10223000D8110020381100202C11002010B50C00FE
:10224000002801D172B6FEE7044B19681831FFF778
:102250007EF801212000FFF74FFD10BD2C1100205A
:1022600070B50C001500002801D172B6FEE7074BCF
:1022700019681831FFF75FF8002D01D0012464427E
:1022800029002000FFF738FD70BDC0462C1100204A
:10229000C36870B5DC68002C01D172B6FEE725007A
:1022A00018352800FFF76AF8114B1B68002B1BD16B
:1022B000251D2800FFF762F80E4AE36A11688B4279
:1022C00000D913601420290043430B48C018FFF7BE
:1022D00032F80A4BE26A1B680020DB6A9A4202D994
:1022E000074B0130186070BD29000648EFE7C04673
:1022F000D0110020D8110020381100202C1100200E
:102300005412002010120020002801D172B6FEE7FE
:10231000034B1B680360034B1B6843607047C04658
:102320000C1200205012002070B504000D0000288F
:1023300001D172B6FEE7002901D172B6FEE7FFF7C0
:102340006FF80F4B002619682B685A1C13D00D4AE2
:10235000266810686268864202D0012691420AD23D
:10236000881A0126834206D95B1A9B182B6020002D
:10237000FFF7CAFF0026FFF75FF8300070BDC046C8
:10238000501200200C1200200122014B1A607047ED
:1023900054120020054B01201B68002B04D0044B75
:1023A00018684342584140007047C046241200203C
:1023B000D0110020F8B5041E26D0164FC16A3B6824
:1023C000DB6A994220D28369002B04DB07223B6839
:1023D000DB6AD21A826114234B430F4E6269F318F1
:1023E0009A4212D1251D2800FEF7C8FF3B680B4A10
:1023F000DB6A1168E3628B4200D9136014205843F2
:1024000029003018FEF797FFF8BD3B68DB6AE362EE
:10241000FAE7C0462C11002038110020D811002006
:1024200070B5041E01D1002070BD154B1B68984289
:1024300001D072B6FEE7836C002B01D172B6FEE7C5
:10244000C26A416C013B83648A42ECD0002BEAD122
:10245000051D2800FEF792FF0723606C1B1AA3617D
:10246000084BE0621A68904200D918601423434375
:1024700005482900C018FEF75EFF0120D4E7C046DA
:102480002C110020D811002038110020044B1A68AC
:10249000002A03D019688A6C01328A641868704770
:1024A0002C110020F8B5FEF7BBFF0F4C2568002D5E
:1024B00016D10E4F3800FEF730FF0D4E3000FEF7FC
:1024C0002CFF0C4B2A001F600B4B0C210A201E60B6
:1024D000FFF7ADF92060002802D00849FFF7C0FBE4
:1024E000FEF7AAFFF8BDC0468C1200206012002043
:1024F00074120020581200205C1200209D42000837
:1025000010B54160006191420CD8D21A8369012450
:102510009A4205D2074B011D1868FEF718FF0024E8
:10252000200010BD9A4202D201249942F8D2011D26
:10253000014BF1E75C1200205812002007B5FFF7AD
:10254000B1FF094B1B68002B0BD0084B8022019375
:1025500002230749009307480023FFF705FC0028E2
:1025600001D172B6FEE70EBD8C1200209012002041
:10257000A242000865260008F7B5070028200D00D4
:1025800016000193FEF7FAFF041E0FD0002D01D1B3
:1025900072B6FEE7FFF786FF019B27602362089B68
:1025A000A561E6616362201DFEF7C2FE2000FEBD4C
:1025B000F0B5170085B006001A00002801D172B6E8
:1025C000FEE70E4D2C68201E0FD001910297039656
:1025D00005290CDCFFF7DEFE00230A9A022800D052
:1025E0001A0001A92868FFF73FF905B0F0BD0023E4
:1025F00001A92000FFF7C7F9F7E7C0468C120020B9
:10260000F7B5164D2B681A68002A04D1144A1168D0
:1026100013602960F7BDDB68DC681E68271D380081
:10262000FEF7ACFE636A20009847E369012BE8D10E
:10263000A369F3189E4206D26360246139002868BA
:10264000FEF785FEDDE70021320000910B0020003F
:10265000FFF7AEFF0028D4D172B6FEE75812002073
:102660005C120020F0B589B00026584C23681A6827
:102670000392B24201D0DB681E68FFF767FCFFF7E8
:102680006DFC534F02903A680025904202D2FFF74A
:10269000B7FF0135029B3B60002D6AD1039B002BE5
:1026A00054D0029B28009E4255D8FFF7DBFC2368DC
:1026B000DB68DC68201DFEF761FEE369012B13D1A6
:1026C000A369029AF11820003300FFF719FF0028D0
:1026D0000AD000952B00320029002000FFF768FF88
:1026E000002801D172B6FEE7636A200098470023F4
:1026F00038481A0005A90068FFF7CBF90028B3D0C5
:10270000059B002BF3DB079C6369002B02D0201D87
:10271000FEF734FEFFF722FC3B680500984201D229
:10272000FFF76EFF059B3D60092BE0D80122842650
:102730009A40B600130016403BD1C72213421BD16A
:102740009B06D4D52000FEF79BFFD0E7224B1B68E9
:102750001A6850425041029B0200F11A1D4B186842
:10276000FFF790FAFFF77EFC0028C0D1FEF74CFE81
:10277000BDE7FFF777FCBAE7069BA269200099182E
:102780002A000293FFF7BCFE0028B0D0636A200045
:102790009847E369012BAAD1A369069A0096D2183B
:1027A000310033002000FFF703FF00289FD172B6ED
:1027B000FEE70699A161002901D172B6FEE7491929
:1027C0002B002A002000FFF79BFE90E75812002004
:1027D000881200208C1200205C12002010B50349E2
:1027E0000348FEF701FD034B187010BDE8120020EE
:1027F0000C000020EC120020054B82B05A69024305
:102800005A615B6918400190019B02B07047C04655
:1028100000100240704710B5FFF7E0FF0120FEF7FF
:1028200005FDFBE770B5102594B03022002108A803
:1028300000F0BFFD2A000021684600F0BAFD00212B
:102840002A0004A800F0B5FD8023022401265B03C2
:1028500008A808940B960C9510941293FDF704FFAA
:10286000011E00D0FEE70723029003906846009304
:102870000194FEF70DF9002800D0FEE7069004A8A9
:102880000496FEF7C7F9002800D0FEE714B070BD2B
:10289000F0B599B011ACFDF7C3FCFFF7C3FF1822E8
:1028A0000021200000F085FD80200003FFF7A4FF39
:1028B0008020C003FFF7A0FF80208002FFF79CFF6D
:1028C0008020C002FFF798FF90231022DB059A6258
:1028D00092189A6220329A620223FE4EC032B3628C
:1028E000DB18B3628023DB00B36280231B01B36279
:1028F00080235B01B36280239B01B3628023DB01F1
:10290000B36280231B02B3629023DB059A628022AC
:1029100012019A62802252019A624022EE4B0025F7
:102920009A6292189A6290238022DB0512029A62C0
:102930000823B362DB18B3621033B3622033B3628F
:102940004033B3628033B3620133FF33B362802319
:1029500001279B012100E148119365602761FEF783
:10296000F6FA80232100DB01DC48119365602761C2
:10297000FEF7EDFA802321001B02D8481193656011
:102980002761FEF7E4FA2100D348119765602761BB
:10299000FEF7DDFA902010232100C0051193676037
:1029A000A560E5602761FEF7D2FA90202023210080
:1029B000C00511936760A560E5602761FEF7C7FA5F
:1029C000902040232100C00511936760A560E56059
:1029D0002761FEF7BCFA902080232100C0051193E7
:1029E00065602561FEF7B3FA21003000119765603C
:1029F0002761FEF7ACFA02232100300011936760D3
:102A0000A560E5602761FEF7A2FA042321003000EB
:102A100011936760A560E5602761FEF798FA80234F
:102A20002100DB00300011936760A560E56027613D
:102A3000FEF78DFA802321001B013000119367609F
:102A4000A560E5602761FEF782FA802321005B0123
:102A5000300011936760A560E5602761FEF777FAA3
:102A6000802321009B01300011936760A560E56021
:102A70002761FEF76CFA80232100DB0130001193FF
:102A80006760A560E5602761FEF761FA8023210099
:102A90001B02300011936760A560E5602561FEF7B9
:102AA00056FA802390205B002100C00511936760D7
:102AB000A560E5602761FEF74AFA802390201B019C
:102AC0002100C00511936760A560E5602761FEF7EE
:102AD0003EFA802390205B012100C00511936760BE
:102AE000A560E5602761FEF732FA402321007A48AD
:102AF00011936760A560E5602761FEF728FA8023DF
:102B00002100754811936760A560E5602761FEF7B5
:102B10001EFA802390201B022100C00511936760DC
:102B2000A560E5602761FEF712FA08232100300056
:102B300011936760A560E5602761FEF708FA10232E
:102B40002100300011936760A560E5602761FEF702
:102B5000FEF920232100300011936760A560E56035
:102B60002761FEF7F4F940232100300011936760DC
:102B7000A560E5602761FEF7EAF9802321003000B7
:102B800011936760A560E5602761FEF7E0F9802397
:102B900021005B00300011936760A560E56027614C
:102BA000FEF7D5F9802321009B0030001193676068
:102BB000A560E5602761FEF7CAF9494B484A5B69A1
:102BC00048493B4353615369C2223B400493049BF1
:102BD000454B92009B5820001940C0231B040B4317
:102BE0004149424E8B500B008021C9001960C02121
:102BF0009B5809061B021B0A0B433B498B50802242
:102C000012010A601C22290000F0D3FB29001822BF
:102C10000BA800F0CEFB8022314B9202DB691343FC
:102C20002F4AD361D369802292021340100005938A
:102C3000059BFFF7E1FD042390200B93023B0C93CF
:102C40000BA9DB19C0050D930E950F951097FEF794
:102C50007EF9082390200B93063B0C930BA9DB19FC
:102C6000C0050D930E950F951097FEF770F9204B48
:102C700020491A6830000A4010210A431A601A6875
:102C80001D490A4020211A601A688A431A601A688E
:102C900049188A431A601A6840318A430A431A6005
:102CA0001A6816490A401A601A6815490A401A60DB
:102CB00096239B0111930C23210023616560A5607D
:102CC000E5606561A561FEF715FAB3680D4A290054
:102CD000134019E0000400480014004800080048B0
:102CE00000100240FFFF00FF00E100E00044004050
:102CF00044000240EFBFFFFFFFCFFFFFFFFCFFFFDD
:102D0000FFF3FFFFFFFBFFFFB3607368874A2000FC
:102D1000134008227360B3689343B360336818327A
:102D20003B433360336813433360043A00F041FBA4
:102D3000290018220BA800F03CFB80227C4BD2011A
:102D40009B69802013437A4A8002936193698022B1
:102D5000D20113400693069BFFF74EFD802390207F
:102D60009B000B93FF3BFF3B0C930BA9DB19C005AA
:102D70000D930E950F951097FEF7E9F88023DB0071
:102D80000B93902002230BA90C93C005DB190D9324
:102D90000E950F951097FEF7DAF8664B66491A689C
:102DA000664E0A4010210A431A601A6864493000CE
:102DB0000A4020211A601A688A431A601A68491862
:102DC0008A431A601A6840318A430A431A601A68B3
:102DD0005C490A401A601A685B490A401A60C622B8
:102DE000C0215A4B92009B5809061B021B0A0B4339
:102DF00056498B5080231B050B6096231B011193B2
:102E00000C232361802321001B02A3616560A56060
:102E1000E5606561FEF76EF9B3684D4A290013401D
:102E2000B3607368414A2000134008227360B3689E
:102E30009343B360336804323B43336000F0B9FA24
:102E4000444E454B3000336080231B0673600423DF
:102E50007361C223FF33B560F5603761B561F56119
:102E600035627562B362F56235637763FDF7F6F933
:102E7000A84200D0FEE78023802511905B016D05FC
:102E8000210030006360A560FDF78EFA01900028F4
:102E900000D0FEE7C721FF222C4B89005B5802A817
:102EA00093431A00C0231343284A5350019B1560D3
:102EB00039000293FEF7D2F9284B019A1860284B8B
:102EC000390003A80393FEF7B9F9264B264D186085
:102ED00007A803002E0006CE06C30199FEF716FAD6
:102EE000224B2435186009A8030006CE06C30199B9
:102EF000FEF70CFA1E4B18600BAB07CE07C306CECD
:102F000006C30BA80199FEF779F91A4B1860230044
:102F100007CD07C306CD06C320000199FEF76EF961
:102F2000154B1860FEF765F9FEE7C046FFF7FFFF97
:102F3000001002401C000240EFBFFFFF00380140BC
:102F4000FFCFFFFFFFFCFFFFFFF3FFFF00E100E00B
:102F5000FFFBFFFF6C1700200024014054170020E6
:102F60001528000864170020604200086817002038
:102F70005C17002050170020B8170020034B026890
:102F800010B59A4201D1FDF75BF910BD0048014030
:102F9000F8B5342301264025234C764223700133B3
:102FA0006370224B31001868FEF76AF90028F8D1E7
:102FB0001F48417882780B00C77853407B400779DF
:102FC0007B4047797B4087797B40C779007A7B409B
:102FD000984208D123788B4205D16378934202D17D
:102FE000144800F0EFF90A21134B144A1B78144FD0
:102FF0009360144BD36053681B0C1B040B4353604A
:103000003D6239682943396001211068014311602C
:103010008022B9680A43BA60FB692B42C1D10520FE
:10302000FEF704F9F8E7C046BC170020541700204B
:1030300012180020B9420008BE17002044000240C8
:10304000004400402844004007B501200B4B99691B
:103050000143996180219A69490502400092009AD2
:10306000DA6903380A43DA61DB6900220B40019315
:103070000321019BFDF70EFA07BDC0460010024078
:1030800010B5040088B01422002103A800F091F9C3
:10309000104B22689A421BD180200F4B8000996907
:1030A0000143996180219A69890202400192019A43
:1030B0005A6990200A435A615B69C0050B4002932C
:1030C000029B012303A9039302330493FDF71CFA27
:1030D00008B010BD002401400010024010B50100EE
:1030E00086B000221620FDF7D5F91620FDF702FA6A
:1030F0008020144AC0029169014391619369694635
:103100000340019302A8019BFDF768FDFDF756FD02
:103110000D4C0E4B0E4923600E4BE360FCF7F4FFA1
:1031200000230138606020002361A360FDF7F2FEF8
:1031300003000120002B02D12000FDF7F0FD06B0B6
:1031400010BDC04600100240C817002000480140D2
:1031500040420F00E70300007047FEE710B5024849
:10316000FDF7EBFD10BDC046C8170020024BDA6921
:10317000920600D59B8C704700380140154A70B507
:10318000D3699B0619D5144C918C2378134AD154DA
:10319000002B03D11278002A0CD070BD092B09D165
:1031A000557A0023002D06D10D4B1868FEF78EF8D6
:1031B0002570F2E701332370EFE74021D3690B421A
:1031C000EBD013688B431360064A3F3913688B4377
:1031D0001360E2E70044004094120020121800201F
:1031E000541700204400024070B50E0015000C007A
:1031F000A31B9D4201DC280070BD00E000BF2070D1
:103200000134F5E770B50E0015000C00A31B9D42BC
:1032100001DC280070BD207800E000BF0134F5E734
:103220000A4B10B519680200002901D1084919603C
:103230006946186882188A4206D900F087F80C237C
:1032400003600120404210BD1A60FCE79812002084
:103250002018002001204042704780239B0100205D
:103260004B60704701207047002070470121114BCF
:1032700011481A680A431A605A6802405A601A686C
:103280000E4802401A601A680D4802401A605A68D7
:103290000C4802400F205A60DA6A8243DA621A6BE5
:1032A000094802401A635A6B8A435A6300229A60A3
:1032B0007047C046001002400CB8FF08FFFFF6FE42
:1032C000FFFFFBFFFFFFC0FFECFEFFFF0122024BF1
:1032D0001A701878C0B270470800002000207047AC
:1032E00001207047002070470122024B1A701878A5
:1032F000C0B27047080000200D4885460D480E49B1
:103300000E4A002302E0D458C4500433C4188C423F
:10331000F9D30B4A0B4C002301E013600432A242A4
:10332000FBD3FFF7A3FF00F017F8FFF7B1FAFEE7B2
:1033300000200020000000208400002088430008B6
:103340008400002020180020FEE70000014B1868D0
:103350007047C0462000002070B500260C4D0D4C73
:10336000641BA410A64209D1002600F05DFF0A4D9F
:103370000A4C641BA410A64205D170BDB300EB58E3
:1033800098470136EEE7B300EB5898470136F2E76D
:1033900080430008804300088043000884430008FD
:1033A000002310B59A4200D110BDCC5CC454013347
:1033B000F8E703008218934200D170471970013377
:1033C000F9E700000FB40B4B13B51C68002C05D0B7
:1033D000A369002B02D1200000F050F805AB049A3D
:1033E000A1682000019300F065F916BC08BC04B088
:1033F0001847C0462000002010B5024900F0B2F87E
:1034000010BDC046B13F0008002310B504000360A2
:103410004360836081814366C2810361436183614C
:10342000190008225C30FFF7C4FF054B2462636279
:10343000044BA362044BE362044B236310BDC046FC
:10344000213C0008493C0008813C0008AD3C0008D4
:1034500070B568254A1E55430E002900743100F0EE
:10346000A3F8041E08D000212A00016046600C3039
:10347000A0606832FFF79DFF200070BD836913B51F
:103480000400002B28D18364C3640365134B144AE2
:103490001B6882620193984201D10123836120005D
:1034A00000F020F86060200000F01CF8A060200010
:1034B00000F018F80022E06004216068FFF7A4FF24
:1034C00001220921A068FFF79FFF02221221E06874
:1034D000FFF79AFF0123A36113BDC046E84200082D
:1034E000F9330008F8B51E4B07001E68B369002BBE
:1034F00002D13000FFF7C2FF4836B4687368013B61
:1035000004D53368002B07D03668F6E70C22A55E99
:10351000002D0DD06834F2E704213800FFF798FF42
:1035200030600028F0D10C2304003B602000F8BD7F
:10353000012320005B42E3810233A381656625609D
:10354000A560656025616561A561082229005C3080
:10355000FFF72FFF6563A563A564E564E6E7C04652
:10356000E8420008F7B5040007000026019148343E
:10357000002C01D13000FEBD6368A5680093009B5C
:10358000013B009301D52468F2E7AB89012B08D9F0
:103590000E22AB5E013304D029003800019B98470E
:1035A00006436835EBE70000032370B5CD1C9D434F
:1035B000083506000C2D1ED20C25A9421DD830005E
:1035C00000F0ADFD254A14682100002919D1244CD2
:1035D0002368002B03D1300000F010FB206029008D
:1035E000300000F00BFB431C2CD10C233000336067
:1035F00000F096FD03E0002DDFDA0C23336000209D
:1036000070BD0B685B1B1AD40B2B03D90B60CC1855
:10361000256003E08C420ED163681360300000F037
:103620007FFD200007220B30231D9043C31AE7D0F3
:103630005A42E250E4E74B6863600C00EEE70C008E
:103640004968C2E70323C41C9C43A042E0D0211A6E
:10365000300000F0D3FA431CDAD1C6E79C120020F8
:10366000A0120020936810B5013B9360002B05DA8F
:103670009469A34208DBCBB20A2B05D01368581C0F
:1036800010601970C8B210BD00F016FBFBE7F8B56A
:1036900006000F001400D518AC4201D1002007E04D
:1036A00021783A003000FFF7DDFF0134431CF3D1ED
:1036B000F8BD0000F0B59FB006000F0014000593A0
:1036C000002804D08369002B01D1FFF7D7FE7F4B80
:1036D0009F425CD17768BB891B0762D53B69002B91
:1036E0005FD0002306AD6B6120336B761033AB7671
:1036F0000294029C2378002B5DD1029BE31A049371
:103700000DD0049B029A39003000FFF7C0FF431C24
:1037100000D1CCE06A69049B944663446B612378D2
:10372000002B00D1C3E00122002352426A6002A9AB
:103730005432521801342B60EB60AB601370AB65F0
:1037400021780522624800F0DFFC631C9C460028BB
:1037500035D12968CB0604D5532302AA20309B1803
:1037600018700B0704D553232B2002AA9B1818703E
:1037700023782A2B2CD000200A21099B2278303A6A
:10378000092A00D86BE000282AD0099328E0514B81
:103790009F4201D1B7689EE74F4B9F429BD1F7688C
:1037A00099E73900300000F0F1FA002899D00120A3
:1037B00040421FB0F0BD252B9FD001349AE7444B07
:1037C0002968C01A012383400B432B606446B7E786
:1037D000059B181D1B680590002B3ADB0993644676
:1037E00023782E2B0BD16378621C2A2B3FD1059BAB
:1037F00002341A1D1B680592002B35DB07932178D4
:103800000322364800F080FC002807D0334B2A689A
:10381000C01A4023834013432B6001342178631C7A
:1038200006222F480293297600F06EFC002844D02F
:103830002C4B002B2FD12968059B0722C90528D5C1
:103840009B189343083305936B69039A9B186B612C
:103850004FE75B42EB6002230B432B60BFE74B4318
:1038600001349B18012089E701235B42C6E700234E
:1038700014000A201A006B6021783039092903D915
:10388000002BBCD00792BAE74243013452180123FF
:10389000F2E70733D5E705AB00933A00124B290056
:1038A000300000E000BF0390039B0133CCD1BB8903
:1038B0005B0600D57BE70B987BE705AB00933A00EE
:1038C000094B2900300000F07FF8ECE70C430008BA
:1038D0004C4300082C430008EC4200085243000807
:1038E00056430008000000008F360008F7B51500A9
:1038F00001938A680B6900900C00934200DA130070
:1039000022002B6043321278002A01D001332B6051
:1039100023689B0602D52B6802332B600627236899
:103920001F4027D0230043331B785A1E934122683F
:10393000920630D42200019943320098089EB04785
:10394000431C25D0062320682A68E168034000252F
:10395000042B03D18D1AEB43DB171D40A3682269AA
:10396000934201DD9B1AED180027BD4220D10020B3
:1039700010E00137E3682A689B1A9F42D2DA2200DE
:103980000123193201990098089EB047431CF0D1D9
:1039900001204042FEBD3020E11843310870210073
:1039A0005A1C45310978A218433202331170C1E71D
:1039B000220001231A3201990098089EB047431C47
:1039C000E6D00137D1E70000F0B58BB006920A00CF
:1039D00043320793059004920A7E0C00109B6E2AD6
:1039E00000D18FE017D8632A2CD008D8002A00D144
:1039F00099E0582A54D026004236327029E0642AD1
:103A000001D0692AF7D121681A68080623D5111D4B
:103A10001960156825E0732A00D188E008D86F2A5C
:103A200029D0702AE7D1202209680A43226003E0E6
:103A3000752A20D0782ADED12200782145321170F3
:103A40006C4A30E00E001A684236111D1960136886
:103A50003370012379E04906D9D5111D196000237F
:103A6000D55E002D03DA2D23049A6D421370624B4C
:103A70000A2703932FE020681968050603D5081D5F
:103A800018600D6805E04006F9D50D68081D18603E
:103A9000ADB2594B082703936F2A18D00A2716E0B6
:103AA00045310A70544A03921A682168101D186043
:103AB0001568080622D5CB0702D5202319432160BB
:103AC0001027002D03D1202322689A43226023006F
:103AD000002243331A706368A360002B5CDB04226E
:103AE000216891432160002D58D1049E002B64D0A1
:103AF0002600039B42361B7833705EE04806DAD519
:103B0000ADB2D8E709681A68080605D5111D196015
:103B1000136862691A6006E04906F7D5111D19603D
:103B20001368A28A1A800023049E236154E01A6855
:103B3000111D1960166800216268300000F0E4FA77
:103B4000002801D0801B6060636823610023049A11
:103B5000137041E02369320006990598079DA84734
:103B6000431C43D0236800259B070FD4099BE068C2
:103B700098423DDA18003BE02200012319320699F1
:103B80000598079EB047431C30D00135E368099A79
:103B90009B1A9D42F0DBE9E7002DA9D0049E280086
:103BA0003900FCF737FB039B013E5B5C2800337058
:103BB0003900FCF7A9FA051EF1D1082F09D12368B5
:103BC000DB0706D563682269934202DC3023013E9D
:103BD0003370049B9B1B2361079B09AA0093210060
:103BE000069B0598FFF782FE431CB3D1012040429B
:103BF0000BB0F0BD6E4300085D430008002370B5B4
:103C0000064C050008002360FFF70AFB431C03D1A4
:103C10002368002B00D02B6070BDC0461C1800200C
:103C200070B50C000E25495F00F0C6FA002803DBD2
:103C3000636D1B18636570BDA389024A1340A3819D
:103C4000F9E7C046FFEFFFFFF8B51F008B890500BD
:103C50000C001600DB0505D50E23C95E00220223E9
:103C600000F0D2F9A389054A28001340A38132004D
:103C70000E23E15E3B0000F075F8F8BDFFEFFFFF9B
:103C800070B50C000E25495F00F0BEF9A389421CF7
:103C900003D1054A1340A38170BD80225201134312
:103CA000A3816065F8E7C046FFEFFFFF10B50E2364
:103CB000C95E00F0E1F810BDF8B505000E00140073
:103CC000002804D08369002B01D1FFF7D7FB224BDA
:103CD0009C422DD16C68A369A360A3891B0731D5D1
:103CE0002369002B2ED023682269F7B2981A6369E2
:103CF000F6B2984205DB2100280000F059F90028AF
:103D000026D1A3680130013BA36023685A1C2260BE
:103D10001F706369984204D0A389DB071AD50A2E65
:103D200018D12100280000F043F9002812D00FE03C
:103D30000A4B9C4201D1AC68CDE7094B9C42CAD1E9
:103D4000EC68C8E72100280000F020F80028CAD05D
:103D5000012676423000F8BD0C4300082C430008D1
:103D6000EC42000870B50500080011000022064C66
:103D700022601A00FFF746FA431C03D12368002B88
:103D800000D02B6070BDC0461C180020364B70B5AB
:103D90001D6806000C00002D05D0AB69002B02D178
:103DA0002800FFF76BFB314B9C420FD16C680C2352
:103DB000E25E93B219072DD4D90611D4092301204C
:103DC000336037331343A381404270BD284B9C427C
:103DD00001D1AC68EBE7274B9C42E8D1EC68E6E701
:103DE0005B0713D5616B002908D023004433994247
:103DF00002D0300000F096F9002363632422A389E7
:103E00009343A38100236360236923600823A2896D
:103E10001343A3812369002B0BD1A0218022A38906
:103E2000890092000B40934203D02100300000F043
:103E300027F90123A289134011D00023A3606369ED
:103E40005B42A361002023698342BED10C23E25E62
:103E50001306BAD540231343A3810138B5E792076F
:103E600000D46369A360EDE7200000200C43000844
:103E70002C430008EC420008002370B5064C0500F6
:103E800008002360FFF7E6F9431C03D12368002BE9
:103E900000D02B6070BDC0461C180020F7B58A8981
:103EA00005000C00130760D44B68002B04DC0B6C7E
:103EB000002B01DC0020FEBDE76A002FFAD00023B2
:103EC0002E682B6080235B011A4034D0606DA3897B
:103ED0005B0706D56368C01A636B002B01D0236CA7
:103EE000C01A0200216A00232800E76AB847A189A6
:103EF000431C06D12B681D2B31D82C4ADA40D3073E
:103F00002DD50023636023692360CB0405D5431CB2
:103F100002D12B68002B00D16065616B2E600029F7
:103F2000C8D023004433994202D0280000F0FAF8A8
:103F300000206063BFE70123216A2800B847431CC3
:103F4000C5D12B68002BC2D01D2B01D0162B01D15F
:103F50002E60AFE74023A2891343A381ABE7402340
:103F60000B430120A3814042A5E70F69002FA1D098
:103F70000B680F60DB1B01930023920700D14B6994
:103F8000A360019B002B00DC94E7019B3A00216AAF
:103F90002800A66AB047002803DC4023A289134307
:103FA000DFE7019B3F181B1A0193EAE7010040205D
:103FB0000B6970B505000C00002B01D1002070BD0D
:103FC000002804D08369002B01D1FFF757FA0B4B6F
:103FD0009C4209D16C680C22A35E002BEED021001C
:103FE0002800FFF75BFFEAE7054B9C4201D1AC6874
:103FF000F1E7044B9C42EED1EC68ECE70C4300087F
:104000002C430008EC42000870B5050008001100C0
:104010000022064C22601A00FFF726F9431C03D148
:104020002368002B00D02B6070BDC0461C180020F8
:1040300070B50E001D000E23C95E90B0140000295B
:1040400007DA00232B60B3891B0611D48023DB0021
:104050000FE001AA00F0C4F80028F2DBF022029B76
:1040600012021340054A9B185A4253412B60EDE758
:1040700040230020236010B070BDC04600E0FFFF69
:10408000F7B502268B8905000C00334206D02300C9
:1040900047332360236101236361F7BD01AB6A46A7
:1040A000FFF7C6FF009907002800FFF77DFA0028F8
:1040B00008D10C22A35E9A05EFD4032293431E433A
:1040C000A681E4E70F4BAB628023A28920601343F3
:1040D000A381009B20616361019B002B0DD00E2307
:1040E000E15E280000F08EF8002806D00322A389A4
:1040F00093431A0001231343A381A0893843A0816D
:10410000CBE7C046F9330008C9B28218904201D10A
:104110000020704703788B42FBD00130F6E77047F0
:104120007047000070B50500002910D00C1F2368EF
:10413000002B00DAE4182800FFF7F1FF1D4A13688E
:10414000002B05D1636014602800FFF7E9FF70BD04
:10415000A34209D9216860188342F3D118685B68CB
:1041600041182160EEE713005A68002A01D0A242EC
:10417000F9D919685818A0420BD1206809185818A5
:1041800019608242E0D110685268411819605A6083
:10419000DAE7A04202D90C232B60D5E7216860182A
:1041A000824203D1106852684118216062605C60ED
:1041B000CAE7C0469C12002070B505000800110037
:1041C0000022064C22601A00FFF70EF8431C03D1B0
:1041D0002368002B00D02B6070BDC0461C18002047
:1041E000002370B5064C0500080011002360FFF79E
:1041F00034F8431C03D12368002B00D02B6070BD22
:104200001C180020002370B5064C05000800236030
:10421000FFF728F8431C03D12368002B00D02B6044
:1042200070BDC0461C180020F8B5C046F8BC08BCDC
:104230009E467047F8B5C046F8BC08BC9E4670471D
:1042400002030405060708090A0B0C0D0E0F1010D7
:104250000102030405060708090A0B0C0D0E0F10D6
:104260000400000002000000060000000200000040
:10427000B142000817280008FEFF000000000000FF
:1042800040000000AA420008912F00080200000030
:10429000000000004000000049444C4500546D728D
:1042A0005100546D72205376630052435461736B16
:1042B000004C45445461736B00555341525427736D
:1042C0002072656365697665204461746121000030
:1042D00000000000000000010203040607080900B6
:1042E0000000000102030400240000200000000080
:1042F00000000000000000000000000000000000BE
:1043000000000000000000000000000000000000AD
:10431000000000000000000000000000000000009D
:10432000000000000000000000000000000000008D
:10433000000000000000000000000000000000007D
:10434000000000000000000000000000232D302BC2
:104350002000686C4C006566674546470030313286
:1043600033343536373839414243444546003031DD
:10437000323334353637383961626364656600003C
:04438000E900000848
:04438400C10000086C
:10438800AAAAAAAA00127A0001000000E9320008CD
:10439800CD320008E5320008DD320008E1320008BD
:1043A80024000020000000000C4300082C430008F3
:1043B800EC420008000000000000000000000000BF
:1043C80000000000000000000000000000000000E5
:1043D80000000000000000000000000000000000D5
:1043E80000000000000000000000000000000000C5
:1043F80000000000000000000000000000000000B5
:0444080000000000B0
:04000005080032F9C4
:00000001FF
